{"abi":[{"type":"constructor","inputs":[{"name":"_idRegistry","type":"address","internalType":"address"},{"name":"_initialOwner","type":"address","internalType":"address"}],"stateMutability":"nonpayable"},{"type":"function","name":"METADATA_TYPEHASH","inputs":[],"outputs":[{"name":"","type":"bytes32","internalType":"bytes32"}],"stateMutability":"view"},{"type":"function","name":"VERSION","inputs":[],"outputs":[{"name":"","type":"string","internalType":"string"}],"stateMutability":"view"},{"type":"function","name":"acceptOwnership","inputs":[],"outputs":[],"stateMutability":"nonpayable"},{"type":"function","name":"domainSeparatorV4","inputs":[],"outputs":[{"name":"","type":"bytes32","internalType":"bytes32"}],"stateMutability":"view"},{"type":"function","name":"eip712Domain","inputs":[],"outputs":[{"name":"fields","type":"bytes1","internalType":"bytes1"},{"name":"name","type":"string","internalType":"string"},{"name":"version","type":"string","internalType":"string"},{"name":"chainId","type":"uint256","internalType":"uint256"},{"name":"verifyingContract","type":"address","internalType":"address"},{"name":"salt","type":"bytes32","internalType":"bytes32"},{"name":"extensions","type":"uint256[]","internalType":"uint256[]"}],"stateMutability":"view"},{"type":"function","name":"encodeMetadata","inputs":[{"name":"metadata","type":"tuple","internalType":"struct SignedKeyRequestValidator.SignedKeyRequestMetadata","components":[{"name":"requestFid","type":"uint256","internalType":"uint256"},{"name":"requestSigner","type":"address","internalType":"address"},{"name":"signature","type":"bytes","internalType":"bytes"},{"name":"deadline","type":"uint256","internalType":"uint256"}]}],"outputs":[{"name":"","type":"bytes","internalType":"bytes"}],"stateMutability":"pure"},{"type":"function","name":"hashTypedDataV4","inputs":[{"name":"structHash","type":"bytes32","internalType":"bytes32"}],"outputs":[{"name":"","type":"bytes32","internalType":"bytes32"}],"stateMutability":"view"},{"type":"function","name":"idRegistry","inputs":[],"outputs":[{"name":"","type":"address","internalType":"contract IdRegistryLike"}],"stateMutability":"view"},{"type":"function","name":"owner","inputs":[],"outputs":[{"name":"","type":"address","internalType":"address"}],"stateMutability":"view"},{"type":"function","name":"pendingOwner","inputs":[],"outputs":[{"name":"","type":"address","internalType":"address"}],"stateMutability":"view"},{"type":"function","name":"renounceOwnership","inputs":[],"outputs":[],"stateMutability":"nonpayable"},{"type":"function","name":"setIdRegistry","inputs":[{"name":"_idRegistry","type":"address","internalType":"address"}],"outputs":[],"stateMutability":"nonpayable"},{"type":"function","name":"transferOwnership","inputs":[{"name":"newOwner","type":"address","internalType":"address"}],"outputs":[],"stateMutability":"nonpayable"},{"type":"function","name":"validate","inputs":[{"name":"","type":"uint256","internalType":"uint256"},{"name":"key","type":"bytes","internalType":"bytes"},{"name":"signedKeyRequestBytes","type":"bytes","internalType":"bytes"}],"outputs":[{"name":"","type":"bool","internalType":"bool"}],"stateMutability":"view"},{"type":"event","name":"EIP712DomainChanged","inputs":[],"anonymous":false},{"type":"event","name":"OwnershipTransferStarted","inputs":[{"name":"previousOwner","type":"address","indexed":true,"internalType":"address"},{"name":"newOwner","type":"address","indexed":true,"internalType":"address"}],"anonymous":false},{"type":"event","name":"OwnershipTransferred","inputs":[{"name":"previousOwner","type":"address","indexed":true,"internalType":"address"},{"name":"newOwner","type":"address","indexed":true,"internalType":"address"}],"anonymous":false},{"type":"event","name":"SetIdRegistry","inputs":[{"name":"oldIdRegistry","type":"address","indexed":false,"internalType":"address"},{"name":"newIdRegistry","type":"address","indexed":false,"internalType":"address"}],"anonymous":false},{"type":"error","name":"InvalidShortString","inputs":[]},{"type":"error","name":"StringTooLong","inputs":[{"name":"str","type":"string","internalType":"string"}]}],"bytecode":{"object":"0x610160604052348015610010575f5ffd5b506040516115be3803806115be83398101604081905261002f91610245565b60405180606001604052806023815260200161159b602391396040805180820190915260018152603160f81b6020820152818161006b33610147565b610076826002610163565b61012052610085816003610163565b61014052815160208084019190912060e052815190820120610100524660a05261011160e05161010051604080517f8b73c3c69bb8fe3d512ecc4cf759cc79239f7b179b0ffacaa9a75d522b39400f60208201529081019290925260608201524660808201523060a08201525f9060c00160405160208183030381529060405280519060200120905090565b60805250503060c0525050600480546001600160a01b0319166001600160a01b03841617905561014081610147565b5050610420565b600180546001600160a01b031916905561016081610195565b50565b5f60208351101561017e57610177836101e4565b905061018f565b81610189848261030e565b5060ff90505b92915050565b5f80546001600160a01b038381166001600160a01b0319831681178455604051919092169283917f8be0079c531659141344cd1fd0a4f28419497f9722a3daafe3b4186f6b6457e09190a35050565b5f5f829050601f81511115610217578260405163305a27a960e01b815260040161020e91906103c8565b60405180910390fd5b8051610222826103fd565b179392505050565b80516001600160a01b0381168114610240575f5ffd5b919050565b5f5f60408385031215610256575f5ffd5b61025f8361022a565b915061026d6020840161022a565b90509250929050565b634e487b7160e01b5f52604160045260245ffd5b600181811c9082168061029e57607f821691505b6020821081036102bc57634e487b7160e01b5f52602260045260245ffd5b50919050565b601f82111561030957805f5260205f20601f840160051c810160208510156102e75750805b601f840160051c820191505b81811015610306575f81556001016102f3565b50505b505050565b81516001600160401b0381111561032757610327610276565b61033b81610335845461028a565b846102c2565b6020601f82116001811461036d575f83156103565750848201515b5f19600385901b1c1916600184901b178455610306565b5f84815260208120601f198516915b8281101561039c578785015182556020948501946001909201910161037c565b50848210156103b957868401515f19600387901b60f8161c191681555b50505050600190811b01905550565b602081525f82518060208401528060208501604085015e5f604082850101526040601f19601f83011684010191505092915050565b805160208083015191908110156102bc575f1960209190910360031b1b16919050565b60805160a05160c05160e05161010051610120516101405161112a6104715f395f61047f01525f61045401525f61097e01525f61095601525f6108b101525f6108db01525f610905015261112a5ff3fe608060405234801561000f575f5ffd5b50600436106100e5575f3560e01c80638174946811610088578063aa4e0ce811610063578063aa4e0ce814610200578063e30c397814610223578063f2fde38b14610241578063ffa1ad7414610254575f5ffd5b806381749468146101b557806384b0196e146101c85780638da5cb5b146101e3575f5ffd5b80635f93f453116100c35780635f93f4531461017b578063715018a61461019b57806378e890ba146101a557806379ba5097146101ad575f5ffd5b80630aa13b8c146100e95780634980f28814610133578063596f1cda14610154575b5f5ffd5b6004546101099073ffffffffffffffffffffffffffffffffffffffff1681565b60405173ffffffffffffffffffffffffffffffffffffffff90911681526020015b60405180910390f35b610146610141366004610b69565b610290565b60405190815260200161012a565b6101467f16be47f1f1f50a66a48db64eba3fd35c21439c23622e513aab5b902018aec43881565b61018e610189366004610b80565b6102a0565b60405161012a9190610c0a565b6101a36102c9565b005b6101466102dc565b6101a36102ea565b6101a36101c3366004610c44565b6103a4565b6101d0610447565b60405161012a9796959493929190610c5d565b5f5473ffffffffffffffffffffffffffffffffffffffff16610109565b61021361020e366004610e1b565b6104ea565b604051901515815260200161012a565b60015473ffffffffffffffffffffffffffffffffffffffff16610109565b6101a361024f366004610c44565b6106f1565b61018e6040518060400160405280600a81526020017f323032332e30382e32330000000000000000000000000000000000000000000081525081565b5f61029a826107a0565b92915050565b6060816040516020016102b39190610eff565b6040516020818303038152906040529050919050565b6102d16107e7565b6102da5f610867565b565b5f6102e5610898565b905090565b600154339073ffffffffffffffffffffffffffffffffffffffff168114610398576040517f08c379a000000000000000000000000000000000000000000000000000000000815260206004820152602960248201527f4f776e61626c6532537465703a2063616c6c6572206973206e6f74207468652060448201527f6e6577206f776e6572000000000000000000000000000000000000000000000060648201526084015b60405180910390fd5b6103a181610867565b50565b6103ac6107e7565b6004546040805173ffffffffffffffffffffffffffffffffffffffff928316815291831660208301527f940dcf34ec2e245e837ee4599997e577ce274d7b87c73238e2878ac7ea1af2f1910160405180910390a1600480547fffffffffffffffffffffffff00000000000000000000000000000000000000001673ffffffffffffffffffffffffffffffffffffffff92909216919091179055565b5f6060808280808361047a7f000000000000000000000000000000000000000000000000000000000000000060026109ce565b6104a57f000000000000000000000000000000000000000000000000000000000000000060036109ce565b604080515f808252602082019092527f0f000000000000000000000000000000000000000000000000000000000000009b939a50919850469750309650945092509050565b5f806104f883850185610fbf565b80516004805460208401516040517fd94fe832000000000000000000000000000000000000000000000000000000008152949550929373ffffffffffffffffffffffffffffffffffffffff9091169263d94fe83292610573920173ffffffffffffffffffffffffffffffffffffffff91909116815260200190565b602060405180830381865afa15801561058e573d5f5f3e3d5ffd5b505050506040513d601f19601f820116820180604052508101906105b29190611052565b146105c0575f9150506106e9565b80606001514211156105d5575f9150506106e9565b84516020146105e7575f9150506106e9565b6004546020808301518351885189840120606086015160405173ffffffffffffffffffffffffffffffffffffffff909616956332faac709561068293610667937f16be47f1f1f50a66a48db64eba3fd35c21439c23622e513aab5b902018aec4389387930193845260208401929092526040830152606082015260800190565b604051602081830303815290604052805190602001206107a0565b85604001516040518563ffffffff1660e01b81526004016106a69493929190611069565b602060405180830381865afa1580156106c1573d5f5f3e3d5ffd5b505050506040513d601f19601f820116820180604052508101906106e591906110ad565b9150505b949350505050565b6106f96107e7565b6001805473ffffffffffffffffffffffffffffffffffffffff83167fffffffffffffffffffffffff0000000000000000000000000000000000000000909116811790915561075b5f5473ffffffffffffffffffffffffffffffffffffffff1690565b73ffffffffffffffffffffffffffffffffffffffff167f38d16b8cac22d99fc7c124b9cd0de2d3fa1faef420bfe791d8c362d765e2270060405160405180910390a350565b5f61029a6107ac610898565b836040517f19010000000000000000000000000000000000000000000000000000000000008152600281019290925260228201526042902090565b5f5473ffffffffffffffffffffffffffffffffffffffff1633146102da576040517f08c379a000000000000000000000000000000000000000000000000000000000815260206004820181905260248201527f4f776e61626c653a2063616c6c6572206973206e6f7420746865206f776e6572604482015260640161038f565b600180547fffffffffffffffffffffffff00000000000000000000000000000000000000001690556103a181610a78565b5f3073ffffffffffffffffffffffffffffffffffffffff7f0000000000000000000000000000000000000000000000000000000000000000161480156108fd57507f000000000000000000000000000000000000000000000000000000000000000046145b1561092757507f000000000000000000000000000000000000000000000000000000000000000090565b6102e5604080517f8b73c3c69bb8fe3d512ecc4cf759cc79239f7b179b0ffacaa9a75d522b39400f60208201527f0000000000000000000000000000000000000000000000000000000000000000918101919091527f000000000000000000000000000000000000000000000000000000000000000060608201524660808201523060a08201525f9060c00160405160208183030381529060405280519060200120905090565b606060ff83146109e8576109e183610aec565b905061029a565b8180546109f4906110cc565b80601f0160208091040260200160405190810160405280929190818152602001828054610a20906110cc565b8015610a6b5780601f10610a4257610100808354040283529160200191610a6b565b820191905f5260205f20905b815481529060010190602001808311610a4e57829003601f168201915b5050505050905092915050565b5f805473ffffffffffffffffffffffffffffffffffffffff8381167fffffffffffffffffffffffff0000000000000000000000000000000000000000831681178455604051919092169283917f8be0079c531659141344cd1fd0a4f28419497f9722a3daafe3b4186f6b6457e09190a35050565b60605f610af883610b29565b6040805160208082528183019092529192505f91906020820181803683375050509182525060208101929092525090565b5f60ff8216601f81111561029a576040517fb3512b0c00000000000000000000000000000000000000000000000000000000815260040160405180910390fd5b5f60208284031215610b79575f5ffd5b5035919050565b5f60208284031215610b90575f5ffd5b813567ffffffffffffffff811115610ba6575f5ffd5b820160808185031215610bb7575f5ffd5b9392505050565b5f81518084528060208401602086015e5f6020828601015260207fffffffffffffffffffffffffffffffffffffffffffffffffffffffffffffffe0601f83011685010191505092915050565b602081525f610bb76020830184610bbe565b803573ffffffffffffffffffffffffffffffffffffffff81168114610c3f575f5ffd5b919050565b5f60208284031215610c54575f5ffd5b610bb782610c1c565b7fff000000000000000000000000000000000000000000000000000000000000008816815260e060208201525f610c9760e0830189610bbe565b8281036040840152610ca98189610bbe565b6060840188905273ffffffffffffffffffffffffffffffffffffffff8716608085015260a0840186905283810360c0850152845180825260208087019350909101905f5b81811015610d0b578351835260209384019390920191600101610ced565b50909b9a5050505050505050505050565b7f4e487b71000000000000000000000000000000000000000000000000000000005f52604160045260245ffd5b6040516080810167ffffffffffffffff81118282101715610d6c57610d6c610d1c565b60405290565b5f82601f830112610d81575f5ffd5b813567ffffffffffffffff811115610d9b57610d9b610d1c565b604051601f82017fffffffffffffffffffffffffffffffffffffffffffffffffffffffffffffffe0908116603f0116810167ffffffffffffffff81118282101715610de857610de8610d1c565b604052818152838201602001851015610dff575f5ffd5b816020850160208301375f918101602001919091529392505050565b5f5f5f5f60608587031215610e2e575f5ffd5b84359350602085013567ffffffffffffffff811115610e4b575f5ffd5b610e5787828801610d72565b935050604085013567ffffffffffffffff811115610e73575f5ffd5b8501601f81018713610e83575f5ffd5b803567ffffffffffffffff811115610e99575f5ffd5b876020828401011115610eaa575f5ffd5b949793965060200194505050565b81835281816020850137505f602082840101525f60207fffffffffffffffffffffffffffffffffffffffffffffffffffffffffffffffe0601f840116840101905092915050565b60208082528235828201525f9073ffffffffffffffffffffffffffffffffffffffff90610f2d908501610c1c565b16604083015260408301357fffffffffffffffffffffffffffffffffffffffffffffffffffffffffffffffe1843603018112610f67575f5ffd5b830160208101903567ffffffffffffffff811115610f83575f5ffd5b803603821315610f91575f5ffd5b60806060850152610fa660a085018284610eb8565b6060959095013560809490940193909352509192915050565b5f60208284031215610fcf575f5ffd5b813567ffffffffffffffff811115610fe5575f5ffd5b820160808185031215610ff6575f5ffd5b610ffe610d49565b8135815261100e60208301610c1c565b6020820152604082013567ffffffffffffffff81111561102c575f5ffd5b61103886828501610d72565b604083015250606091820135918101919091529392505050565b5f60208284031215611062575f5ffd5b5051919050565b73ffffffffffffffffffffffffffffffffffffffff85168152836020820152826040820152608060608201525f6110a36080830184610bbe565b9695505050505050565b5f602082840312156110bd575f5ffd5b81518015158114610bb7575f5ffd5b600181811c908216806110e057607f821691505b602082108103611117577f4e487b71000000000000000000000000000000000000000000000000000000005f52602260045260245ffd5b5091905056fea164736f6c634300081d000a466172636173746572205369676e65644b65795265717565737456616c696461746f72","linkReferences":{}},"methodIdentifiers":{"METADATA_TYPEHASH()":"596f1cda","VERSION()":"ffa1ad74","acceptOwnership()":"79ba5097","domainSeparatorV4()":"78e890ba","eip712Domain()":"84b0196e","encodeMetadata((uint256,address,bytes,uint256))":"5f93f453","hashTypedDataV4(bytes32)":"4980f288","idRegistry()":"0aa13b8c","owner()":"8da5cb5b","pendingOwner()":"e30c3978","renounceOwnership()":"715018a6","setIdRegistry(address)":"81749468","transferOwnership(address)":"f2fde38b","validate(uint256,bytes,bytes)":"aa4e0ce8"},"id":95}