{"abi":[{"type":"constructor","inputs":[{"name":"owner","type":"address","internalType":"address"}],"stateMutability":"nonpayable"},{"type":"function","name":"isValidSignature","inputs":[{"name":"hash","type":"bytes32","internalType":"bytes32"},{"name":"signature","type":"bytes","internalType":"bytes"}],"outputs":[{"name":"","type":"bytes4","internalType":"bytes4"}],"stateMutability":"view"},{"type":"function","name":"owner","inputs":[],"outputs":[{"name":"","type":"address","internalType":"address"}],"stateMutability":"view"},{"type":"function","name":"renounceOwnership","inputs":[],"outputs":[],"stateMutability":"nonpayable"},{"type":"function","name":"setForceRevert","inputs":[{"name":"forceRevert","type":"bool","internalType":"bool"}],"outputs":[],"stateMutability":"nonpayable"},{"type":"function","name":"transferOwnership","inputs":[{"name":"newOwner","type":"address","internalType":"address"}],"outputs":[],"stateMutability":"nonpayable"},{"type":"event","name":"OwnershipTransferred","inputs":[{"name":"previousOwner","type":"address","indexed":true,"internalType":"address"},{"name":"newOwner","type":"address","indexed":true,"internalType":"address"}],"anonymous":false}],"bytecode":{"object":"0x60806040525f805460ff60a01b1916600160a01b179055348015610021575f5ffd5b50604051610aa3380380610aa383398101604081905261004091610180565b61004933610058565b610052816100a7565b506101ad565b5f80546001600160a01b038381166001600160a01b0319831681178455604051919092169283917f8be0079c531659141344cd1fd0a4f28419497f9722a3daafe3b4186f6b6457e09190a35050565b6100af610125565b6001600160a01b0381166101195760405162461bcd60e51b815260206004820152602660248201527f4f776e61626c653a206e6577206f776e657220697320746865207a65726f206160448201526564647265737360d01b60648201526084015b60405180910390fd5b61012281610058565b50565b5f546001600160a01b0316331461017e5760405162461bcd60e51b815260206004820181905260248201527f4f776e61626c653a2063616c6c6572206973206e6f7420746865206f776e65726044820152606401610110565b565b5f60208284031215610190575f5ffd5b81516001600160a01b03811681146101a6575f5ffd5b9392505050565b6108e9806101ba5f395ff3fe608060405234801561000f575f5ffd5b5060043610610064575f3560e01c8063715018a61161004d578063715018a61461010a5780638da5cb5b14610112578063f2fde38b14610139575f5ffd5b80631626ba7e146100685780634e94bb5e146100b1575b5f5ffd5b61007b6100763660046106dc565b61014c565b6040517fffffffff0000000000000000000000000000000000000000000000000000000090911681526020015b60405180910390f35b6101086100bf3660046107d6565b5f805491151574010000000000000000000000000000000000000000027fffffffffffffffffffffff00ffffffffffffffffffffffffffffffffffffffff909216919091179055565b005b6101086101f2565b5f5460405173ffffffffffffffffffffffffffffffffffffffff90911681526020016100a8565b6101086101473660046107f5565b610205565b5f805474010000000000000000000000000000000000000000900460ff1615610197577fffffffffffffffffffffffffffffffffffffffffffffffffffffffffffffffff5f5260205ff35b6101bf6101b85f5473ffffffffffffffffffffffffffffffffffffffff1690565b84846102c1565b6101c9575f6101eb565b7f1626ba7e000000000000000000000000000000000000000000000000000000005b9392505050565b6101fa610339565b6102035f6103b9565b565b61020d610339565b73ffffffffffffffffffffffffffffffffffffffff81166102b5576040517f08c379a000000000000000000000000000000000000000000000000000000000815260206004820152602660248201527f4f776e61626c653a206e6577206f776e657220697320746865207a65726f206160448201527f646472657373000000000000000000000000000000000000000000000000000060648201526084015b60405180910390fd5b6102be816103b9565b50565b5f5f5f6102ce858561042d565b90925090505f8160048111156102e6576102e6610828565b14801561031e57508573ffffffffffffffffffffffffffffffffffffffff168273ffffffffffffffffffffffffffffffffffffffff16145b8061032f575061032f86868661046f565b9695505050505050565b5f5473ffffffffffffffffffffffffffffffffffffffff163314610203576040517f08c379a000000000000000000000000000000000000000000000000000000000815260206004820181905260248201527f4f776e61626c653a2063616c6c6572206973206e6f7420746865206f776e657260448201526064016102ac565b5f805473ffffffffffffffffffffffffffffffffffffffff8381167fffffffffffffffffffffffff0000000000000000000000000000000000000000831681178455604051919092169283917f8be0079c531659141344cd1fd0a4f28419497f9722a3daafe3b4186f6b6457e09190a35050565b5f5f8251604103610461576020830151604084015160608501515f1a610455878285856105c7565b94509450505050610468565b505f905060025b9250929050565b5f5f5f8573ffffffffffffffffffffffffffffffffffffffff16631626ba7e60e01b86866040516024016104a4929190610855565b604080517fffffffffffffffffffffffffffffffffffffffffffffffffffffffffffffffe08184030181529181526020820180517bffffffffffffffffffffffffffffffffffffffffffffffffffffffff167fffffffff0000000000000000000000000000000000000000000000000000000090941693909317909252905161052d91906108af565b5f60405180830381855afa9150503d805f8114610565576040519150601f19603f3d011682016040523d82523d5f602084013e61056a565b606091505b509150915081801561057e57506020815110155b801561032f575080517f1626ba7e00000000000000000000000000000000000000000000000000000000906105bc90830160209081019084016108c5565b149695505050505050565b5f807f7fffffffffffffffffffffffffffffff5d576e7357a4501ddfe92f46681b20a08311156105fc57505f905060036106a6565b604080515f8082526020820180845289905260ff881692820192909252606081018690526080810185905260019060a0016020604051602081039080840390855afa15801561064d573d5f5f3e3d5ffd5b50506040517fffffffffffffffffffffffffffffffffffffffffffffffffffffffffffffffe0015191505073ffffffffffffffffffffffffffffffffffffffff81166106a0575f600192509250506106a6565b91505f90505b94509492505050565b7f4e487b71000000000000000000000000000000000000000000000000000000005f52604160045260245ffd5b5f5f604083850312156106ed575f5ffd5b82359150602083013567ffffffffffffffff81111561070a575f5ffd5b8301601f8101851361071a575f5ffd5b803567ffffffffffffffff811115610734576107346106af565b6040517fffffffffffffffffffffffffffffffffffffffffffffffffffffffffffffffe0603f7fffffffffffffffffffffffffffffffffffffffffffffffffffffffffffffffe0601f8501160116810181811067ffffffffffffffff821117156107a0576107a06106af565b6040528181528282016020018710156107b7575f5ffd5b816020840160208301375f602083830101528093505050509250929050565b5f602082840312156107e6575f5ffd5b813580151581146101eb575f5ffd5b5f60208284031215610805575f5ffd5b813573ffffffffffffffffffffffffffffffffffffffff811681146101eb575f5ffd5b7f4e487b71000000000000000000000000000000000000000000000000000000005f52602160045260245ffd5b828152604060208201525f82518060408401528060208501606085015e5f6060828501015260607fffffffffffffffffffffffffffffffffffffffffffffffffffffffffffffffe0601f8301168401019150509392505050565b5f82518060208501845e5f920191825250919050565b5f602082840312156108d5575f5ffd5b505191905056fea164736f6c634300081d000a","linkReferences":{}},"methodIdentifiers":{"isValidSignature(bytes32,bytes)":"1626ba7e","owner()":"8da5cb5b","renounceOwnership()":"715018a6","setForceRevert(bool)":"4e94bb5e","transferOwnership(address)":"f2fde38b"},"id":136}