{"abi":[{"type":"constructor","inputs":[{"name":"_decimals","type":"uint8","internalType":"uint8"},{"name":"_description","type":"string","internalType":"string"}],"stateMutability":"nonpayable"},{"type":"function","name":"decimals","inputs":[],"outputs":[{"name":"","type":"uint8","internalType":"uint8"}],"stateMutability":"view"},{"type":"function","name":"description","inputs":[],"outputs":[{"name":"","type":"string","internalType":"string"}],"stateMutability":"view"},{"type":"function","name":"getRoundData","inputs":[{"name":"","type":"uint80","internalType":"uint80"}],"outputs":[{"name":"","type":"uint80","internalType":"uint80"},{"name":"","type":"int256","internalType":"int256"},{"name":"","type":"uint256","internalType":"uint256"},{"name":"","type":"uint256","internalType":"uint256"},{"name":"","type":"uint80","internalType":"uint80"}],"stateMutability":"view"},{"type":"function","name":"latestRoundData","inputs":[],"outputs":[{"name":"","type":"uint80","internalType":"uint80"},{"name":"","type":"int256","internalType":"int256"},{"name":"","type":"uint256","internalType":"uint256"},{"name":"","type":"uint256","internalType":"uint256"},{"name":"","type":"uint80","internalType":"uint80"}],"stateMutability":"view"},{"type":"function","name":"roundData","inputs":[],"outputs":[{"name":"roundId","type":"uint80","internalType":"uint80"},{"name":"answer","type":"int256","internalType":"int256"},{"name":"startedAt","type":"uint256","internalType":"uint256"},{"name":"timeStamp","type":"uint256","internalType":"uint256"},{"name":"answeredInRound","type":"uint80","internalType":"uint80"}],"stateMutability":"view"},{"type":"function","name":"setAnswer","inputs":[{"name":"value","type":"int256","internalType":"int256"}],"outputs":[],"stateMutability":"nonpayable"},{"type":"function","name":"setRoundData","inputs":[{"name":"_roundData","type":"tuple","internalType":"struct MockChainlinkFeed.RoundData","components":[{"name":"roundId","type":"uint80","internalType":"uint80"},{"name":"answer","type":"int256","internalType":"int256"},{"name":"startedAt","type":"uint256","internalType":"uint256"},{"name":"timeStamp","type":"uint256","internalType":"uint256"},{"name":"answeredInRound","type":"uint80","internalType":"uint80"}]}],"outputs":[],"stateMutability":"nonpayable"},{"type":"function","name":"setShouldRevert","inputs":[{"name":"_shouldRevert","type":"bool","internalType":"bool"}],"outputs":[],"stateMutability":"nonpayable"},{"type":"function","name":"setStubTimeStamp","inputs":[{"name":"_stubTimeStamp","type":"bool","internalType":"bool"}],"outputs":[],"stateMutability":"nonpayable"},{"type":"function","name":"shouldRevert","inputs":[],"outputs":[{"name":"","type":"bool","internalType":"bool"}],"stateMutability":"view"},{"type":"function","name":"stubTimeStamp","inputs":[],"outputs":[{"name":"","type":"bool","internalType":"bool"}],"stateMutability":"view"},{"type":"function","name":"version","inputs":[],"outputs":[{"name":"","type":"uint256","internalType":"uint256"}],"stateMutability":"view"}],"bytecode":{"object":"0x60806040526001600755348015610014575f5ffd5b506040516108633803806108638339810160408190526100339161006a565b6005805460ff191660ff8416179055600661004e82826101b7565b505050610271565b634e487b7160e01b5f52604160045260245ffd5b5f5f6040838503121561007b575f5ffd5b825160ff8116811461008b575f5ffd5b60208401519092506001600160401b038111156100a6575f5ffd5b8301601f810185136100b6575f5ffd5b80516001600160401b038111156100cf576100cf610056565b604051601f8201601f19908116603f011681016001600160401b03811182821017156100fd576100fd610056565b604052818152828201602001871015610114575f5ffd5b8160208401602083015e5f602083830101528093505050509250929050565b600181811c9082168061014757607f821691505b60208210810361016557634e487b7160e01b5f52602260045260245ffd5b50919050565b601f8211156101b257805f5260205f20601f840160051c810160208510156101905750805b601f840160051c820191505b818110156101af575f815560010161019c565b50505b505050565b81516001600160401b038111156101d0576101d0610056565b6101e4816101de8454610133565b8461016b565b6020601f821160018114610216575f83156101ff5750848201515b5f19600385901b1c1916600184901b1784556101af565b5f84815260208120601f198516915b828110156102455787850151825560209485019460019092019101610225565b508482101561026257868401515f19600387901b60f8161c191681555b50505050600190811b01905550565b6105e58061027e5f395ff3fe608060405234801561000f575f5ffd5b50600436106100cf575f3560e01c80639a6fc8f51161007d578063d3072d8211610058578063d3072d821461021e578063f769cde61461022b578063feaf968c14610270575f5ffd5b80639a6fc8f5146101d65780639b440660146101e9578063a92d2a8b146101fc575f5ffd5b80636813d787116100ad5780636813d7871461016d5780637284e416146101ae57806399213cd8146101c3575f5ffd5b80630632a4d6146100d3578063313ce5671461013757806354fd4d5014610156575b5f5ffd5b5f546001546002546003546004546100fb9469ffffffffffffffffffff908116949392911685565b6040805169ffffffffffffffffffff968716815260208101959095528401929092526060830152909116608082015260a0015b60405180910390f35b6005546101449060ff1681565b60405160ff909116815260200161012e565b61015f60075481565b60405190815260200161012e565b6101ac61017b366004610400565b600880547fffffffffffffffffffffffffffffffffffffffffffffffffffffffffffffff0016911515919091179055565b005b6101b6610278565b60405161012e9190610426565b6101ac6101d1366004610479565b600155565b6100fb6101e43660046104aa565b610304565b6101ac6101f73660046104c5565b610323565b60085461020e90610100900460ff1681565b604051901515815260200161012e565b60085461020e9060ff1681565b6101ac610239366004610400565b60088054911515610100027fffffffffffffffffffffffffffffffffffffffffffffffffffffffffffff00ff909216919091179055565b6100fb610334565b60068054610285906104de565b80601f01602080910402602001604051908101604052809291908181526020018280546102b1906104de565b80156102fc5780601f106102d3576101008083540402835291602001916102fc565b820191905f5260205f20905b8154815290600101906020018083116102df57829003601f168201915b505050505081565b5f5f5f5f5f610311610334565b939a9299509097509550909350915050565b805f61032f828261052f565b505050565b6008545f90819081908190819060ff16156103af576040517f08c379a000000000000000000000000000000000000000000000000000000000815260206004820152601e60248201527f4d6f636b436861696e4c696e6b466565643a2043616c6c206661696c65640000604482015260640160405180910390fd5b5f5460015460025460085469ffffffffffffffffffff90931692610100900460ff166103db57426103df565b6003545b6004549399929850909650945069ffffffffffffffffffff90911692509050565b5f60208284031215610410575f5ffd5b8135801515811461041f575f5ffd5b9392505050565b602081525f82518060208401528060208501604085015e5f6040828501015260407fffffffffffffffffffffffffffffffffffffffffffffffffffffffffffffffe0601f83011684010191505092915050565b5f60208284031215610489575f5ffd5b5035919050565b69ffffffffffffffffffff811681146104a7575f5ffd5b50565b5f602082840312156104ba575f5ffd5b813561041f81610490565b5f60a08284031280156104d6575f5ffd5b509092915050565b600181811c908216806104f257607f821691505b602082108103610529577f4e487b71000000000000000000000000000000000000000000000000000000005f52602260045260245ffd5b50919050565b813561053a81610490565b81547fffffffffffffffffffffffffffffffffffffffffffff000000000000000000001669ffffffffffffffffffff821617825550602082013560018201556040820135600282015560608201356003820155608082013561059b81610490565b6004820180547fffffffffffffffffffffffffffffffffffffffffffff000000000000000000001669ffffffffffffffffffff831617905550505056fea164736f6c634300081d000a","linkReferences":{}},"methodIdentifiers":{"decimals()":"313ce567","description()":"7284e416","getRoundData(uint80)":"9a6fc8f5","latestRoundData()":"feaf968c","roundData()":"0632a4d6","setAnswer(int256)":"99213cd8","setRoundData((uint80,int256,uint256,uint256,uint80))":"9b440660","setShouldRevert(bool)":"6813d787","setStubTimeStamp(bool)":"f769cde6","shouldRevert()":"d3072d82","stubTimeStamp()":"a92d2a8b","version()":"54fd4d50"},"id":136}