{"abi":[{"type":"function","name":"decimals","inputs":[],"outputs":[{"name":"","type":"uint8","internalType":"uint8"}],"stateMutability":"view"},{"type":"function","name":"description","inputs":[],"outputs":[{"name":"","type":"string","internalType":"string"}],"stateMutability":"view"},{"type":"function","name":"getRoundData","inputs":[{"name":"","type":"uint80","internalType":"uint80"}],"outputs":[{"name":"","type":"uint80","internalType":"uint80"},{"name":"","type":"int256","internalType":"int256"},{"name":"","type":"uint256","internalType":"uint256"},{"name":"","type":"uint256","internalType":"uint256"},{"name":"","type":"uint80","internalType":"uint80"}],"stateMutability":"view"},{"type":"function","name":"latestRoundData","inputs":[],"outputs":[{"name":"","type":"uint80","internalType":"uint80"},{"name":"","type":"int256","internalType":"int256"},{"name":"","type":"uint256","internalType":"uint256"},{"name":"","type":"uint256","internalType":"uint256"},{"name":"","type":"uint80","internalType":"uint80"}],"stateMutability":"view"},{"type":"function","name":"roundData","inputs":[],"outputs":[{"name":"roundId","type":"uint80","internalType":"uint80"},{"name":"answer","type":"int256","internalType":"int256"},{"name":"startedAt","type":"uint256","internalType":"uint256"},{"name":"timeStamp","type":"uint256","internalType":"uint256"},{"name":"answeredInRound","type":"uint80","internalType":"uint80"}],"stateMutability":"view"},{"type":"function","name":"setAnswer","inputs":[{"name":"value","type":"int256","internalType":"int256"}],"outputs":[],"stateMutability":"nonpayable"},{"type":"function","name":"setPrice","inputs":[{"name":"_price","type":"int256","internalType":"int256"}],"outputs":[],"stateMutability":"nonpayable"},{"type":"function","name":"setRoundData","inputs":[{"name":"_roundData","type":"tuple","internalType":"struct MockChainlinkFeed.RoundData","components":[{"name":"roundId","type":"uint80","internalType":"uint80"},{"name":"answer","type":"int256","internalType":"int256"},{"name":"startedAt","type":"uint256","internalType":"uint256"},{"name":"timeStamp","type":"uint256","internalType":"uint256"},{"name":"answeredInRound","type":"uint80","internalType":"uint80"}]}],"outputs":[],"stateMutability":"nonpayable"},{"type":"function","name":"setShouldRevert","inputs":[{"name":"_shouldRevert","type":"bool","internalType":"bool"}],"outputs":[],"stateMutability":"nonpayable"},{"type":"function","name":"setStubTimeStamp","inputs":[{"name":"_stubTimeStamp","type":"bool","internalType":"bool"}],"outputs":[],"stateMutability":"nonpayable"},{"type":"function","name":"shouldRevert","inputs":[],"outputs":[{"name":"","type":"bool","internalType":"bool"}],"stateMutability":"view"},{"type":"function","name":"stubTimeStamp","inputs":[],"outputs":[{"name":"","type":"bool","internalType":"bool"}],"stateMutability":"view"},{"type":"function","name":"version","inputs":[],"outputs":[{"name":"","type":"uint256","internalType":"uint256"}],"stateMutability":"view"}],"bytecode":{"object":"0x60806040526001600755348015610014575f5ffd5b5060408051808201909152601781527f4d6f636b204554482f555344205072696365204665656400000000000000000060208201526005805460ff191660089081179091559060066100668282610106565b5050506101c0565b634e487b7160e01b5f52604160045260245ffd5b600181811c9082168061009657607f821691505b6020821081036100b457634e487b7160e01b5f52602260045260245ffd5b50919050565b601f82111561010157805f5260205f20601f840160051c810160208510156100df5750805b601f840160051c820191505b818110156100fe575f81556001016100eb565b50505b505050565b81516001600160401b0381111561011f5761011f61006e565b6101338161012d8454610082565b846100ba565b6020601f821160018114610165575f831561014e5750848201515b5f19600385901b1c1916600184901b1784556100fe565b5f84815260208120601f198516915b828110156101945787850151825560209485019460019092019101610174565b50848210156101b157868401515f19600387901b60f8161c191681555b50505050600190811b01905550565b6105f0806101cd5f395ff3fe608060405234801561000f575f5ffd5b50600436106100da575f3560e01c80639a6fc8f511610088578063d3072d8211610063578063d3072d8214610229578063f769cde614610236578063f7a30806146101ce578063feaf968c1461027b575f5ffd5b80639a6fc8f5146101e15780639b440660146101f4578063a92d2a8b14610207575f5ffd5b80636813d787116100b85780636813d787146101785780637284e416146101b957806399213cd8146101ce575f5ffd5b80630632a4d6146100de578063313ce5671461014257806354fd4d5014610161575b5f5ffd5b5f546001546002546003546004546101069469ffffffffffffffffffff908116949392911685565b6040805169ffffffffffffffffffff968716815260208101959095528401929092526060830152909116608082015260a0015b60405180910390f35b60055461014f9060ff1681565b60405160ff9091168152602001610139565b61016a60075481565b604051908152602001610139565b6101b761018636600461040b565b600880547fffffffffffffffffffffffffffffffffffffffffffffffffffffffffffffff0016911515919091179055565b005b6101c1610283565b6040516101399190610431565b6101b76101dc366004610484565b600155565b6101066101ef3660046104b5565b61030f565b6101b76102023660046104d0565b61032e565b60085461021990610100900460ff1681565b6040519015158152602001610139565b6008546102199060ff1681565b6101b761024436600461040b565b60088054911515610100027fffffffffffffffffffffffffffffffffffffffffffffffffffffffffffff00ff909216919091179055565b61010661033f565b60068054610290906104e9565b80601f01602080910402602001604051908101604052809291908181526020018280546102bc906104e9565b80156103075780601f106102de57610100808354040283529160200191610307565b820191905f5260205f20905b8154815290600101906020018083116102ea57829003601f168201915b505050505081565b5f5f5f5f5f61031c61033f565b939a9299509097509550909350915050565b805f61033a828261053a565b505050565b6008545f90819081908190819060ff16156103ba576040517f08c379a000000000000000000000000000000000000000000000000000000000815260206004820152601e60248201527f4d6f636b436861696e4c696e6b466565643a2043616c6c206661696c65640000604482015260640160405180910390fd5b5f5460015460025460085469ffffffffffffffffffff90931692610100900460ff166103e657426103ea565b6003545b6004549399929850909650945069ffffffffffffffffffff90911692509050565b5f6020828403121561041b575f5ffd5b8135801515811461042a575f5ffd5b9392505050565b602081525f82518060208401528060208501604085015e5f6040828501015260407fffffffffffffffffffffffffffffffffffffffffffffffffffffffffffffffe0601f83011684010191505092915050565b5f60208284031215610494575f5ffd5b5035919050565b69ffffffffffffffffffff811681146104b2575f5ffd5b50565b5f602082840312156104c5575f5ffd5b813561042a8161049b565b5f60a08284031280156104e1575f5ffd5b509092915050565b600181811c908216806104fd57607f821691505b602082108103610534577f4e487b71000000000000000000000000000000000000000000000000000000005f52602260045260245ffd5b50919050565b81356105458161049b565b81547fffffffffffffffffffffffffffffffffffffffffffff000000000000000000001669ffffffffffffffffffff82161782555060208201356001820155604082013560028201556060820135600382015560808201356105a68161049b565b6004820180547fffffffffffffffffffffffffffffffffffffffffffff000000000000000000001669ffffffffffffffffffff831617905550505056fea164736f6c634300081d000a","linkReferences":{}},"methodIdentifiers":{"decimals()":"313ce567","description()":"7284e416","getRoundData(uint80)":"9a6fc8f5","latestRoundData()":"feaf968c","roundData()":"0632a4d6","setAnswer(int256)":"99213cd8","setPrice(int256)":"f7a30806","setRoundData((uint80,int256,uint256,uint256,uint80))":"9b440660","setShouldRevert(bool)":"6813d787","setStubTimeStamp(bool)":"f769cde6","shouldRevert()":"d3072d82","stubTimeStamp()":"a92d2a8b","version()":"54fd4d50"},"id":136}