{"abi":[{"type":"constructor","inputs":[{"name":"_priceFeed","type":"address","internalType":"contract AggregatorV3Interface"},{"name":"_uptimeFeed","type":"address","internalType":"contract AggregatorV3Interface"},{"name":"_usdUnitPrice","type":"uint256","internalType":"uint256"},{"name":"_maxUnits","type":"uint256","internalType":"uint256"},{"name":"_vault","type":"address","internalType":"address"},{"name":"_roleAdmin","type":"address","internalType":"address"},{"name":"_owner","type":"address","internalType":"address"},{"name":"_operator","type":"address","internalType":"address"},{"name":"_treasurer","type":"address","internalType":"address"}],"stateMutability":"nonpayable"},{"type":"function","name":"DEFAULT_ADMIN_ROLE","inputs":[],"outputs":[{"name":"","type":"bytes32","internalType":"bytes32"}],"stateMutability":"view"},{"type":"function","name":"VERSION","inputs":[],"outputs":[{"name":"","type":"string","internalType":"string"}],"stateMutability":"view"},{"type":"function","name":"batchCredit","inputs":[{"name":"fids","type":"uint256[]","internalType":"uint256[]"},{"name":"units","type":"uint256","internalType":"uint256"}],"outputs":[],"stateMutability":"nonpayable"},{"type":"function","name":"batchRent","inputs":[{"name":"fids","type":"uint256[]","internalType":"uint256[]"},{"name":"units","type":"uint256[]","internalType":"uint256[]"}],"outputs":[],"stateMutability":"payable"},{"type":"function","name":"continuousCredit","inputs":[{"name":"start","type":"uint256","internalType":"uint256"},{"name":"end","type":"uint256","internalType":"uint256"},{"name":"units","type":"uint256","internalType":"uint256"}],"outputs":[],"stateMutability":"nonpayable"},{"type":"function","name":"credit","inputs":[{"name":"fid","type":"uint256","internalType":"uint256"},{"name":"units","type":"uint256","internalType":"uint256"}],"outputs":[],"stateMutability":"nonpayable"},{"type":"function","name":"deprecationTimestamp","inputs":[],"outputs":[{"name":"","type":"uint256","internalType":"uint256"}],"stateMutability":"view"},{"type":"function","name":"ethUsdPrice","inputs":[],"outputs":[{"name":"","type":"uint256","internalType":"uint256"}],"stateMutability":"view"},{"type":"function","name":"fixedEthUsdPrice","inputs":[],"outputs":[{"name":"","type":"uint256","internalType":"uint256"}],"stateMutability":"view"},{"type":"function","name":"getRoleAdmin","inputs":[{"name":"role","type":"bytes32","internalType":"bytes32"}],"outputs":[{"name":"","type":"bytes32","internalType":"bytes32"}],"stateMutability":"view"},{"type":"function","name":"getRoleMember","inputs":[{"name":"role","type":"bytes32","internalType":"bytes32"},{"name":"index","type":"uint256","internalType":"uint256"}],"outputs":[{"name":"","type":"address","internalType":"address"}],"stateMutability":"view"},{"type":"function","name":"getRoleMemberCount","inputs":[{"name":"role","type":"bytes32","internalType":"bytes32"}],"outputs":[{"name":"","type":"uint256","internalType":"uint256"}],"stateMutability":"view"},{"type":"function","name":"grantRole","inputs":[{"name":"role","type":"bytes32","internalType":"bytes32"},{"name":"account","type":"address","internalType":"address"}],"outputs":[],"stateMutability":"nonpayable"},{"type":"function","name":"hasRole","inputs":[{"name":"role","type":"bytes32","internalType":"bytes32"},{"name":"account","type":"address","internalType":"address"}],"outputs":[{"name":"","type":"bool","internalType":"bool"}],"stateMutability":"view"},{"type":"function","name":"lastPriceFeedUpdateBlock","inputs":[],"outputs":[{"name":"","type":"uint256","internalType":"uint256"}],"stateMutability":"view"},{"type":"function","name":"lastPriceFeedUpdateTime","inputs":[],"outputs":[{"name":"","type":"uint256","internalType":"uint256"}],"stateMutability":"view"},{"type":"function","name":"maxUnits","inputs":[],"outputs":[{"name":"","type":"uint256","internalType":"uint256"}],"stateMutability":"view"},{"type":"function","name":"operatorRoleId","inputs":[],"outputs":[{"name":"","type":"bytes32","internalType":"bytes32"}],"stateMutability":"pure"},{"type":"function","name":"ownerRoleId","inputs":[],"outputs":[{"name":"","type":"bytes32","internalType":"bytes32"}],"stateMutability":"pure"},{"type":"function","name":"pause","inputs":[],"outputs":[],"stateMutability":"nonpayable"},{"type":"function","name":"paused","inputs":[],"outputs":[{"name":"","type":"bool","internalType":"bool"}],"stateMutability":"view"},{"type":"function","name":"prevEthUsdPrice","inputs":[],"outputs":[{"name":"","type":"uint256","internalType":"uint256"}],"stateMutability":"view"},{"type":"function","name":"price","inputs":[{"name":"units","type":"uint256","internalType":"uint256"}],"outputs":[{"name":"","type":"uint256","internalType":"uint256"}],"stateMutability":"view"},{"type":"function","name":"priceFeed","inputs":[],"outputs":[{"name":"","type":"address","internalType":"contract AggregatorV3Interface"}],"stateMutability":"view"},{"type":"function","name":"priceFeedCacheDuration","inputs":[],"outputs":[{"name":"","type":"uint256","internalType":"uint256"}],"stateMutability":"view"},{"type":"function","name":"priceFeedMaxAge","inputs":[],"outputs":[{"name":"","type":"uint256","internalType":"uint256"}],"stateMutability":"view"},{"type":"function","name":"priceFeedMaxAnswer","inputs":[],"outputs":[{"name":"","type":"uint256","internalType":"uint256"}],"stateMutability":"view"},{"type":"function","name":"priceFeedMinAnswer","inputs":[],"outputs":[{"name":"","type":"uint256","internalType":"uint256"}],"stateMutability":"view"},{"type":"function","name":"refreshPrice","inputs":[],"outputs":[],"stateMutability":"nonpayable"},{"type":"function","name":"renounceRole","inputs":[{"name":"role","type":"bytes32","internalType":"bytes32"},{"name":"account","type":"address","internalType":"address"}],"outputs":[],"stateMutability":"nonpayable"},{"type":"function","name":"rent","inputs":[{"name":"fid","type":"uint256","internalType":"uint256"},{"name":"units","type":"uint256","internalType":"uint256"}],"outputs":[{"name":"overpayment","type":"uint256","internalType":"uint256"}],"stateMutability":"payable"},{"type":"function","name":"rentedUnits","inputs":[],"outputs":[{"name":"","type":"uint256","internalType":"uint256"}],"stateMutability":"view"},{"type":"function","name":"revokeRole","inputs":[{"name":"role","type":"bytes32","internalType":"bytes32"},{"name":"account","type":"address","internalType":"address"}],"outputs":[],"stateMutability":"nonpayable"},{"type":"function","name":"setCacheDuration","inputs":[{"name":"duration","type":"uint256","internalType":"uint256"}],"outputs":[],"stateMutability":"nonpayable"},{"type":"function","name":"setDeprecationTimestamp","inputs":[{"name":"timestamp","type":"uint256","internalType":"uint256"}],"outputs":[],"stateMutability":"nonpayable"},{"type":"function","name":"setFixedEthUsdPrice","inputs":[{"name":"fixedPrice","type":"uint256","internalType":"uint256"}],"outputs":[],"stateMutability":"nonpayable"},{"type":"function","name":"setGracePeriod","inputs":[{"name":"period","type":"uint256","internalType":"uint256"}],"outputs":[],"stateMutability":"nonpayable"},{"type":"function","name":"setMaxAge","inputs":[{"name":"age","type":"uint256","internalType":"uint256"}],"outputs":[],"stateMutability":"nonpayable"},{"type":"function","name":"setMaxAnswer","inputs":[{"name":"maxPrice","type":"uint256","internalType":"uint256"}],"outputs":[],"stateMutability":"nonpayable"},{"type":"function","name":"setMaxUnits","inputs":[{"name":"max","type":"uint256","internalType":"uint256"}],"outputs":[],"stateMutability":"nonpayable"},{"type":"function","name":"setMinAnswer","inputs":[{"name":"minPrice","type":"uint256","internalType":"uint256"}],"outputs":[],"stateMutability":"nonpayable"},{"type":"function","name":"setPrice","inputs":[{"name":"usdPrice","type":"uint256","internalType":"uint256"}],"outputs":[],"stateMutability":"nonpayable"},{"type":"function","name":"setPriceFeed","inputs":[{"name":"feed","type":"address","internalType":"contract AggregatorV3Interface"}],"outputs":[],"stateMutability":"nonpayable"},{"type":"function","name":"setUptimeFeed","inputs":[{"name":"feed","type":"address","internalType":"contract AggregatorV3Interface"}],"outputs":[],"stateMutability":"nonpayable"},{"type":"function","name":"setVault","inputs":[{"name":"vaultAddr","type":"address","internalType":"address"}],"outputs":[],"stateMutability":"nonpayable"},{"type":"function","name":"supportsInterface","inputs":[{"name":"interfaceId","type":"bytes4","internalType":"bytes4"}],"outputs":[{"name":"","type":"bool","internalType":"bool"}],"stateMutability":"view"},{"type":"function","name":"treasurerRoleId","inputs":[],"outputs":[{"name":"","type":"bytes32","internalType":"bytes32"}],"stateMutability":"pure"},{"type":"function","name":"unitPrice","inputs":[],"outputs":[{"name":"","type":"uint256","internalType":"uint256"}],"stateMutability":"view"},{"type":"function","name":"unpause","inputs":[],"outputs":[],"stateMutability":"nonpayable"},{"type":"function","name":"uptimeFeed","inputs":[],"outputs":[{"name":"","type":"address","internalType":"contract AggregatorV3Interface"}],"stateMutability":"view"},{"type":"function","name":"uptimeFeedGracePeriod","inputs":[],"outputs":[{"name":"","type":"uint256","internalType":"uint256"}],"stateMutability":"view"},{"type":"function","name":"usdUnitPrice","inputs":[],"outputs":[{"name":"","type":"uint256","internalType":"uint256"}],"stateMutability":"view"},{"type":"function","name":"vault","inputs":[],"outputs":[{"name":"","type":"address","internalType":"address"}],"stateMutability":"view"},{"type":"function","name":"withdraw","inputs":[{"name":"amount","type":"uint256","internalType":"uint256"}],"outputs":[],"stateMutability":"nonpayable"},{"type":"event","name":"Paused","inputs":[{"name":"account","type":"address","indexed":false,"internalType":"address"}],"anonymous":false},{"type":"event","name":"Rent","inputs":[{"name":"payer","type":"address","indexed":true,"internalType":"address"},{"name":"fid","type":"uint256","indexed":true,"internalType":"uint256"},{"name":"units","type":"uint256","indexed":false,"internalType":"uint256"}],"anonymous":false},{"type":"event","name":"RoleAdminChanged","inputs":[{"name":"role","type":"bytes32","indexed":true,"internalType":"bytes32"},{"name":"previousAdminRole","type":"bytes32","indexed":true,"internalType":"bytes32"},{"name":"newAdminRole","type":"bytes32","indexed":true,"internalType":"bytes32"}],"anonymous":false},{"type":"event","name":"RoleGranted","inputs":[{"name":"role","type":"bytes32","indexed":true,"internalType":"bytes32"},{"name":"account","type":"address","indexed":true,"internalType":"address"},{"name":"sender","type":"address","indexed":true,"internalType":"address"}],"anonymous":false},{"type":"event","name":"RoleRevoked","inputs":[{"name":"role","type":"bytes32","indexed":true,"internalType":"bytes32"},{"name":"account","type":"address","indexed":true,"internalType":"address"},{"name":"sender","type":"address","indexed":true,"internalType":"address"}],"anonymous":false},{"type":"event","name":"SetCacheDuration","inputs":[{"name":"oldDuration","type":"uint256","indexed":false,"internalType":"uint256"},{"name":"newDuration","type":"uint256","indexed":false,"internalType":"uint256"}],"anonymous":false},{"type":"event","name":"SetDeprecationTimestamp","inputs":[{"name":"oldTimestamp","type":"uint256","indexed":false,"internalType":"uint256"},{"name":"newTimestamp","type":"uint256","indexed":false,"internalType":"uint256"}],"anonymous":false},{"type":"event","name":"SetFixedEthUsdPrice","inputs":[{"name":"oldPrice","type":"uint256","indexed":false,"internalType":"uint256"},{"name":"newPrice","type":"uint256","indexed":false,"internalType":"uint256"}],"anonymous":false},{"type":"event","name":"SetGracePeriod","inputs":[{"name":"oldPeriod","type":"uint256","indexed":false,"internalType":"uint256"},{"name":"newPeriod","type":"uint256","indexed":false,"internalType":"uint256"}],"anonymous":false},{"type":"event","name":"SetMaxAge","inputs":[{"name":"oldAge","type":"uint256","indexed":false,"internalType":"uint256"},{"name":"newAge","type":"uint256","indexed":false,"internalType":"uint256"}],"anonymous":false},{"type":"event","name":"SetMaxAnswer","inputs":[{"name":"oldPrice","type":"uint256","indexed":false,"internalType":"uint256"},{"name":"newPrice","type":"uint256","indexed":false,"internalType":"uint256"}],"anonymous":false},{"type":"event","name":"SetMaxUnits","inputs":[{"name":"oldMax","type":"uint256","indexed":false,"internalType":"uint256"},{"name":"newMax","type":"uint256","indexed":false,"internalType":"uint256"}],"anonymous":false},{"type":"event","name":"SetMinAnswer","inputs":[{"name":"oldPrice","type":"uint256","indexed":false,"internalType":"uint256"},{"name":"newPrice","type":"uint256","indexed":false,"internalType":"uint256"}],"anonymous":false},{"type":"event","name":"SetPrice","inputs":[{"name":"oldPrice","type":"uint256","indexed":false,"internalType":"uint256"},{"name":"newPrice","type":"uint256","indexed":false,"internalType":"uint256"}],"anonymous":false},{"type":"event","name":"SetPriceFeed","inputs":[{"name":"oldFeed","type":"address","indexed":false,"internalType":"address"},{"name":"newFeed","type":"address","indexed":false,"internalType":"address"}],"anonymous":false},{"type":"event","name":"SetUptimeFeed","inputs":[{"name":"oldFeed","type":"address","indexed":false,"internalType":"address"},{"name":"newFeed","type":"address","indexed":false,"internalType":"address"}],"anonymous":false},{"type":"event","name":"SetVault","inputs":[{"name":"oldVault","type":"address","indexed":false,"internalType":"address"},{"name":"newVault","type":"address","indexed":false,"internalType":"address"}],"anonymous":false},{"type":"event","name":"Unpaused","inputs":[{"name":"account","type":"address","indexed":false,"internalType":"address"}],"anonymous":false},{"type":"event","name":"Withdraw","inputs":[{"name":"to","type":"address","indexed":true,"internalType":"address"},{"name":"amount","type":"uint256","indexed":false,"internalType":"uint256"}],"anonymous":false},{"type":"error","name":"CallFailed","inputs":[]},{"type":"error","name":"ContractDeprecated","inputs":[]},{"type":"error","name":"ExceedsCapacity","inputs":[]},{"type":"error","name":"GracePeriodNotOver","inputs":[]},{"type":"error","name":"IncompleteRound","inputs":[]},{"type":"error","name":"InvalidAddress","inputs":[]},{"type":"error","name":"InvalidAmount","inputs":[]},{"type":"error","name":"InvalidBatchInput","inputs":[]},{"type":"error","name":"InvalidDeprecationTimestamp","inputs":[]},{"type":"error","name":"InvalidFixedPrice","inputs":[]},{"type":"error","name":"InvalidMaxAnswer","inputs":[]},{"type":"error","name":"InvalidMinAnswer","inputs":[]},{"type":"error","name":"InvalidPayment","inputs":[]},{"type":"error","name":"InvalidPrice","inputs":[]},{"type":"error","name":"InvalidRangeInput","inputs":[]},{"type":"error","name":"InvalidRoundTimestamp","inputs":[]},{"type":"error","name":"NotOperator","inputs":[]},{"type":"error","name":"NotOwner","inputs":[]},{"type":"error","name":"NotTreasurer","inputs":[]},{"type":"error","name":"PriceOutOfBounds","inputs":[]},{"type":"error","name":"SequencerDown","inputs":[]},{"type":"error","name":"StaleAnswer","inputs":[]},{"type":"error","name":"Unauthorized","inputs":[]}],"bytecode":{"object":"0x608060405234801561000f575f5ffd5b50604051613dc7380380613dc783398101604081905261002e91610832565b600280546001600160a81b0319166101006001600160a01b038c1690810291909117909155604080515f815260208101929092528a918a918a918a918a918a918a918a918a917fc02f01e22efc017c1c952d0eef1a8fc038571f14ea5a285d79d1d7ba87d8b001910160405180910390a1600380546001600160a01b0319166001600160a01b038a16908117909155604080515f815260208101929092527fffca0dcf4a77eaddf80becc294c7f9b5fe6afe652e75c888b8afc76c75d8e658910160405180910390a1610105426301e133806108f1565b6004819055604080515f815260208101929092527f27e030644fe653b53e98fbd0ca5004392da63705b0806619a43324647715bc6b910160405180910390a16005879055604080515f8152602081018990527ff9317dc3bc6dda0e00e43855c2c30847aeafb8dcea9d2ce86e9ce7a83d549f01910160405180910390a16007869055604080515f8152602081018890527fa75b962aa425276de62bec76aeb43cacc12d2b132498ae1115500c23dc35fbe4910160405180910390a1620151806008819055604080515f815260208101929092527fba21d40bb8770d5fa02e1971806473e12480167182e829c0fc86addb21e2b77d910160405180910390a1611c206009819055604080515f815260208101929092527fdab04eb6792be47147c80ea1681f6b05c2961bed4ea123bcb7f8d4c10aa2df3e910160405180910390a1610e10600c819055604080515f815260208101929092527f31c130faaf861e1e61ca087cc48c410d9099885350e9beb4dad1175cb77a6545910160405180910390a16402540be400600a819055604080515f815260208101929092527f5ea311a1ef15e7fbfbbe5d4b8160fd93a072abf0c64d50591e17306e3b7aa628910160405180910390a164e8d4a51000600b819055604080515f815260208101929092527fea30ce82bdf6bad7bc587c9a5e15e0f655724d1e3a680df280898a2aab512d39910160405180910390a1600d80546001600160a01b0319166001600160a01b038716908117909155604080515f815260208101929092527f22a9f7c8a21e91a43518238948d4ed67511ad8492ca0e13fdbc93c134701a72a910160405180910390a16103735f85610410565b61039d7fb19546dff01e856fb3f010c267a7b1c60363cf8a4664e21cc89c26224620214e84610410565b6103c77f97667070c54ef182b0f5858b034beac1b6f3089aa2d3188bb1e8929f4fa9b92983610410565b6103f17f3496e2e73c4d42b75d702e60d9e48102720b8691234415963a5a857b86425d0782610410565b6103f9610436565b505050505050505050505050505050505050610980565b61041a8282610715565b5f82815260016020526040902061043190826107b2565b505050565b5f5f5f5f60035f9054906101000a90046001600160a01b03166001600160a01b031663feaf968c6040518163ffffffff1660e01b815260040160a060405180830381865afa15801561048a573d5f5f3e3d5ffd5b505050506040513d601f19601f820116820180604052508101906104ae919061091f565b509350935093509350825f146104d65760405162032b3d60e81b815260040160405180910390fd5b836001600160501b03165f036104ff57604051638ad52bdd60e01b815260040160405180910390fd5b805f0361051f57604051638ad52bdd60e01b815260040160405180910390fd5b42811115610540576040516374016e9d60e11b815260040160405180910390fd5b5f61054b834261096d565b9050600c548110156105705760405163d15f73b560e01b815260040160405180910390fd5b5f5f5f600260019054906101000a90046001600160a01b03166001600160a01b031663feaf968c6040518163ffffffff1660e01b815260040160a060405180830381865afa1580156105c4573d5f5f3e3d5ffd5b505050506040513d601f19601f820116820180604052508101906105e8919061091f565b50935050925092505f821361060f5760405162bfc92160e01b815260040160405180910390fd5b826001600160501b03165f0361063857604051638ad52bdd60e01b815260040160405180910390fd5b805f0361065857604051638ad52bdd60e01b815260040160405180910390fd5b42811115610679576040516374016e9d60e11b815260040160405180910390fd5b600954610686824261096d565b11156106a557604051630e09c18960e31b815260040160405180910390fd5b600a548210806106b65750600b5482115b156106d457604051636e4ba61d60e01b815260040160405180910390fd5b42601155436012556010541580156106ec5750600f54155b1561070057600f829055601082905561070b565b600f80546010558290555b5050505050505050565b5f828152602081815260408083206001600160a01b038516845290915290205460ff166107ae575f828152602081815260408083206001600160a01b03851684529091529020805460ff1916600117905561076d3390565b6001600160a01b0316816001600160a01b0316837f2f8788117e7eff1d82e926ec794901d17c78024a50270940304540a733656f0d60405160405180910390a45b5050565b5f6107c6836001600160a01b0384166107cf565b90505b92915050565b5f81815260018301602052604081205461081457508154600181810184555f8481526020808220909301849055845484825282860190935260409020919091556107c9565b505f6107c9565b6001600160a01b038116811461082f575f5ffd5b50565b5f5f5f5f5f5f5f5f5f6101208a8c03121561084b575f5ffd5b89516108568161081b565b60208b01519099506108678161081b565b60408b015160608c015160808d0151929a5090985096506108878161081b565b60a08b01519095506108988161081b565b60c08b01519094506108a98161081b565b60e08b01519093506108ba8161081b565b6101008b01519092506108cc8161081b565b809150509295985092959850929598565b634e487b7160e01b5f52601160045260245ffd5b808201808211156107c9576107c96108dd565b80516001600160501b038116811461091a575f5ffd5b919050565b5f5f5f5f5f60a08688031215610933575f5ffd5b61093c86610904565b6020870151604088015160608901519297509095509350915061096160808701610904565b90509295509295909350565b818103818111156107c9576107c96108dd565b61343a8061098d5f395ff3fe608060405260043610610345575f3560e01c80637c01fc4d116101b2578063c2e46fe0116100f2578063e707147211610092578063ef32ba081161006d578063ef32ba0814610941578063f2f6596014610973578063fbfa77cf14610992578063ffa1ad74146109be575f5ffd5b8063e7071472146108dc578063e73faa2d1461090e578063e75b434b14610922575f5ffd5b8063d1a6a961116100cd578063d1a6a96114610857578063d285e8fd14610889578063d547741f146108a8578063e19a963f146108c7575f5ffd5b8063c2e46fe01461080e578063ca15c87314610823578063cf980c0014610842575f5ffd5b806391d148541161015d578063a82c356e11610138578063a82c356e146107a8578063ab7ccc1c146107bb578063b0949137146107da578063b3a90c67146107ef575f5ffd5b806391d14854146107315780639478ab8c14610780578063a217fddf14610795575f5ffd5b80638d567f861161018d5780638d567f86146106d45780639010d07c146106f357806391b7f5ed14610712575f5ffd5b80637c01fc4d1461068c5780638456cb59146106a15780638611e6e7146106b5575f5ffd5b80633f4ba83a1161028857806364996ed811610228578063724e78da11610203578063724e78da14610614578063741bef1a14610633578063783a112b1461066457806378888e4114610677575f5ffd5b806364996ed8146105cb5780636817031b146105e05780637078cc1c146105ff575f5ffd5b80634375948c116102635780634375948c146105575780634fbd1282146105765780635ae28fc9146105955780635c975abb146105b4575f5ffd5b80633f4ba83a1461051957806340df0ba01461052d57806341392be814610542575f5ffd5b80632751c4fd116102f35780632f2ff15d116102ce5780632f2ff15d1461047657806336568abe146104955780633b56125c146104b45780633c67a5b214610505575f5ffd5b80632751c4fd1461042d5780632c39d670146104425780632e1a7d4d14610457575f5ffd5b80631a9d70f6116103235780631a9d70f6146103c1578063248a9ca3146103e057806326a49e371461040e575f5ffd5b806301ffc9a71461034957806306517a291461037d578063194e9951146103a0575b5f5ffd5b348015610354575f5ffd5b50610368610363366004612fc3565b610a13565b60405190151581526020015b60405180910390f35b348015610388575f5ffd5b5061039260075481565b604051908152602001610374565b3480156103ab575f5ffd5b506103bf6103ba366004613002565b610a6e565b005b3480156103cc575f5ffd5b506103bf6103db366004613019565b610b16565b3480156103eb575f5ffd5b506103926103fa366004613002565b5f9081526020819052604090206001015490565b348015610419575f5ffd5b50610392610428366004613002565b610d10565b348015610438575f5ffd5b50610392600e5481565b34801561044d575f5ffd5b5061039260045481565b348015610462575f5ffd5b506103bf610471366004613002565b610d4f565b348015610481575f5ffd5b506103bf610490366004613063565b610e2b565b3480156104a0575f5ffd5b506103bf6104af366004613063565b610e54565b3480156104bf575f5ffd5b506003546104e09073ffffffffffffffffffffffffffffffffffffffff1681565b60405173ffffffffffffffffffffffffffffffffffffffff9091168152602001610374565b348015610510575f5ffd5b506103bf610f0c565b348015610524575f5ffd5b506103bf610fb9565b348015610538575f5ffd5b5061039260055481565b34801561054d575f5ffd5b5061039260095481565b348015610562575f5ffd5b506103bf610571366004613002565b611028565b348015610581575f5ffd5b506103bf610590366004613002565b61110b565b3480156105a0575f5ffd5b506103bf6105af366004613002565b6111ee565b3480156105bf575f5ffd5b5060025460ff16610368565b3480156105d6575f5ffd5b5061039260125481565b3480156105eb575f5ffd5b506103bf6105fa366004613091565b611296565b34801561060a575f5ffd5b50610392600c5481565b34801561061f575f5ffd5b506103bf61062e366004613091565b6113e5565b34801561063e575f5ffd5b506002546104e090610100900473ffffffffffffffffffffffffffffffffffffffff1681565b6103926106723660046130ac565b6114f1565b348015610682575f5ffd5b5061039260105481565b348015610697575f5ffd5b50610392600a5481565b3480156106ac575f5ffd5b506103bf61166d565b3480156106c0575f5ffd5b506103bf6106cf366004613002565b6116dc565b3480156106df575f5ffd5b506103bf6106ee366004613002565b6117d2565b3480156106fe575f5ffd5b506104e061070d3660046130ac565b6118b4565b34801561071d575f5ffd5b506103bf61072c366004613002565b6118cb565b34801561073c575f5ffd5b5061036861074b366004613063565b5f9182526020828152604080842073ffffffffffffffffffffffffffffffffffffffff93909316845291905290205460ff1690565b34801561078b575f5ffd5b50610392600f5481565b3480156107a0575f5ffd5b506103925f81565b6103bf6107b6366004613114565b611973565b3480156107c6575f5ffd5b506103bf6107d53660046130ac565b611bc0565b3480156107e5575f5ffd5b5061039260065481565b3480156107fa575f5ffd5b506103bf610809366004613180565b611d3d565b348015610819575f5ffd5b5061039260085481565b34801561082e575f5ffd5b5061039261083d366004613002565b611f0f565b34801561084d575f5ffd5b5061039260115481565b348015610862575f5ffd5b507fb19546dff01e856fb3f010c267a7b1c60363cf8a4664e21cc89c26224620214e610392565b348015610894575f5ffd5b506103bf6108a3366004613002565b611f25565b3480156108b3575f5ffd5b506103bf6108c2366004613063565b611fcd565b3480156108d2575f5ffd5b50610392600b5481565b3480156108e7575f5ffd5b507f3496e2e73c4d42b75d702e60d9e48102720b8691234415963a5a857b86425d07610392565b348015610919575f5ffd5b50610392611ff1565b34801561092d575f5ffd5b506103bf61093c366004613091565b612001565b34801561094c575f5ffd5b507f97667070c54ef182b0f5858b034beac1b6f3089aa2d3188bb1e8929f4fa9b929610392565b34801561097e575f5ffd5b506103bf61098d366004613002565b612103565b34801561099d575f5ffd5b50600d546104e09073ffffffffffffffffffffffffffffffffffffffff1681565b3480156109c9575f5ffd5b50610a066040518060400160405280600a81526020017f323032332e30382e32330000000000000000000000000000000000000000000081525081565b60405161037491906131c8565b5f7fffffffff0000000000000000000000000000000000000000000000000000000082167f5a05180f000000000000000000000000000000000000000000000000000000001480610a685750610a68826121ab565b92915050565b335f9081527fd329ff8a035c3ce5df2b0dae604d660c0d8783bf7e64be00c1d10db96c0b87b4602052604090205460ff16610ad5576040517f30cd747100000000000000000000000000000000000000000000000000000000815260040160405180910390fd5b60085460408051918252602082018390527fba21d40bb8770d5fa02e1971806473e12480167182e829c0fc86addb21e2b77d910160405180910390a1600855565b335f9081527fee57cd81e84075558e8fcc182a1f4393f91fc97f963a136e66b7f949a62f319f602052604090205460ff16610b7d576040517f7c214f0400000000000000000000000000000000000000000000000000000000815260040160405180910390fd5b6004544210610bb8576040517fd17e0deb00000000000000000000000000000000000000000000000000000000815260040160405180910390fd5b610bc0612241565b805f03610bf9576040517f2c5211c600000000000000000000000000000000000000000000000000000000815260040160405180910390fd5b818310610c32576040517f59d0556c00000000000000000000000000000000000000000000000000000000815260040160405180910390fd5b5f610c3d8484613248565b610c4890600161325b565b90505f610c55838361326e565b905060075481600e54610c68919061325b565b1115610ca0576040517f2aa2ed7200000000000000000000000000000000000000000000000000000000815260040160405180910390fd5b80600e5f828254610cb1919061325b565b909155505f90505b82811015610d0857610ccb818761325b565b60405185815233907faabd75b90fb7114eb9587a54f00ce5ebe8cb4a70627f3a6c26e506ffd771fe2f9060200160405180910390a3600101610cb9565b505050505050565b5f5f6006545f14610d245750600654610d3b565b4360125403610d365750601054610d3b565b50600f545b610d4883600554836122ae565b9392505050565b335f9081527f991c3211066600fc98d95d017c66f2884b1fa3d4cabc2576d000f3cc80931bda602052604090205460ff16610db6576040517f5647892800000000000000000000000000000000000000000000000000000000815260040160405180910390fd5b600d5460405182815273ffffffffffffffffffffffffffffffffffffffff909116907f884edad9ce6fa2440d8a54cc123490eb96d2768479d49ff9c7366125a94243649060200160405180910390a2600d54610e289073ffffffffffffffffffffffffffffffffffffffff16826122cb565b50565b5f82815260208190526040902060010154610e458161230d565b610e4f8383612317565b505050565b73ffffffffffffffffffffffffffffffffffffffff81163314610efe576040517f08c379a000000000000000000000000000000000000000000000000000000000815260206004820152602f60248201527f416363657373436f6e74726f6c3a2063616e206f6e6c792072656e6f756e636560448201527f20726f6c657320666f722073656c66000000000000000000000000000000000060648201526084015b60405180910390fd5b610f088282612338565b5050565b335f9081527fd329ff8a035c3ce5df2b0dae604d660c0d8783bf7e64be00c1d10db96c0b87b4602052604090205460ff16158015610f785750335f9081527f991c3211066600fc98d95d017c66f2884b1fa3d4cabc2576d000f3cc80931bda602052604090205460ff16155b15610faf576040517f82b4290000000000000000000000000000000000000000000000000000000000815260040160405180910390fd5b610fb7612359565b565b335f9081527fd329ff8a035c3ce5df2b0dae604d660c0d8783bf7e64be00c1d10db96c0b87b4602052604090205460ff16611020576040517f30cd747100000000000000000000000000000000000000000000000000000000815260040160405180910390fd5b610fb7612782565b335f9081527fd329ff8a035c3ce5df2b0dae604d660c0d8783bf7e64be00c1d10db96c0b87b4602052604090205460ff1661108f576040517f30cd747100000000000000000000000000000000000000000000000000000000815260040160405180910390fd5b600b5481106110ca576040517f2098bf9500000000000000000000000000000000000000000000000000000000815260040160405180910390fd5b600a5460408051918252602082018390527f5ea311a1ef15e7fbfbbe5d4b8160fd93a072abf0c64d50591e17306e3b7aa628910160405180910390a1600a55565b335f9081527fd329ff8a035c3ce5df2b0dae604d660c0d8783bf7e64be00c1d10db96c0b87b4602052604090205460ff16611172576040517f30cd747100000000000000000000000000000000000000000000000000000000815260040160405180910390fd5b600a5481116111ad576040517fa768df8200000000000000000000000000000000000000000000000000000000815260040160405180910390fd5b600b5460408051918252602082018390527fea30ce82bdf6bad7bc587c9a5e15e0f655724d1e3a680df280898a2aab512d39910160405180910390a1600b55565b335f9081527fd329ff8a035c3ce5df2b0dae604d660c0d8783bf7e64be00c1d10db96c0b87b4602052604090205460ff16611255576040517f30cd747100000000000000000000000000000000000000000000000000000000815260040160405180910390fd5b60095460408051918252602082018390527fdab04eb6792be47147c80ea1681f6b05c2961bed4ea123bcb7f8d4c10aa2df3e910160405180910390a1600955565b335f9081527fd329ff8a035c3ce5df2b0dae604d660c0d8783bf7e64be00c1d10db96c0b87b4602052604090205460ff166112fd576040517f30cd747100000000000000000000000000000000000000000000000000000000815260040160405180910390fd5b73ffffffffffffffffffffffffffffffffffffffff811661134a576040517fe6c4247b00000000000000000000000000000000000000000000000000000000815260040160405180910390fd5b600d546040805173ffffffffffffffffffffffffffffffffffffffff928316815291831660208301527f22a9f7c8a21e91a43518238948d4ed67511ad8492ca0e13fdbc93c134701a72a910160405180910390a1600d80547fffffffffffffffffffffffff00000000000000000000000000000000000000001673ffffffffffffffffffffffffffffffffffffffff92909216919091179055565b335f9081527fd329ff8a035c3ce5df2b0dae604d660c0d8783bf7e64be00c1d10db96c0b87b4602052604090205460ff1661144c576040517f30cd747100000000000000000000000000000000000000000000000000000000815260040160405180910390fd5b6002546040805173ffffffffffffffffffffffffffffffffffffffff6101009093048316815291831660208301527fc02f01e22efc017c1c952d0eef1a8fc038571f14ea5a285d79d1d7ba87d8b001910160405180910390a16002805473ffffffffffffffffffffffffffffffffffffffff909216610100027fffffffffffffffffffffff0000000000000000000000000000000000000000ff909216919091179055565b5f600454421061152d576040517fd17e0deb00000000000000000000000000000000000000000000000000000000815260040160405180910390fd5b611535612241565b815f0361156e576040517f2c5211c600000000000000000000000000000000000000000000000000000000815260040160405180910390fd5b60075482600e5461157f919061325b565b11156115b7576040517f2aa2ed7200000000000000000000000000000000000000000000000000000000815260040160405180910390fd5b5f6115c1836127ff565b9050803410156115fd576040517f3c6b4b2800000000000000000000000000000000000000000000000000000000815260040160405180910390fd5b82600e5f82825461160e919061325b565b9091555050604051838152849033907faabd75b90fb7114eb9587a54f00ce5ebe8cb4a70627f3a6c26e506ffd771fe2f9060200160405180910390a36116548134613248565b915081156116665761166633836122cb565b5092915050565b335f9081527fd329ff8a035c3ce5df2b0dae604d660c0d8783bf7e64be00c1d10db96c0b87b4602052604090205460ff166116d4576040517f30cd747100000000000000000000000000000000000000000000000000000000815260040160405180910390fd5b610fb7612814565b335f9081527fd329ff8a035c3ce5df2b0dae604d660c0d8783bf7e64be00c1d10db96c0b87b4602052604090205460ff16611743576040517f30cd747100000000000000000000000000000000000000000000000000000000815260040160405180910390fd5b801561179157600a5481108061175a5750600b5481115b15611791576040517f84477d0400000000000000000000000000000000000000000000000000000000815260040160405180910390fd5b60065460408051918252602082018390527f93aee10a56f247b278bffd77edfd1772670a0889d16a01f958afebcce8266432910160405180910390a1600655565b335f9081527fd329ff8a035c3ce5df2b0dae604d660c0d8783bf7e64be00c1d10db96c0b87b4602052604090205460ff16611839576040517f30cd747100000000000000000000000000000000000000000000000000000000815260040160405180910390fd5b42811015611873576040517f4d9c314900000000000000000000000000000000000000000000000000000000815260040160405180910390fd5b60045460408051918252602082018390527f27e030644fe653b53e98fbd0ca5004392da63705b0806619a43324647715bc6b910160405180910390a1600455565b5f828152600160205260408120610d48908361286f565b335f9081527fd329ff8a035c3ce5df2b0dae604d660c0d8783bf7e64be00c1d10db96c0b87b4602052604090205460ff16611932576040517f30cd747100000000000000000000000000000000000000000000000000000000815260040160405180910390fd5b60055460408051918252602082018390527ff9317dc3bc6dda0e00e43855c2c30847aeafb8dcea9d2ce86e9ce7a83d549f01910160405180910390a1600555565b60045442106119ae576040517fd17e0deb00000000000000000000000000000000000000000000000000000000815260040160405180910390fd5b6119b6612241565b8215806119c1575080155b156119f8576040517f0a514b9900000000000000000000000000000000000000000000000000000000815260040160405180910390fd5b828114611a31576040517f0a514b9900000000000000000000000000000000000000000000000000000000815260040160405180910390fd5b6005545f611a3d61287a565b90505f5f5b86811015611af2575f868683818110611a5d57611a5d613285565b905060200201359050805f03611a735750611aea565b611a7d818461325b565b9250888883818110611a9157611a91613285565b905060200201353373ffffffffffffffffffffffffffffffffffffffff167faabd75b90fb7114eb9587a54f00ce5ebe8cb4a70627f3a6c26e506ffd771fe2f83604051611ae091815260200190565b60405180910390a3505b600101611a42565b505f611aff8285856122ae565b905080341015611b3b576040517f3c6b4b2800000000000000000000000000000000000000000000000000000000815260040160405180910390fd5b60075482600e54611b4c919061325b565b1115611b84576040517f2aa2ed7200000000000000000000000000000000000000000000000000000000815260040160405180910390fd5b81600e5f828254611b95919061325b565b909155505034811015611bb657611bb6611baf8234613248565b33906122cb565b5050505050505050565b335f9081527fee57cd81e84075558e8fcc182a1f4393f91fc97f963a136e66b7f949a62f319f602052604090205460ff16611c27576040517f7c214f0400000000000000000000000000000000000000000000000000000000815260040160405180910390fd5b6004544210611c62576040517fd17e0deb00000000000000000000000000000000000000000000000000000000815260040160405180910390fd5b611c6a612241565b805f03611ca3576040517f2c5211c600000000000000000000000000000000000000000000000000000000815260040160405180910390fd5b60075481600e54611cb4919061325b565b1115611cec576040517f2aa2ed7200000000000000000000000000000000000000000000000000000000815260040160405180910390fd5b80600e5f828254611cfd919061325b565b9091555050604051818152829033907faabd75b90fb7114eb9587a54f00ce5ebe8cb4a70627f3a6c26e506ffd771fe2f9060200160405180910390a35050565b335f9081527fee57cd81e84075558e8fcc182a1f4393f91fc97f963a136e66b7f949a62f319f602052604090205460ff16611da4576040517f7c214f0400000000000000000000000000000000000000000000000000000000815260040160405180910390fd5b6004544210611ddf576040517fd17e0deb00000000000000000000000000000000000000000000000000000000815260040160405180910390fd5b611de7612241565b805f03611e20576040517f2c5211c600000000000000000000000000000000000000000000000000000000815260040160405180910390fd5b5f611e2b828461326e565b905060075481600e54611e3e919061325b565b1115611e76576040517f2aa2ed7200000000000000000000000000000000000000000000000000000000815260040160405180910390fd5b80600e5f828254611e87919061325b565b909155505f90505b83811015611f0857848482818110611ea957611ea9613285565b905060200201353373ffffffffffffffffffffffffffffffffffffffff167faabd75b90fb7114eb9587a54f00ce5ebe8cb4a70627f3a6c26e506ffd771fe2f85604051611ef891815260200190565b60405180910390a3600101611e8f565b5050505050565b5f818152600160205260408120610a68906128c0565b335f9081527fd329ff8a035c3ce5df2b0dae604d660c0d8783bf7e64be00c1d10db96c0b87b4602052604090205460ff16611f8c576040517f30cd747100000000000000000000000000000000000000000000000000000000815260040160405180910390fd5b60075460408051918252602082018390527fa75b962aa425276de62bec76aeb43cacc12d2b132498ae1115500c23dc35fbe4910160405180910390a1600755565b5f82815260208190526040902060010154611fe78161230d565b610e4f8383612338565b5f611ffc6001610d10565b905090565b335f9081527fd329ff8a035c3ce5df2b0dae604d660c0d8783bf7e64be00c1d10db96c0b87b4602052604090205460ff16612068576040517f30cd747100000000000000000000000000000000000000000000000000000000815260040160405180910390fd5b6003546040805173ffffffffffffffffffffffffffffffffffffffff928316815291831660208301527fffca0dcf4a77eaddf80becc294c7f9b5fe6afe652e75c888b8afc76c75d8e658910160405180910390a1600380547fffffffffffffffffffffffff00000000000000000000000000000000000000001673ffffffffffffffffffffffffffffffffffffffff92909216919091179055565b335f9081527fd329ff8a035c3ce5df2b0dae604d660c0d8783bf7e64be00c1d10db96c0b87b4602052604090205460ff1661216a576040517f30cd747100000000000000000000000000000000000000000000000000000000815260040160405180910390fd5b600c5460408051918252602082018390527f31c130faaf861e1e61ca087cc48c410d9099885350e9beb4dad1175cb77a6545910160405180910390a1600c55565b5f7fffffffff0000000000000000000000000000000000000000000000000000000082167f7965db0b000000000000000000000000000000000000000000000000000000001480610a6857507f01ffc9a7000000000000000000000000000000000000000000000000000000007fffffffff00000000000000000000000000000000000000000000000000000000831614610a68565b60025460ff1615610fb7576040517f08c379a000000000000000000000000000000000000000000000000000000000815260206004820152601060248201527f5061757361626c653a20706175736564000000000000000000000000000000006044820152606401610ef5565b5f6122c3826122bd858761326e565b906128c9565b949350505050565b5f5f5f5f5f85875af1905080610e4f576040517f3204506f00000000000000000000000000000000000000000000000000000000815260040160405180910390fd5b610e2881336128dd565b6123218282612994565b5f828152600160205260409020610e4f9082612a82565b6123428282612aa3565b5f828152600160205260409020610e4f9082612b58565b5f5f5f5f60035f9054906101000a900473ffffffffffffffffffffffffffffffffffffffff1673ffffffffffffffffffffffffffffffffffffffff1663feaf968c6040518163ffffffff1660e01b815260040160a060405180830381865afa1580156123c7573d5f5f3e3d5ffd5b505050506040513d601f19601f820116820180604052508101906123eb91906132d0565b509350935093509350825f1461242d576040517f032b3d0000000000000000000000000000000000000000000000000000000000815260040160405180910390fd5b8369ffffffffffffffffffff165f03612472576040517f8ad52bdd00000000000000000000000000000000000000000000000000000000815260040160405180910390fd5b805f036124ab576040517f8ad52bdd00000000000000000000000000000000000000000000000000000000815260040160405180910390fd5b428111156124e5576040517fe802dd3a00000000000000000000000000000000000000000000000000000000815260040160405180910390fd5b5f6124f08342613248565b9050600c5481101561252e576040517fd15f73b500000000000000000000000000000000000000000000000000000000815260040160405180910390fd5b5f5f5f600260019054906101000a900473ffffffffffffffffffffffffffffffffffffffff1673ffffffffffffffffffffffffffffffffffffffff1663feaf968c6040518163ffffffff1660e01b815260040160a060405180830381865afa15801561259c573d5f5f3e3d5ffd5b505050506040513d601f19601f820116820180604052508101906125c091906132d0565b50935050925092505f8213612600576040517ebfc92100000000000000000000000000000000000000000000000000000000815260040160405180910390fd5b8269ffffffffffffffffffff165f03612645576040517f8ad52bdd00000000000000000000000000000000000000000000000000000000815260040160405180910390fd5b805f0361267e576040517f8ad52bdd00000000000000000000000000000000000000000000000000000000815260040160405180910390fd5b428111156126b8576040517fe802dd3a00000000000000000000000000000000000000000000000000000000815260040160405180910390fd5b6009546126c58242613248565b11156126fd576040517f704e0c4800000000000000000000000000000000000000000000000000000000815260040160405180910390fd5b600a5482108061270e5750600b5482115b15612745576040517f6e4ba61d00000000000000000000000000000000000000000000000000000000815260040160405180910390fd5b426011554360125560105415801561275d5750600f54155b1561277157600f8290556010829055611bb6565b50600f805460105555505050505050565b61278a612b79565b600280547fffffffffffffffffffffffffffffffffffffffffffffffffffffffffffffff001690557f5db9ee0a495bf2e6ff9c91a7834c1ba4fdd244a5e8aa4e537bd38aeae4b073aa335b60405173ffffffffffffffffffffffffffffffffffffffff909116815260200160405180910390a1565b5f610a688260055461280f61287a565b6122ae565b61281c612241565b600280547fffffffffffffffffffffffffffffffffffffffffffffffffffffffffffffff001660011790557f62e78cea01bee320cd4e420270b5ea74000d11b0c9f74754ebdbfc544b05a2586127d53390565b5f610d488383612be5565b5f6006545f1461288b575060065490565b60085460115461289b9042613248565b11156128a9576128a9612359565b43601254146128b95750600f5490565b5060105490565b5f610a68825490565b5f610d4883670de0b6b3a764000084612c0b565b5f8281526020818152604080832073ffffffffffffffffffffffffffffffffffffffff8516845290915290205460ff16610f085761291a81612c38565b612925836020612c57565b604051602001612936929190613335565b604080517fffffffffffffffffffffffffffffffffffffffffffffffffffffffffffffffe0818403018152908290527f08c379a0000000000000000000000000000000000000000000000000000000008252610ef5916004016131c8565b5f8281526020818152604080832073ffffffffffffffffffffffffffffffffffffffff8516845290915290205460ff16610f08575f8281526020818152604080832073ffffffffffffffffffffffffffffffffffffffff85168452909152902080547fffffffffffffffffffffffffffffffffffffffffffffffffffffffffffffff00166001179055612a243390565b73ffffffffffffffffffffffffffffffffffffffff168173ffffffffffffffffffffffffffffffffffffffff16837f2f8788117e7eff1d82e926ec794901d17c78024a50270940304540a733656f0d60405160405180910390a45050565b5f610d488373ffffffffffffffffffffffffffffffffffffffff8416612e94565b5f8281526020818152604080832073ffffffffffffffffffffffffffffffffffffffff8516845290915290205460ff1615610f08575f8281526020818152604080832073ffffffffffffffffffffffffffffffffffffffff8516808552925280832080547fffffffffffffffffffffffffffffffffffffffffffffffffffffffffffffff0016905551339285917ff6391f5c32d9c69d2a47ea670b442974b53935d1edc7fd64eb21e047a839171b9190a45050565b5f610d488373ffffffffffffffffffffffffffffffffffffffff8416612ee0565b60025460ff16610fb7576040517f08c379a000000000000000000000000000000000000000000000000000000000815260206004820152601460248201527f5061757361626c653a206e6f74207061757365640000000000000000000000006044820152606401610ef5565b5f825f018281548110612bfa57612bfa613285565b905f5260205f200154905092915050565b828202811515841585830485141716612c22575f5ffd5b6001826001830304018115150290509392505050565b6060610a6873ffffffffffffffffffffffffffffffffffffffff831660145b60605f612c6583600261326e565b612c7090600261325b565b67ffffffffffffffff811115612c8857612c8861339f565b6040519080825280601f01601f191660200182016040528015612cb2576020820181803683370190505b5090507f3000000000000000000000000000000000000000000000000000000000000000815f81518110612ce857612ce8613285565b60200101907effffffffffffffffffffffffffffffffffffffffffffffffffffffffffffff191690815f1a9053507f780000000000000000000000000000000000000000000000000000000000000081600181518110612d4a57612d4a613285565b60200101907effffffffffffffffffffffffffffffffffffffffffffffffffffffffffffff191690815f1a9053505f612d8484600261326e565b612d8f90600161325b565b90505b6001811115612e2b577f303132333435363738396162636465660000000000000000000000000000000085600f1660108110612dd057612dd0613285565b1a60f81b828281518110612de657612de6613285565b60200101907effffffffffffffffffffffffffffffffffffffffffffffffffffffffffffff191690815f1a90535060049490941c93612e24816133cc565b9050612d92565b508315610d48576040517f08c379a000000000000000000000000000000000000000000000000000000000815260206004820181905260248201527f537472696e67733a20686578206c656e67746820696e73756666696369656e746044820152606401610ef5565b5f818152600183016020526040812054612ed957508154600181810184555f848152602080822090930184905584548482528286019093526040902091909155610a68565b505f610a68565b5f8181526001830160205260408120548015612fba575f612f02600183613248565b85549091505f90612f1590600190613248565b9050818114612f74575f865f018281548110612f3357612f33613285565b905f5260205f200154905080875f018481548110612f5357612f53613285565b5f918252602080832090910192909255918252600188019052604090208390555b8554869080612f8557612f85613400565b600190038181905f5260205f20015f90559055856001015f8681526020019081526020015f205f905560019350505050610a68565b5f915050610a68565b5f60208284031215612fd3575f5ffd5b81357fffffffff0000000000000000000000000000000000000000000000000000000081168114610d48575f5ffd5b5f60208284031215613012575f5ffd5b5035919050565b5f5f5f6060848603121561302b575f5ffd5b505081359360208301359350604090920135919050565b73ffffffffffffffffffffffffffffffffffffffff81168114610e28575f5ffd5b5f5f60408385031215613074575f5ffd5b82359150602083013561308681613042565b809150509250929050565b5f602082840312156130a1575f5ffd5b8135610d4881613042565b5f5f604083850312156130bd575f5ffd5b50508035926020909101359150565b5f5f83601f8401126130dc575f5ffd5b50813567ffffffffffffffff8111156130f3575f5ffd5b6020830191508360208260051b850101111561310d575f5ffd5b9250929050565b5f5f5f5f60408587031215613127575f5ffd5b843567ffffffffffffffff81111561313d575f5ffd5b613149878288016130cc565b909550935050602085013567ffffffffffffffff811115613168575f5ffd5b613174878288016130cc565b95989497509550505050565b5f5f5f60408486031215613192575f5ffd5b833567ffffffffffffffff8111156131a8575f5ffd5b6131b4868287016130cc565b909790965060209590950135949350505050565b602081525f82518060208401528060208501604085015e5f6040828501015260407fffffffffffffffffffffffffffffffffffffffffffffffffffffffffffffffe0601f83011684010191505092915050565b7f4e487b71000000000000000000000000000000000000000000000000000000005f52601160045260245ffd5b81810381811115610a6857610a6861321b565b80820180821115610a6857610a6861321b565b8082028115828204841417610a6857610a6861321b565b7f4e487b71000000000000000000000000000000000000000000000000000000005f52603260045260245ffd5b805169ffffffffffffffffffff811681146132cb575f5ffd5b919050565b5f5f5f5f5f60a086880312156132e4575f5ffd5b6132ed866132b2565b60208701516040880151606089015192975090955093509150613312608087016132b2565b90509295509295909350565b5f81518060208401855e5f93019283525090919050565b7f416363657373436f6e74726f6c3a206163636f756e742000000000000000000081525f613366601783018561331e565b7f206973206d697373696e6720726f6c65200000000000000000000000000000008152613396601182018561331e565b95945050505050565b7f4e487b71000000000000000000000000000000000000000000000000000000005f52604160045260245ffd5b5f816133da576133da61321b565b507fffffffffffffffffffffffffffffffffffffffffffffffffffffffffffffffff0190565b7f4e487b71000000000000000000000000000000000000000000000000000000005f52603160045260245ffdfea164736f6c634300081d000a","linkReferences":{}},"methodIdentifiers":{"DEFAULT_ADMIN_ROLE()":"a217fddf","VERSION()":"ffa1ad74","batchCredit(uint256[],uint256)":"b3a90c67","batchRent(uint256[],uint256[])":"a82c356e","continuousCredit(uint256,uint256,uint256)":"1a9d70f6","credit(uint256,uint256)":"ab7ccc1c","deprecationTimestamp()":"2c39d670","ethUsdPrice()":"9478ab8c","fixedEthUsdPrice()":"b0949137","getRoleAdmin(bytes32)":"248a9ca3","getRoleMember(bytes32,uint256)":"9010d07c","getRoleMemberCount(bytes32)":"ca15c873","grantRole(bytes32,address)":"2f2ff15d","hasRole(bytes32,address)":"91d14854","lastPriceFeedUpdateBlock()":"64996ed8","lastPriceFeedUpdateTime()":"cf980c00","maxUnits()":"06517a29","operatorRoleId()":"ef32ba08","ownerRoleId()":"d1a6a961","pause()":"8456cb59","paused()":"5c975abb","prevEthUsdPrice()":"78888e41","price(uint256)":"26a49e37","priceFeed()":"741bef1a","priceFeedCacheDuration()":"c2e46fe0","priceFeedMaxAge()":"41392be8","priceFeedMaxAnswer()":"e19a963f","priceFeedMinAnswer()":"7c01fc4d","refreshPrice()":"3c67a5b2","renounceRole(bytes32,address)":"36568abe","rent(uint256,uint256)":"783a112b","rentedUnits()":"2751c4fd","revokeRole(bytes32,address)":"d547741f","setCacheDuration(uint256)":"194e9951","setDeprecationTimestamp(uint256)":"8d567f86","setFixedEthUsdPrice(uint256)":"8611e6e7","setGracePeriod(uint256)":"f2f65960","setMaxAge(uint256)":"5ae28fc9","setMaxAnswer(uint256)":"4fbd1282","setMaxUnits(uint256)":"d285e8fd","setMinAnswer(uint256)":"4375948c","setPrice(uint256)":"91b7f5ed","setPriceFeed(address)":"724e78da","setUptimeFeed(address)":"e75b434b","setVault(address)":"6817031b","supportsInterface(bytes4)":"01ffc9a7","treasurerRoleId()":"e7071472","unitPrice()":"e73faa2d","unpause()":"3f4ba83a","uptimeFeed()":"3b56125c","uptimeFeedGracePeriod()":"7078cc1c","usdUnitPrice()":"40df0ba0","vault()":"fbfa77cf","withdraw(uint256)":"2e1a7d4d"},"id":136}