{"abi":[{"type":"constructor","inputs":[{"name":"_idRegistry","type":"address","internalType":"address"},{"name":"_initialOwner","type":"address","internalType":"address"}],"stateMutability":"nonpayable"},{"type":"function","name":"acceptOwnership","inputs":[],"outputs":[],"stateMutability":"nonpayable"},{"type":"function","name":"idRegistry","inputs":[],"outputs":[{"name":"","type":"address","internalType":"contract IIdRegistry"}],"stateMutability":"view"},{"type":"function","name":"owner","inputs":[],"outputs":[{"name":"","type":"address","internalType":"address"}],"stateMutability":"view"},{"type":"function","name":"pendingOwner","inputs":[],"outputs":[{"name":"","type":"address","internalType":"address"}],"stateMutability":"view"},{"type":"function","name":"recover","inputs":[{"name":"from","type":"address","internalType":"address"},{"name":"to","type":"address","internalType":"address"},{"name":"deadline","type":"uint256","internalType":"uint256"},{"name":"sig","type":"bytes","internalType":"bytes"}],"outputs":[],"stateMutability":"nonpayable"},{"type":"function","name":"renounceOwnership","inputs":[],"outputs":[],"stateMutability":"nonpayable"},{"type":"function","name":"setIdRegistry","inputs":[{"name":"_idRegistry","type":"address","internalType":"contract IIdRegistry"}],"outputs":[],"stateMutability":"nonpayable"},{"type":"function","name":"transferOwnership","inputs":[{"name":"newOwner","type":"address","internalType":"address"}],"outputs":[],"stateMutability":"nonpayable"},{"type":"event","name":"OwnershipTransferStarted","inputs":[{"name":"previousOwner","type":"address","indexed":true,"internalType":"address"},{"name":"newOwner","type":"address","indexed":true,"internalType":"address"}],"anonymous":false},{"type":"event","name":"OwnershipTransferred","inputs":[{"name":"previousOwner","type":"address","indexed":true,"internalType":"address"},{"name":"newOwner","type":"address","indexed":true,"internalType":"address"}],"anonymous":false},{"type":"event","name":"SetIdRegistry","inputs":[{"name":"oldIdRegistry","type":"address","indexed":false,"internalType":"contract IIdRegistry"},{"name":"newIdRegistry","type":"address","indexed":false,"internalType":"contract IIdRegistry"}],"anonymous":false}],"bytecode":{"object":"0x608060405234801561000f575f5ffd5b506040516107cd3803806107cd83398101604081905261002e916100e8565b61003733610062565b600280546001600160a01b0319166001600160a01b03841617905561005b81610062565b5050610119565b600180546001600160a01b031916905561007b8161007e565b50565b5f80546001600160a01b038381166001600160a01b0319831681178455604051919092169283917f8be0079c531659141344cd1fd0a4f28419497f9722a3daafe3b4186f6b6457e09190a35050565b80516001600160a01b03811681146100e3575f5ffd5b919050565b5f5f604083850312156100f9575f5ffd5b610102836100cd565b9150610110602084016100cd565b90509250929050565b6106a7806101265f395ff3fe608060405234801561000f575f5ffd5b5060043610610085575f3560e01c8063817494681161005857806381749468146100f75780638da5cb5b1461010a578063e30c397814610127578063f2fde38b14610145575f5ffd5b80630aa13b8c146100895780632a42ede3146100d2578063715018a6146100e757806379ba5097146100ef575b5f5ffd5b6002546100a99073ffffffffffffffffffffffffffffffffffffffff1681565b60405173ffffffffffffffffffffffffffffffffffffffff909116815260200160405180910390f35b6100e56100e0366004610552565b610158565b005b6100e56101f2565b6100e5610205565b6100e56101053660046105eb565b6102bf565b5f5473ffffffffffffffffffffffffffffffffffffffff166100a9565b60015473ffffffffffffffffffffffffffffffffffffffff166100a9565b6100e56101533660046105eb565b610362565b610160610411565b6002546040517f2a42ede300000000000000000000000000000000000000000000000000000000815273ffffffffffffffffffffffffffffffffffffffff90911690632a42ede3906101be908890889088908890889060040161060d565b5f604051808303815f87803b1580156101d5575f5ffd5b505af11580156101e7573d5f5f3e3d5ffd5b505050505050505050565b6101fa610411565b6102035f610491565b565b600154339073ffffffffffffffffffffffffffffffffffffffff1681146102b3576040517f08c379a000000000000000000000000000000000000000000000000000000000815260206004820152602960248201527f4f776e61626c6532537465703a2063616c6c6572206973206e6f74207468652060448201527f6e6577206f776e6572000000000000000000000000000000000000000000000060648201526084015b60405180910390fd5b6102bc81610491565b50565b6102c7610411565b6002546040805173ffffffffffffffffffffffffffffffffffffffff928316815291831660208301527f940dcf34ec2e245e837ee4599997e577ce274d7b87c73238e2878ac7ea1af2f1910160405180910390a1600280547fffffffffffffffffffffffff00000000000000000000000000000000000000001673ffffffffffffffffffffffffffffffffffffffff92909216919091179055565b61036a610411565b6001805473ffffffffffffffffffffffffffffffffffffffff83167fffffffffffffffffffffffff000000000000000000000000000000000000000090911681179091556103cc5f5473ffffffffffffffffffffffffffffffffffffffff1690565b73ffffffffffffffffffffffffffffffffffffffff167f38d16b8cac22d99fc7c124b9cd0de2d3fa1faef420bfe791d8c362d765e2270060405160405180910390a350565b5f5473ffffffffffffffffffffffffffffffffffffffff163314610203576040517f08c379a000000000000000000000000000000000000000000000000000000000815260206004820181905260248201527f4f776e61626c653a2063616c6c6572206973206e6f7420746865206f776e657260448201526064016102aa565b600180547fffffffffffffffffffffffff00000000000000000000000000000000000000001690556102bc815f805473ffffffffffffffffffffffffffffffffffffffff8381167fffffffffffffffffffffffff0000000000000000000000000000000000000000831681178455604051919092169283917f8be0079c531659141344cd1fd0a4f28419497f9722a3daafe3b4186f6b6457e09190a35050565b73ffffffffffffffffffffffffffffffffffffffff811681146102bc575f5ffd5b5f5f5f5f5f60808688031215610566575f5ffd5b853561057181610531565b9450602086013561058181610531565b935060408601359250606086013567ffffffffffffffff8111156105a3575f5ffd5b8601601f810188136105b3575f5ffd5b803567ffffffffffffffff8111156105c9575f5ffd5b8860208284010111156105da575f5ffd5b959894975092955050506020019190565b5f602082840312156105fb575f5ffd5b813561060681610531565b9392505050565b73ffffffffffffffffffffffffffffffffffffffff8616815273ffffffffffffffffffffffffffffffffffffffff8516602082015283604082015260806060820152816080820152818360a08301375f81830160a090810191909152601f9092017fffffffffffffffffffffffffffffffffffffffffffffffffffffffffffffffe016010194935050505056fea164736f6c634300081d000a","linkReferences":{}},"methodIdentifiers":{"acceptOwnership()":"79ba5097","idRegistry()":"0aa13b8c","owner()":"8da5cb5b","pendingOwner()":"e30c3978","recover(address,address,uint256,bytes)":"2a42ede3","renounceOwnership()":"715018a6","setIdRegistry(address)":"81749468","transferOwnership(address)":"f2fde38b"},"id":70}