{"abi":[{"type":"constructor","inputs":[{"name":"_keyRegistry","type":"address","internalType":"address"},{"name":"_initialOwner","type":"address","internalType":"address"}],"stateMutability":"nonpayable"},{"type":"function","name":"ADD_TYPEHASH","inputs":[],"outputs":[{"name":"","type":"bytes32","internalType":"bytes32"}],"stateMutability":"view"},{"type":"function","name":"VERSION","inputs":[],"outputs":[{"name":"","type":"string","internalType":"string"}],"stateMutability":"view"},{"type":"function","name":"acceptOwnership","inputs":[],"outputs":[],"stateMutability":"nonpayable"},{"type":"function","name":"add","inputs":[{"name":"keyType","type":"uint32","internalType":"uint32"},{"name":"key","type":"bytes","internalType":"bytes"},{"name":"metadataType","type":"uint8","internalType":"uint8"},{"name":"metadata","type":"bytes","internalType":"bytes"}],"outputs":[],"stateMutability":"nonpayable"},{"type":"function","name":"addFor","inputs":[{"name":"fidOwner","type":"address","internalType":"address"},{"name":"keyType","type":"uint32","internalType":"uint32"},{"name":"key","type":"bytes","internalType":"bytes"},{"name":"metadataType","type":"uint8","internalType":"uint8"},{"name":"metadata","type":"bytes","internalType":"bytes"},{"name":"deadline","type":"uint256","internalType":"uint256"},{"name":"sig","type":"bytes","internalType":"bytes"}],"outputs":[],"stateMutability":"nonpayable"},{"type":"function","name":"addGuardian","inputs":[{"name":"guardian","type":"address","internalType":"address"}],"outputs":[],"stateMutability":"nonpayable"},{"type":"function","name":"domainSeparatorV4","inputs":[],"outputs":[{"name":"","type":"bytes32","internalType":"bytes32"}],"stateMutability":"view"},{"type":"function","name":"eip712Domain","inputs":[],"outputs":[{"name":"fields","type":"bytes1","internalType":"bytes1"},{"name":"name","type":"string","internalType":"string"},{"name":"version","type":"string","internalType":"string"},{"name":"chainId","type":"uint256","internalType":"uint256"},{"name":"verifyingContract","type":"address","internalType":"address"},{"name":"salt","type":"bytes32","internalType":"bytes32"},{"name":"extensions","type":"uint256[]","internalType":"uint256[]"}],"stateMutability":"view"},{"type":"function","name":"guardians","inputs":[{"name":"guardian","type":"address","internalType":"address"}],"outputs":[{"name":"isGuardian","type":"bool","internalType":"bool"}],"stateMutability":"view"},{"type":"function","name":"hashTypedDataV4","inputs":[{"name":"structHash","type":"bytes32","internalType":"bytes32"}],"outputs":[{"name":"","type":"bytes32","internalType":"bytes32"}],"stateMutability":"view"},{"type":"function","name":"keyRegistry","inputs":[],"outputs":[{"name":"","type":"address","internalType":"contract IKeyRegistry"}],"stateMutability":"view"},{"type":"function","name":"nonces","inputs":[{"name":"owner","type":"address","internalType":"address"}],"outputs":[{"name":"","type":"uint256","internalType":"uint256"}],"stateMutability":"view"},{"type":"function","name":"owner","inputs":[],"outputs":[{"name":"","type":"address","internalType":"address"}],"stateMutability":"view"},{"type":"function","name":"pause","inputs":[],"outputs":[],"stateMutability":"nonpayable"},{"type":"function","name":"paused","inputs":[],"outputs":[{"name":"","type":"bool","internalType":"bool"}],"stateMutability":"view"},{"type":"function","name":"pendingOwner","inputs":[],"outputs":[{"name":"","type":"address","internalType":"address"}],"stateMutability":"view"},{"type":"function","name":"removeGuardian","inputs":[{"name":"guardian","type":"address","internalType":"address"}],"outputs":[],"stateMutability":"nonpayable"},{"type":"function","name":"renounceOwnership","inputs":[],"outputs":[],"stateMutability":"nonpayable"},{"type":"function","name":"transferOwnership","inputs":[{"name":"newOwner","type":"address","internalType":"address"}],"outputs":[],"stateMutability":"nonpayable"},{"type":"function","name":"unpause","inputs":[],"outputs":[],"stateMutability":"nonpayable"},{"type":"function","name":"useNonce","inputs":[],"outputs":[{"name":"","type":"uint256","internalType":"uint256"}],"stateMutability":"nonpayable"},{"type":"event","name":"Add","inputs":[{"name":"guardian","type":"address","indexed":true,"internalType":"address"}],"anonymous":false},{"type":"event","name":"EIP712DomainChanged","inputs":[],"anonymous":false},{"type":"event","name":"OwnershipTransferStarted","inputs":[{"name":"previousOwner","type":"address","indexed":true,"internalType":"address"},{"name":"newOwner","type":"address","indexed":true,"internalType":"address"}],"anonymous":false},{"type":"event","name":"OwnershipTransferred","inputs":[{"name":"previousOwner","type":"address","indexed":true,"internalType":"address"},{"name":"newOwner","type":"address","indexed":true,"internalType":"address"}],"anonymous":false},{"type":"event","name":"Paused","inputs":[{"name":"account","type":"address","indexed":false,"internalType":"address"}],"anonymous":false},{"type":"event","name":"Remove","inputs":[{"name":"guardian","type":"address","indexed":true,"internalType":"address"}],"anonymous":false},{"type":"event","name":"Unpaused","inputs":[{"name":"account","type":"address","indexed":false,"internalType":"address"}],"anonymous":false},{"type":"error","name":"InvalidAccountNonce","inputs":[{"name":"account","type":"address","internalType":"address"},{"name":"currentNonce","type":"uint256","internalType":"uint256"}]},{"type":"error","name":"InvalidShortString","inputs":[]},{"type":"error","name":"InvalidSignature","inputs":[]},{"type":"error","name":"OnlyGuardian","inputs":[]},{"type":"error","name":"SignatureExpired","inputs":[]},{"type":"error","name":"StringTooLong","inputs":[{"name":"str","type":"string","internalType":"string"}]}],"bytecode":{"object":"0x610180604052348015610010575f5ffd5b50604051611d6f380380611d6f83398101604081905261002f91610275565b6040518060400160405280601481526020017f466172636173746572204b657947617465776179000000000000000000000000815250604051806040016040528060018152602001603160f81b81525081818461009861009361017360201b60201c565b610177565b6001805460ff60a01b191690556100ae81610177565b506100ba826003610193565b610120526100c9816004610193565b61014052815160208084019190912060e052815190820120610100524660a05261015560e05161010051604080517f8b73c3c69bb8fe3d512ecc4cf759cc79239f7b179b0ffacaa9a75d522b39400f60208201529081019290925260608201524660808201523060a08201525f9060c00160405160208183030381529060405280519060200120905090565b60805250503060c0525050506001600160a01b031661016052610450565b3390565b600180546001600160a01b0319169055610190816101c5565b50565b5f6020835110156101ae576101a783610214565b90506101bf565b816101b9848261033e565b5060ff90505b92915050565b5f80546001600160a01b038381166001600160a01b0319831681178455604051919092169283917f8be0079c531659141344cd1fd0a4f28419497f9722a3daafe3b4186f6b6457e09190a35050565b5f5f829050601f81511115610247578260405163305a27a960e01b815260040161023e91906103f8565b60405180910390fd5b80516102528261042d565b179392505050565b80516001600160a01b0381168114610270575f5ffd5b919050565b5f5f60408385031215610286575f5ffd5b61028f8361025a565b915061029d6020840161025a565b90509250929050565b634e487b7160e01b5f52604160045260245ffd5b600181811c908216806102ce57607f821691505b6020821081036102ec57634e487b7160e01b5f52602260045260245ffd5b50919050565b601f82111561033957805f5260205f20601f840160051c810160208510156103175750805b601f840160051c820191505b81811015610336575f8155600101610323565b50505b505050565b81516001600160401b03811115610357576103576102a6565b61036b8161036584546102ba565b846102f2565b6020601f82116001811461039d575f83156103865750848201515b5f19600385901b1c1916600184901b178455610336565b5f84815260208120601f198516915b828110156103cc57878501518255602094850194600190920191016103ac565b50848210156103e957868401515f19600387901b60f8161c191681555b50505050600190811b01905550565b602081525f82518060208401528060208501604085015e5f604082850101526040601f19601f83011684010191505092915050565b805160208083015191908110156102ec575f1960209190910360031b1b16919050565b60805160a05160c05160e051610100516101205161014051610160516118b66104b95f395f81816101ae0152818161041e015261081101525f6106b701525f61068c01525f610c9801525f610c7001525f610bcb01525f610bf501525f610c1f01526118b65ff3fe608060405234801561000f575f5ffd5b506004361061016e575f3560e01c806379ba5097116100d2578063a005d3d211610088578063e30c397811610063578063e30c39781461035f578063f2fde38b1461037d578063ffa1ad7414610390575f5ffd5b8063a005d3d214610312578063a526d83b14610325578063ab583c1b14610338575f5ffd5b80638456cb59116100b85780638456cb59146102d257806384b0196e146102da5780638da5cb5b146102f5575f5ffd5b806379ba5097146102955780637ecebe001461029d575f5ffd5b80635c975abb11610127578063714041561161010d5780637140415614610272578063715018a61461028557806378e890ba1461028d575f5ffd5b80635c975abb1461023357806369615a4c14610256575f5ffd5b806322b1a4141161015757806322b1a414146101f55780633f4ba83a1461020a5780634980f28814610212575f5ffd5b80630633b14a14610172578063086b5198146101a9575b5f5ffd5b610194610180366004611410565b60026020525f908152604090205460ff1681565b60405190151581526020015b60405180910390f35b6101d07f000000000000000000000000000000000000000000000000000000000000000081565b60405173ffffffffffffffffffffffffffffffffffffffff90911681526020016101a0565b610208610203366004611491565b6103d9565b005b610208610494565b610225610220366004611522565b6104a6565b6040519081526020016101a0565b60015474010000000000000000000000000000000000000000900460ff16610194565b335f908152600560205260409020805460018101909155610225565b610208610280366004611410565b6104bb565b610208610536565b610225610547565b610208610550565b6102256102ab366004611410565b73ffffffffffffffffffffffffffffffffffffffff165f9081526005602052604090205490565b61020861060a565b6102e261067f565b6040516101a09796959493929190611585565b5f5473ffffffffffffffffffffffffffffffffffffffff166101d0565b610208610320366004611644565b610722565b610208610333366004611410565b61088b565b6102257f4b433bd06b4af9895086805d78f8acbe4b07223722f4feff3ee4393feb4fd75481565b60015473ffffffffffffffffffffffffffffffffffffffff166101d0565b61020861038b366004611410565b610909565b6103cc6040518060400160405280600a81526020017f323032332e31312e31350000000000000000000000000000000000000000000081525081565b6040516101a09190611720565b6103e16109b8565b6040517f207e3d6900000000000000000000000000000000000000000000000000000000815273ffffffffffffffffffffffffffffffffffffffff7f0000000000000000000000000000000000000000000000000000000000000000169063207e3d699061045f9033908a908a908a908a908a908a90600401611779565b5f604051808303815f87803b158015610476575f5ffd5b505af1158015610488573d5f5f3e3d5ffd5b50505050505050505050565b61049c610a3d565b6104a4610abd565b565b5f6104b082610b3a565b92915050565b905090565b6104c3610a3d565b73ffffffffffffffffffffffffffffffffffffffff81165f8181526002602052604080822080547fffffffffffffffffffffffffffffffffffffffffffffffffffffffffffffff00169055517fbe7c7ac3248df4581c206a84aab3cb4e7d521b5398b42b681757f78a5a7d411e9190a250565b61053e610a3d565b6104a45f610b81565b5f6104b6610bb2565b600154339073ffffffffffffffffffffffffffffffffffffffff1681146105fe576040517f08c379a000000000000000000000000000000000000000000000000000000000815260206004820152602960248201527f4f776e61626c6532537465703a2063616c6c6572206973206e6f74207468652060448201527f6e6577206f776e6572000000000000000000000000000000000000000000000060648201526084015b60405180910390fd5b61060781610b81565b50565b5f5473ffffffffffffffffffffffffffffffffffffffff1633148015906106405750335f9081526002602052604090205460ff16155b15610677576040517fcae1d95600000000000000000000000000000000000000000000000000000000815260040160405180910390fd5b6104a4610ce8565b5f606080828080836106b27f00000000000000000000000000000000000000000000000000000000000000006003610d57565b6106dd7f00000000000000000000000000000000000000000000000000000000000000006004610d57565b604080515f808252602082019092527f0f000000000000000000000000000000000000000000000000000000000000009b939a50919850469750309650945092509050565b61072a6109b8565b6107d48a8a8a8a8080601f0160208091040260200160405190810160405280939291908181526020018383808284375f9201919091525050604080516020601f8d018190048102820181019092528b81528d935091508b908b90819084018382808284375f9201919091525050604080516020601f8c018190048102820181019092528a81528c935091508a908a90819084018382808284375f92019190915250610e0192505050565b6040517f207e3d6900000000000000000000000000000000000000000000000000000000815273ffffffffffffffffffffffffffffffffffffffff7f0000000000000000000000000000000000000000000000000000000000000000169063207e3d6990610852908d908d908d908d908d908d908d90600401611779565b5f604051808303815f87803b158015610869575f5ffd5b505af115801561087b573d5f5f3e3d5ffd5b5050505050505050505050505050565b610893610a3d565b73ffffffffffffffffffffffffffffffffffffffff81165f8181526002602052604080822080547fffffffffffffffffffffffffffffffffffffffffffffffffffffffffffffff00166001179055517f87dc5eecd6d6bdeae407c426da6bfba5b7190befc554ed5d4d62dd5cf939fbae9190a250565b610911610a3d565b6001805473ffffffffffffffffffffffffffffffffffffffff83167fffffffffffffffffffffffff000000000000000000000000000000000000000090911681179091556109735f5473ffffffffffffffffffffffffffffffffffffffff1690565b73ffffffffffffffffffffffffffffffffffffffff167f38d16b8cac22d99fc7c124b9cd0de2d3fa1faef420bfe791d8c362d765e2270060405160405180910390a350565b60015474010000000000000000000000000000000000000000900460ff16156104a4576040517f08c379a000000000000000000000000000000000000000000000000000000000815260206004820152601060248201527f5061757361626c653a207061757365640000000000000000000000000000000060448201526064016105f5565b5f5473ffffffffffffffffffffffffffffffffffffffff1633146104a4576040517f08c379a000000000000000000000000000000000000000000000000000000000815260206004820181905260248201527f4f776e61626c653a2063616c6c6572206973206e6f7420746865206f776e657260448201526064016105f5565b610ac5610ef8565b600180547fffffffffffffffffffffff00ffffffffffffffffffffffffffffffffffffffff1690557f5db9ee0a495bf2e6ff9c91a7834c1ba4fdd244a5e8aa4e537bd38aeae4b073aa335b60405173ffffffffffffffffffffffffffffffffffffffff909116815260200160405180910390a1565b5f6104b0610b46610bb2565b836040517f19010000000000000000000000000000000000000000000000000000000000008152600281019290925260228201526042902090565b600180547fffffffffffffffffffffffff000000000000000000000000000000000000000016905561060781610f7c565b5f3073ffffffffffffffffffffffffffffffffffffffff7f000000000000000000000000000000000000000000000000000000000000000016148015610c1757507f000000000000000000000000000000000000000000000000000000000000000046145b15610c4157507f000000000000000000000000000000000000000000000000000000000000000090565b6104b6604080517f8b73c3c69bb8fe3d512ecc4cf759cc79239f7b179b0ffacaa9a75d522b39400f60208201527f0000000000000000000000000000000000000000000000000000000000000000918101919091527f000000000000000000000000000000000000000000000000000000000000000060608201524660808201523060a08201525f9060c00160405160208183030381529060405280519060200120905090565b610cf06109b8565b600180547fffffffffffffffffffffff00ffffffffffffffffffffffffffffffffffffffff16740100000000000000000000000000000000000000001790557f62e78cea01bee320cd4e420270b5ea74000d11b0c9f74754ebdbfc544b05a258610b103390565b606060ff8314610d7157610d6a83610ff0565b90506104b0565b818054610d7d906117de565b80601f0160208091040260200160405190810160405280929190818152602001828054610da9906117de565b8015610df45780601f10610dcb57610100808354040283529160200191610df4565b820191905f5260205f20905b815481529060010190602001808311610dd757829003601f168201915b5050505050905092915050565b610eef610ee77f4b433bd06b4af9895086805d78f8acbe4b07223722f4feff3ee4393feb4fd75489898980519060200120898980519060200120610e6e8f73ffffffffffffffffffffffffffffffffffffffff165f90815260056020526040902080546001810190915590565b60408051602081019890985273ffffffffffffffffffffffffffffffffffffffff9096169587019590955263ffffffff9093166060860152608085019190915260ff1660a084015260c083015260e082015261010081018590526101200160405160208183030381529060405280519060200120610b3a565b88848461102d565b50505050505050565b60015474010000000000000000000000000000000000000000900460ff166104a4576040517f08c379a000000000000000000000000000000000000000000000000000000000815260206004820152601460248201527f5061757361626c653a206e6f742070617573656400000000000000000000000060448201526064016105f5565b5f805473ffffffffffffffffffffffffffffffffffffffff8381167fffffffffffffffffffffffff0000000000000000000000000000000000000000831681178455604051919092169283917f8be0079c531659141344cd1fd0a4f28419497f9722a3daafe3b4186f6b6457e09190a35050565b60605f610ffc836110ae565b6040805160208082528183019092529192505f91906020820181803683375050509182525060208101929092525090565b81421115611067576040517f0819bdcd00000000000000000000000000000000000000000000000000000000815260040160405180910390fd5b6110728385836110ee565b6110a8576040517f8baa579f00000000000000000000000000000000000000000000000000000000815260040160405180910390fd5b50505050565b5f60ff8216601f8111156104b0576040517fb3512b0c00000000000000000000000000000000000000000000000000000000815260040160405180910390fd5b5f5f5f6110fb8585611166565b90925090505f8160048111156111135761111361182f565b14801561114b57508573ffffffffffffffffffffffffffffffffffffffff168273ffffffffffffffffffffffffffffffffffffffff16145b8061115c575061115c8686866111a8565b9695505050505050565b5f5f825160410361119a576020830151604084015160608501515f1a61118e87828585611300565b945094505050506111a1565b505f905060025b9250929050565b5f5f5f8573ffffffffffffffffffffffffffffffffffffffff16631626ba7e60e01b86866040516024016111dd92919061185c565b604080517fffffffffffffffffffffffffffffffffffffffffffffffffffffffffffffffe08184030181529181526020820180517bffffffffffffffffffffffffffffffffffffffffffffffffffffffff167fffffffff00000000000000000000000000000000000000000000000000000000909416939093179092529051611266919061187c565b5f60405180830381855afa9150503d805f811461129e576040519150601f19603f3d011682016040523d82523d5f602084013e6112a3565b606091505b50915091508180156112b757506020815110155b801561115c575080517f1626ba7e00000000000000000000000000000000000000000000000000000000906112f59083016020908101908401611892565b149695505050505050565b5f807f7fffffffffffffffffffffffffffffff5d576e7357a4501ddfe92f46681b20a083111561133557505f905060036113df565b604080515f8082526020820180845289905260ff881692820192909252606081018690526080810185905260019060a0016020604051602081039080840390855afa158015611386573d5f5f3e3d5ffd5b50506040517fffffffffffffffffffffffffffffffffffffffffffffffffffffffffffffffe0015191505073ffffffffffffffffffffffffffffffffffffffff81166113d9575f600192509250506113df565b91505f90505b94509492505050565b803573ffffffffffffffffffffffffffffffffffffffff8116811461140b575f5ffd5b919050565b5f60208284031215611420575f5ffd5b611429826113e8565b9392505050565b803563ffffffff8116811461140b575f5ffd5b5f5f83601f840112611453575f5ffd5b50813567ffffffffffffffff81111561146a575f5ffd5b6020830191508360208285010111156111a1575f5ffd5b803560ff8116811461140b575f5ffd5b5f5f5f5f5f5f608087890312156114a6575f5ffd5b6114af87611430565b9550602087013567ffffffffffffffff8111156114ca575f5ffd5b6114d689828a01611443565b90965094506114e9905060408801611481565b9250606087013567ffffffffffffffff811115611504575f5ffd5b61151089828a01611443565b979a9699509497509295939492505050565b5f60208284031215611532575f5ffd5b5035919050565b5f81518084528060208401602086015e5f6020828601015260207fffffffffffffffffffffffffffffffffffffffffffffffffffffffffffffffe0601f83011685010191505092915050565b7fff000000000000000000000000000000000000000000000000000000000000008816815260e060208201525f6115bf60e0830189611539565b82810360408401526115d18189611539565b6060840188905273ffffffffffffffffffffffffffffffffffffffff8716608085015260a0840186905283810360c0850152845180825260208087019350909101905f5b81811015611633578351835260209384019390920191600101611615565b50909b9a5050505050505050505050565b5f5f5f5f5f5f5f5f5f5f60e08b8d03121561165d575f5ffd5b6116668b6113e8565b995061167460208c01611430565b985060408b013567ffffffffffffffff81111561168f575f5ffd5b61169b8d828e01611443565b90995097506116ae905060608c01611481565b955060808b013567ffffffffffffffff8111156116c9575f5ffd5b6116d58d828e01611443565b90965094505060a08b0135925060c08b013567ffffffffffffffff8111156116fb575f5ffd5b6117078d828e01611443565b915080935050809150509295989b9194979a5092959850565b602081525f6114296020830184611539565b81835281816020850137505f602082840101525f60207fffffffffffffffffffffffffffffffffffffffffffffffffffffffffffffffe0601f840116840101905092915050565b73ffffffffffffffffffffffffffffffffffffffff8816815263ffffffff8716602082015260a060408201525f6117b460a083018789611732565b60ff8616606084015282810360808401526117d0818587611732565b9a9950505050505050505050565b600181811c908216806117f257607f821691505b602082108103611829577f4e487b71000000000000000000000000000000000000000000000000000000005f52602260045260245ffd5b50919050565b7f4e487b71000000000000000000000000000000000000000000000000000000005f52602160045260245ffd5b828152604060208201525f6118746040830184611539565b949350505050565b5f82518060208501845e5f920191825250919050565b5f602082840312156118a2575f5ffd5b505191905056fea164736f6c634300081d000a","linkReferences":{}},"methodIdentifiers":{"ADD_TYPEHASH()":"ab583c1b","VERSION()":"ffa1ad74","acceptOwnership()":"79ba5097","add(uint32,bytes,uint8,bytes)":"22b1a414","addFor(address,uint32,bytes,uint8,bytes,uint256,bytes)":"a005d3d2","addGuardian(address)":"a526d83b","domainSeparatorV4()":"78e890ba","eip712Domain()":"84b0196e","guardians(address)":"0633b14a","hashTypedDataV4(bytes32)":"4980f288","keyRegistry()":"086b5198","nonces(address)":"7ecebe00","owner()":"8da5cb5b","pause()":"8456cb59","paused()":"5c975abb","pendingOwner()":"e30c3978","removeGuardian(address)":"71404156","renounceOwnership()":"715018a6","transferOwnership(address)":"f2fde38b","unpause()":"3f4ba83a","useNonce()":"69615a4c"},"id":68}