{"abi":[{"type":"constructor","inputs":[{"name":"_idRegistry","type":"address","internalType":"address"},{"name":"_migrator","type":"address","internalType":"address"},{"name":"_initialOwner","type":"address","internalType":"address"},{"name":"_maxKeysPerFid","type":"uint256","internalType":"uint256"}],"stateMutability":"nonpayable"},{"type":"function","name":"REMOVE_TYPEHASH","inputs":[],"outputs":[{"name":"","type":"bytes32","internalType":"bytes32"}],"stateMutability":"view"},{"type":"function","name":"VERSION","inputs":[],"outputs":[{"name":"","type":"string","internalType":"string"}],"stateMutability":"view"},{"type":"function","name":"acceptOwnership","inputs":[],"outputs":[],"stateMutability":"nonpayable"},{"type":"function","name":"add","inputs":[{"name":"fidOwner","type":"address","internalType":"address"},{"name":"keyType","type":"uint32","internalType":"uint32"},{"name":"key","type":"bytes","internalType":"bytes"},{"name":"metadataType","type":"uint8","internalType":"uint8"},{"name":"metadata","type":"bytes","internalType":"bytes"}],"outputs":[],"stateMutability":"nonpayable"},{"type":"function","name":"addGuardian","inputs":[{"name":"guardian","type":"address","internalType":"address"}],"outputs":[],"stateMutability":"nonpayable"},{"type":"function","name":"bulkAddKeysForMigration","inputs":[{"name":"items","type":"tuple[]","internalType":"struct IKeyRegistry.BulkAddData[]","components":[{"name":"fid","type":"uint256","internalType":"uint256"},{"name":"keys","type":"tuple[]","internalType":"struct IKeyRegistry.BulkAddKey[]","components":[{"name":"key","type":"bytes","internalType":"bytes"},{"name":"metadata","type":"bytes","internalType":"bytes"}]}]}],"outputs":[],"stateMutability":"nonpayable"},{"type":"function","name":"bulkResetKeysForMigration","inputs":[{"name":"items","type":"tuple[]","internalType":"struct IKeyRegistry.BulkResetData[]","components":[{"name":"fid","type":"uint256","internalType":"uint256"},{"name":"keys","type":"bytes[]","internalType":"bytes[]"}]}],"outputs":[],"stateMutability":"nonpayable"},{"type":"function","name":"domainSeparatorV4","inputs":[],"outputs":[{"name":"","type":"bytes32","internalType":"bytes32"}],"stateMutability":"view"},{"type":"function","name":"eip712Domain","inputs":[],"outputs":[{"name":"fields","type":"bytes1","internalType":"bytes1"},{"name":"name","type":"string","internalType":"string"},{"name":"version","type":"string","internalType":"string"},{"name":"chainId","type":"uint256","internalType":"uint256"},{"name":"verifyingContract","type":"address","internalType":"address"},{"name":"salt","type":"bytes32","internalType":"bytes32"},{"name":"extensions","type":"uint256[]","internalType":"uint256[]"}],"stateMutability":"view"},{"type":"function","name":"freezeKeyGateway","inputs":[],"outputs":[],"stateMutability":"nonpayable"},{"type":"function","name":"gatewayFrozen","inputs":[],"outputs":[{"name":"","type":"bool","internalType":"bool"}],"stateMutability":"view"},{"type":"function","name":"gracePeriod","inputs":[],"outputs":[{"name":"","type":"uint24","internalType":"uint24"}],"stateMutability":"view"},{"type":"function","name":"guardians","inputs":[{"name":"guardian","type":"address","internalType":"address"}],"outputs":[{"name":"isGuardian","type":"bool","internalType":"bool"}],"stateMutability":"view"},{"type":"function","name":"hashTypedDataV4","inputs":[{"name":"structHash","type":"bytes32","internalType":"bytes32"}],"outputs":[{"name":"","type":"bytes32","internalType":"bytes32"}],"stateMutability":"view"},{"type":"function","name":"idRegistry","inputs":[],"outputs":[{"name":"","type":"address","internalType":"contract IdRegistryLike"}],"stateMutability":"view"},{"type":"function","name":"isMigrated","inputs":[],"outputs":[{"name":"","type":"bool","internalType":"bool"}],"stateMutability":"view"},{"type":"function","name":"keyAt","inputs":[{"name":"fid","type":"uint256","internalType":"uint256"},{"name":"state","type":"uint8","internalType":"enum IKeyRegistry.KeyState"},{"name":"index","type":"uint256","internalType":"uint256"}],"outputs":[{"name":"","type":"bytes","internalType":"bytes"}],"stateMutability":"view"},{"type":"function","name":"keyDataOf","inputs":[{"name":"fid","type":"uint256","internalType":"uint256"},{"name":"key","type":"bytes","internalType":"bytes"}],"outputs":[{"name":"","type":"tuple","internalType":"struct IKeyRegistry.KeyData","components":[{"name":"state","type":"uint8","internalType":"enum IKeyRegistry.KeyState"},{"name":"keyType","type":"uint32","internalType":"uint32"}]}],"stateMutability":"view"},{"type":"function","name":"keyGateway","inputs":[],"outputs":[{"name":"","type":"address","internalType":"address"}],"stateMutability":"view"},{"type":"function","name":"keys","inputs":[{"name":"fid","type":"uint256","internalType":"uint256"},{"name":"key","type":"bytes","internalType":"bytes"}],"outputs":[{"name":"state","type":"uint8","internalType":"enum IKeyRegistry.KeyState"},{"name":"keyType","type":"uint32","internalType":"uint32"}],"stateMutability":"view"},{"type":"function","name":"keysOf","inputs":[{"name":"fid","type":"uint256","internalType":"uint256"},{"name":"state","type":"uint8","internalType":"enum IKeyRegistry.KeyState"}],"outputs":[{"name":"","type":"bytes[]","internalType":"bytes[]"}],"stateMutability":"view"},{"type":"function","name":"keysOf","inputs":[{"name":"fid","type":"uint256","internalType":"uint256"},{"name":"state","type":"uint8","internalType":"enum IKeyRegistry.KeyState"},{"name":"startIdx","type":"uint256","internalType":"uint256"},{"name":"batchSize","type":"uint256","internalType":"uint256"}],"outputs":[{"name":"page","type":"bytes[]","internalType":"bytes[]"},{"name":"nextIdx","type":"uint256","internalType":"uint256"}],"stateMutability":"view"},{"type":"function","name":"maxKeysPerFid","inputs":[],"outputs":[{"name":"","type":"uint256","internalType":"uint256"}],"stateMutability":"view"},{"type":"function","name":"migrate","inputs":[],"outputs":[],"stateMutability":"nonpayable"},{"type":"function","name":"migratedAt","inputs":[],"outputs":[{"name":"","type":"uint40","internalType":"uint40"}],"stateMutability":"view"},{"type":"function","name":"migrator","inputs":[],"outputs":[{"name":"","type":"address","internalType":"address"}],"stateMutability":"view"},{"type":"function","name":"nonces","inputs":[{"name":"owner","type":"address","internalType":"address"}],"outputs":[{"name":"","type":"uint256","internalType":"uint256"}],"stateMutability":"view"},{"type":"function","name":"owner","inputs":[],"outputs":[{"name":"","type":"address","internalType":"address"}],"stateMutability":"view"},{"type":"function","name":"pause","inputs":[],"outputs":[],"stateMutability":"nonpayable"},{"type":"function","name":"paused","inputs":[],"outputs":[{"name":"","type":"bool","internalType":"bool"}],"stateMutability":"view"},{"type":"function","name":"pendingOwner","inputs":[],"outputs":[{"name":"","type":"address","internalType":"address"}],"stateMutability":"view"},{"type":"function","name":"remove","inputs":[{"name":"key","type":"bytes","internalType":"bytes"}],"outputs":[],"stateMutability":"nonpayable"},{"type":"function","name":"removeFor","inputs":[{"name":"fidOwner","type":"address","internalType":"address"},{"name":"key","type":"bytes","internalType":"bytes"},{"name":"deadline","type":"uint256","internalType":"uint256"},{"name":"sig","type":"bytes","internalType":"bytes"}],"outputs":[],"stateMutability":"nonpayable"},{"type":"function","name":"removeGuardian","inputs":[{"name":"guardian","type":"address","internalType":"address"}],"outputs":[],"stateMutability":"nonpayable"},{"type":"function","name":"renounceOwnership","inputs":[],"outputs":[],"stateMutability":"nonpayable"},{"type":"function","name":"setIdRegistry","inputs":[{"name":"_idRegistry","type":"address","internalType":"address"}],"outputs":[],"stateMutability":"nonpayable"},{"type":"function","name":"setKeyGateway","inputs":[{"name":"_keyGateway","type":"address","internalType":"address"}],"outputs":[],"stateMutability":"nonpayable"},{"type":"function","name":"setMaxKeysPerFid","inputs":[{"name":"_maxKeysPerFid","type":"uint256","internalType":"uint256"}],"outputs":[],"stateMutability":"nonpayable"},{"type":"function","name":"setMigrator","inputs":[{"name":"_migrator","type":"address","internalType":"address"}],"outputs":[],"stateMutability":"nonpayable"},{"type":"function","name":"setValidator","inputs":[{"name":"keyType","type":"uint32","internalType":"uint32"},{"name":"metadataType","type":"uint8","internalType":"uint8"},{"name":"validator","type":"address","internalType":"contract IMetadataValidator"}],"outputs":[],"stateMutability":"nonpayable"},{"type":"function","name":"totalKeys","inputs":[{"name":"fid","type":"uint256","internalType":"uint256"},{"name":"state","type":"uint8","internalType":"enum IKeyRegistry.KeyState"}],"outputs":[{"name":"","type":"uint256","internalType":"uint256"}],"stateMutability":"view"},{"type":"function","name":"transferOwnership","inputs":[{"name":"newOwner","type":"address","internalType":"address"}],"outputs":[],"stateMutability":"nonpayable"},{"type":"function","name":"unpause","inputs":[],"outputs":[],"stateMutability":"nonpayable"},{"type":"function","name":"useNonce","inputs":[],"outputs":[{"name":"","type":"uint256","internalType":"uint256"}],"stateMutability":"nonpayable"},{"type":"function","name":"validators","inputs":[{"name":"keyType","type":"uint32","internalType":"uint32"},{"name":"metadataType","type":"uint8","internalType":"uint8"}],"outputs":[{"name":"validator","type":"address","internalType":"contract IMetadataValidator"}],"stateMutability":"view"},{"type":"event","name":"Add","inputs":[{"name":"fid","type":"uint256","indexed":true,"internalType":"uint256"},{"name":"keyType","type":"uint32","indexed":true,"internalType":"uint32"},{"name":"key","type":"bytes","indexed":true,"internalType":"bytes"},{"name":"keyBytes","type":"bytes","indexed":false,"internalType":"bytes"},{"name":"metadataType","type":"uint8","indexed":false,"internalType":"uint8"},{"name":"metadata","type":"bytes","indexed":false,"internalType":"bytes"}],"anonymous":false},{"type":"event","name":"Add","inputs":[{"name":"guardian","type":"address","indexed":true,"internalType":"address"}],"anonymous":false},{"type":"event","name":"AdminReset","inputs":[{"name":"fid","type":"uint256","indexed":true,"internalType":"uint256"},{"name":"key","type":"bytes","indexed":true,"internalType":"bytes"},{"name":"keyBytes","type":"bytes","indexed":false,"internalType":"bytes"}],"anonymous":false},{"type":"event","name":"EIP712DomainChanged","inputs":[],"anonymous":false},{"type":"event","name":"FreezeKeyGateway","inputs":[{"name":"keyGateway","type":"address","indexed":false,"internalType":"address"}],"anonymous":false},{"type":"event","name":"Migrated","inputs":[{"name":"migratedAt","type":"uint256","indexed":true,"internalType":"uint256"}],"anonymous":false},{"type":"event","name":"OwnershipTransferStarted","inputs":[{"name":"previousOwner","type":"address","indexed":true,"internalType":"address"},{"name":"newOwner","type":"address","indexed":true,"internalType":"address"}],"anonymous":false},{"type":"event","name":"OwnershipTransferred","inputs":[{"name":"previousOwner","type":"address","indexed":true,"internalType":"address"},{"name":"newOwner","type":"address","indexed":true,"internalType":"address"}],"anonymous":false},{"type":"event","name":"Paused","inputs":[{"name":"account","type":"address","indexed":false,"internalType":"address"}],"anonymous":false},{"type":"event","name":"Remove","inputs":[{"name":"fid","type":"uint256","indexed":true,"internalType":"uint256"},{"name":"key","type":"bytes","indexed":true,"internalType":"bytes"},{"name":"keyBytes","type":"bytes","indexed":false,"internalType":"bytes"}],"anonymous":false},{"type":"event","name":"Remove","inputs":[{"name":"guardian","type":"address","indexed":true,"internalType":"address"}],"anonymous":false},{"type":"event","name":"SetIdRegistry","inputs":[{"name":"oldIdRegistry","type":"address","indexed":false,"internalType":"address"},{"name":"newIdRegistry","type":"address","indexed":false,"internalType":"address"}],"anonymous":false},{"type":"event","name":"SetKeyGateway","inputs":[{"name":"oldKeyGateway","type":"address","indexed":false,"internalType":"address"},{"name":"newKeyGateway","type":"address","indexed":false,"internalType":"address"}],"anonymous":false},{"type":"event","name":"SetMaxKeysPerFid","inputs":[{"name":"oldMax","type":"uint256","indexed":false,"internalType":"uint256"},{"name":"newMax","type":"uint256","indexed":false,"internalType":"uint256"}],"anonymous":false},{"type":"event","name":"SetMigrator","inputs":[{"name":"oldMigrator","type":"address","indexed":false,"internalType":"address"},{"name":"newMigrator","type":"address","indexed":false,"internalType":"address"}],"anonymous":false},{"type":"event","name":"SetValidator","inputs":[{"name":"keyType","type":"uint32","indexed":false,"internalType":"uint32"},{"name":"metadataType","type":"uint8","indexed":false,"internalType":"uint8"},{"name":"oldValidator","type":"address","indexed":false,"internalType":"address"},{"name":"newValidator","type":"address","indexed":false,"internalType":"address"}],"anonymous":false},{"type":"event","name":"Unpaused","inputs":[{"name":"account","type":"address","indexed":false,"internalType":"address"}],"anonymous":false},{"type":"error","name":"AlreadyMigrated","inputs":[]},{"type":"error","name":"ExceedsMaximum","inputs":[]},{"type":"error","name":"GatewayFrozen","inputs":[]},{"type":"error","name":"InvalidAccountNonce","inputs":[{"name":"account","type":"address","internalType":"address"},{"name":"currentNonce","type":"uint256","internalType":"uint256"}]},{"type":"error","name":"InvalidKeyType","inputs":[]},{"type":"error","name":"InvalidMaxKeys","inputs":[]},{"type":"error","name":"InvalidMetadata","inputs":[]},{"type":"error","name":"InvalidMetadataType","inputs":[]},{"type":"error","name":"InvalidShortString","inputs":[]},{"type":"error","name":"InvalidSignature","inputs":[]},{"type":"error","name":"InvalidState","inputs":[]},{"type":"error","name":"OnlyGuardian","inputs":[]},{"type":"error","name":"OnlyMigrator","inputs":[]},{"type":"error","name":"PermissionRevoked","inputs":[]},{"type":"error","name":"SignatureExpired","inputs":[]},{"type":"error","name":"StringTooLong","inputs":[{"name":"str","type":"string","internalType":"string"}]},{"type":"error","name":"Unauthorized","inputs":[]},{"type":"error","name":"ValidatorNotFound","inputs":[{"name":"keyType","type":"uint32","internalType":"uint32"},{"name":"metadataType","type":"uint8","internalType":"uint8"}]}],"bytecode":{"object":"0x610180604052348015610010575f5ffd5b506040516141d23803806141d283398101604081905261002f91610428565b6040518060400160405280601581526020017f466172636173746572204b657952656769737472790000000000000000000000815250604051806040016040528060018152602001603160f81b81525081816201518087878061009e61009961027560201b60201c565b610279565b6001805460ff60a01b191690556100b481610279565b5062ffffff8316608052600380546001600160a01b0319166001600160a01b038416908117909155604080515f815260208101929092527fd8ad954fe808212ab9ed7139873e40807dff7995fe36e3d6cdeb8fa00fcebf10910160405180910390a161011e610295565b5061012e915083905060046102f5565b6101405261013d8160056102f5565b61016052815160208084019190912061010052815190820120610120524660c0526101cb6101005161012051604080517f8b73c3c69bb8fe3d512ecc4cf759cc79239f7b179b0ffacaa9a75d522b39400f60208201529081019290925260608201524660808201523060a08201525f9060c00160405160208183030381529060405280519060200120905090565b60a05250503060e0525050600780546001600160a01b0319166001600160a01b0386169081179091556009829055604080515f815260208101929092527f940dcf34ec2e245e837ee4599997e577ce274d7b87c73238e2878ac7ea1af2f1910160405180910390a1604080515f8152602081018390527f6c336d0e5e74bb26a5e2d4646801801837b0fdbaddd9131923fd42d740449731910160405180910390a15050505061061a565b3390565b600180546001600160a01b031916905561029281610327565b50565b61029d610376565b6001805460ff60a01b1916600160a01b1790557f62e78cea01bee320cd4e420270b5ea74000d11b0c9f74754ebdbfc544b05a2586102d83390565b6040516001600160a01b03909116815260200160405180910390a1565b5f60208351101561031057610309836103d0565b9050610321565b8161031b8482610508565b5060ff90505b92915050565b5f80546001600160a01b038381166001600160a01b0319831681178455604051919092169283917f8be0079c531659141344cd1fd0a4f28419497f9722a3daafe3b4186f6b6457e09190a35050565b610389600154600160a01b900460ff1690565b156103ce5760405162461bcd60e51b815260206004820152601060248201526f14185d5cd8589b194e881c185d5cd95960821b60448201526064015b60405180910390fd5b565b5f5f829050601f815111156103fa578260405163305a27a960e01b81526004016103c591906105c2565b8051610405826105f7565b179392505050565b80516001600160a01b0381168114610423575f5ffd5b919050565b5f5f5f5f6080858703121561043b575f5ffd5b6104448561040d565b93506104526020860161040d565b92506104606040860161040d565b6060959095015193969295505050565b634e487b7160e01b5f52604160045260245ffd5b600181811c9082168061049857607f821691505b6020821081036104b657634e487b7160e01b5f52602260045260245ffd5b50919050565b601f82111561050357805f5260205f20601f840160051c810160208510156104e15750805b601f840160051c820191505b81811015610500575f81556001016104ed565b50505b505050565b81516001600160401b0381111561052157610521610470565b6105358161052f8454610484565b846104bc565b6020601f821160018114610567575f83156105505750848201515b5f19600385901b1c1916600184901b178455610500565b5f84815260208120601f198516915b828110156105965787850151825560209485019460019092019101610576565b50848210156105b357868401515f19600387901b60f8161c191681555b50505050600190811b01905550565b602081525f82518060208401528060208501604085015e5f604082850101526040601f19601f83011684010191505092915050565b805160208083015191908110156104b6575f1960209190910360031b1b16919050565b60805160a05160c05160e05161010051610120516101405161016051613b4f6106835f395f61130501525f6112da01525f61253301525f61250b01525f61246601525f61249001525f6124ba01525f818161067501528181610be80152610ec30152613b4f5ff3fe608060405234801561000f575f5ffd5b50600436106102ee575f3560e01c80637cd07e4711610192578063a526d83b116100e8578063d881039511610093578063f27995e31161006e578063f27995e3146107bb578063f2fde38b146107dc578063ffa1ad74146107ef575f5ffd5b8063d881039514610754578063e30c397814610794578063e33acf38146107b2575f5ffd5b8063b221dac4116100c3578063b221dac414610707578063b57755611461071a578063d4c0480914610741575f5ffd5b8063a526d83b146106ab578063ac34cc5a146106be578063b06faf62146106de575f5ffd5b806384b0196e116101485780638fd3ab80116101235780638fd3ab801461064357806395e7549f1461064b578063a06db7dc14610670575f5ffd5b806384b0196e146105cc5780638b21e484146105e75780638da5cb5b14610626575f5ffd5b80638033473711610178578063803347371461059157806381749468146105b15780638456cb59146105c4575f5ffd5b80637cd07e471461053c5780637ecebe001461055c575f5ffd5b80634980f28811610247578063708e9c70116101fd578063787bd966116101d8578063787bd9661461051957806378e890ba1461052c57806379ba509714610534575f5ffd5b8063708e9c70146104eb57806371404156146104fe578063715018a614610511575f5ffd5b80635c975abb1161022d5780635c975abb146104995780636840b75e146104bc57806369615a4c146104cf575f5ffd5b80634980f2881461046557806358edef4c14610486575f5ffd5b8063207e3d69116102a75780633f4ba83a116102825780633f4ba83a1461044257806346b3f4291461044a57806347cf8d4d1461045d575f5ffd5b8063207e3d691461040757806323cf31181461041c578063368ab6101461042f575f5ffd5b80630e24e34c116102d75780630e24e34c1461036e5780630ea9442c146103c75780631f64222f146103e7575f5ffd5b80630633b14a146102f25780630aa13b8c14610329575b5f5ffd5b610314610300366004612e13565b60026020525f908152604090205460ff1681565b60405190151581526020015b60405180910390f35b6007546103499073ffffffffffffffffffffffffffffffffffffffff1681565b60405173ffffffffffffffffffffffffffffffffffffffff9091168152602001610320565b6103b961037c366004612e5b565b600c60209081525f9283526040909220815180830184018051928152908401929093019190912091525460ff811690610100900463ffffffff1682565b604051610320929190612fbb565b6103da6103d5366004612fea565b61082b565b6040516103209190613069565b6103fa6103f536600461307b565b61084b565b604051610320919061311d565b61041a610415366004613190565b610868565b005b61041a61042a366004612e13565b6108e1565b61041a61043d366004613233565b6109e5565b61041a610b51565b61041a6104583660046132b8565b610b63565b61041a610d13565b6104786104733660046132f7565b610dfe565b604051908152602001610320565b61041a61049436600461330e565b610e08565b60015474010000000000000000000000000000000000000000900460ff16610314565b6104786104ca36600461307b565b610e27565b335f908152600660205260409020805460018101909155610478565b61041a6104f93660046132b8565b610e3e565b61041a61050c366004612e13565b611035565b61041a6110b0565b61041a610527366004613341565b6110c1565b6104786110f2565b61041a6110fb565b6003546103499073ffffffffffffffffffffffffffffffffffffffff1681565b61047861056a366004612e13565b73ffffffffffffffffffffffffffffffffffffffff165f9081526006602052604090205490565b6008546103499073ffffffffffffffffffffffffffffffffffffffff1681565b61041a6105bf366004612e13565b6111b5565b61041a611258565b6105d46112cd565b60405161032097969594939291906133cc565b6003546106109074010000000000000000000000000000000000000000900464ffffffffff1681565b60405164ffffffffff9091168152602001610320565b5f5473ffffffffffffffffffffffffffffffffffffffff16610349565b61041a611370565b6008546103149074010000000000000000000000000000000000000000900460ff1681565b6106977f000000000000000000000000000000000000000000000000000000000000000081565b60405162ffffff9091168152602001610320565b61041a6106b9366004612e13565b6114a0565b6106d16106cc36600461348b565b61151e565b60405161032091906134d3565b60035474010000000000000000000000000000000000000000900464ffffffffff161515610314565b61041a610715366004612e13565b6115ab565b6104787f32e091a0c6fc95c826855f4e40ebda4957b528bd84c9062416ceb903082dabe481565b61041a61074f3660046132f7565b6116a3565b6103496107623660046134f9565b600d60209081525f928352604080842090915290825290205473ffffffffffffffffffffffffffffffffffffffff1681565b60015473ffffffffffffffffffffffffffffffffffffffff16610349565b61047860095481565b6107ce6107c9366004613521565b611727565b604051610320929190613559565b61041a6107ea366004612e13565b611857565b6103da6040518060400160405280600a81526020017f323032332e31312e31350000000000000000000000000000000000000000000081525081565b60606108418261083b8686611906565b90611991565b90505b9392505050565b606061085f61085a8484611906565b611a3e565b90505b92915050565b610870611b15565b60085473ffffffffffffffffffffffffffffffffffffffff1633146108c1576040517f82b4290000000000000000000000000000000000000000000000000000000000815260040160405180910390fd5b6108d86108cd88611b9a565b878787878787611c6c565b50505050505050565b6108e9611c7d565b60035474010000000000000000000000000000000000000000900464ffffffffff1615610942576040517fca1c3cbc00000000000000000000000000000000000000000000000000000000815260040160405180910390fd5b61094a611cfd565b6003546040805173ffffffffffffffffffffffffffffffffffffffff928316815291831660208301527fd8ad954fe808212ab9ed7139873e40807dff7995fe36e3d6cdeb8fa00fcebf10910160405180910390a1600380547fffffffffffffffffffffffff00000000000000000000000000000000000000001673ffffffffffffffffffffffffffffffffffffffff92909216919091179055565b6109ed611c7d565b8263ffffffff165f03610a2c576040517f36dccb4400000000000000000000000000000000000000000000000000000000815260040160405180910390fd5b8160ff165f03610a68576040517f5110099800000000000000000000000000000000000000000000000000000000815260040160405180910390fd5b63ffffffff83165f818152600d6020908152604080832060ff8716808552908352928190205481519485529184019290925273ffffffffffffffffffffffffffffffffffffffff9081168383015283166060830152517fd964242236f6208120d76a25cd886db49c82403f50d88dfd1bc865ee60ad462d9181900360800190a163ffffffff9092165f908152600d6020908152604080832060ff909416835292905220805473ffffffffffffffffffffffffffffffffffffffff9092167fffffffffffffffffffffffff0000000000000000000000000000000000000000909216919091179055565b610b59611c7d565b610b61611d81565b565b60035473ffffffffffffffffffffffffffffffffffffffff163314610bb4576040517f8020644900000000000000000000000000000000000000000000000000000000815260040160405180910390fd5b60035474010000000000000000000000000000000000000000900464ffffffffff1615158015610c3b5750600354610c31907f000000000000000000000000000000000000000000000000000000000000000062ffffff169074010000000000000000000000000000000000000000900464ffffffffff166135a7565b64ffffffffff1642115b15610c72576040517fca0dc97b00000000000000000000000000000000000000000000000000000000815260040160405180910390fd5b610c7a611cfd565b5f5b81811015610d0e5736838383818110610c9757610c976135c4565b9050602002810190610ca991906135f1565b90505f5b610cba602083018361362d565b9050811015610d0457610cfc8235610cd5602085018561362d565b84818110610ce557610ce56135c4565b9050602002810190610cf79190613691565b611dfe565b600101610cad565b5050600101610c7c565b505050565b610d1b611c7d565b60085474010000000000000000000000000000000000000000900460ff1615610d70576040517f351f92c500000000000000000000000000000000000000000000000000000000815260040160405180910390fd5b60085460405173ffffffffffffffffffffffffffffffffffffffff90911681527fcb685c7ba5a65fe9e6be9b7decbb5dc8ebba92bcae3cb09fc2a5a075b1eb57729060200160405180910390a1600880547fffffffffffffffffffffff00ffffffffffffffffffffffffffffffffffffffff1674010000000000000000000000000000000000000000179055565b5f61086282611f04565b610e10611b15565b610e23610e1c33611b9a565b8383611f4b565b5050565b5f61085f610e358484611906565b5490565b905090565b60035473ffffffffffffffffffffffffffffffffffffffff163314610e8f576040517f8020644900000000000000000000000000000000000000000000000000000000815260040160405180910390fd5b60035474010000000000000000000000000000000000000000900464ffffffffff1615158015610f165750600354610f0c907f000000000000000000000000000000000000000000000000000000000000000062ffffff169074010000000000000000000000000000000000000000900464ffffffffff166135a7565b64ffffffffff1642115b15610f4d576040517fca0dc97b00000000000000000000000000000000000000000000000000000000815260040160405180910390fd5b610f55611cfd565b5f5b81811015610d0e5736838383818110610f7257610f726135c4565b9050602002810190610f8491906135f1565b90505f5b610f95602083018361362d565b905081101561102b5761102382356001610fb2602086018661362d565b85818110610fc257610fc26135c4565b9050602002810190610fd491906135f1565b610fde9080613691565b6001610fed602089018961362d565b88818110610ffd57610ffd6135c4565b905060200281019061100f91906135f1565b61101d906020810190613691565b5f612046565b600101610f88565b5050600101610f57565b61103d611c7d565b73ffffffffffffffffffffffffffffffffffffffff81165f8181526002602052604080822080547fffffffffffffffffffffffffffffffffffffffffffffffffffffffffffffff00169055517fbe7c7ac3248df4581c206a84aab3cb4e7d521b5398b42b681757f78a5a7d411e9190a250565b6110b8611c7d565b610b615f612312565b6110c9611b15565b6110d7868686868686612343565b6110ea6110e387611b9a565b8686611f4b565b505050505050565b5f610e3961244d565b600154339073ffffffffffffffffffffffffffffffffffffffff1681146111a9576040517f08c379a000000000000000000000000000000000000000000000000000000000815260206004820152602960248201527f4f776e61626c6532537465703a2063616c6c6572206973206e6f74207468652060448201527f6e6577206f776e6572000000000000000000000000000000000000000000000060648201526084015b60405180910390fd5b6111b281612312565b50565b6111bd611c7d565b6007546040805173ffffffffffffffffffffffffffffffffffffffff928316815291831660208301527f940dcf34ec2e245e837ee4599997e577ce274d7b87c73238e2878ac7ea1af2f1910160405180910390a1600780547fffffffffffffffffffffffff00000000000000000000000000000000000000001673ffffffffffffffffffffffffffffffffffffffff92909216919091179055565b5f5473ffffffffffffffffffffffffffffffffffffffff16331480159061128e5750335f9081526002602052604090205460ff16155b156112c5576040517fcae1d95600000000000000000000000000000000000000000000000000000000815260040160405180910390fd5b610b61612583565b5f606080828080836113007f000000000000000000000000000000000000000000000000000000000000000060046125f2565b61132b7f000000000000000000000000000000000000000000000000000000000000000060056125f2565b604080515f808252602082019092527f0f000000000000000000000000000000000000000000000000000000000000009b939a50919850469750309650945092509050565b60035473ffffffffffffffffffffffffffffffffffffffff1633146113c1576040517f8020644900000000000000000000000000000000000000000000000000000000815260040160405180910390fd5b60035474010000000000000000000000000000000000000000900464ffffffffff161561141a576040517fca1c3cbc00000000000000000000000000000000000000000000000000000000815260040160405180910390fd5b611422611cfd565b600380547fffffffffffffff0000000000ffffffffffffffffffffffffffffffffffffffff16740100000000000000000000000000000000000000004264ffffffffff90811682029290921792839055604051920416907fe4a25c0c2cbe89d6ad8b64c61a7dbdd20d1f781f6023f1ab94ebb7fe0aef6ab8905f90a2565b6114a8611c7d565b73ffffffffffffffffffffffffffffffffffffffff81165f8181526002602052604080822080547fffffffffffffffffffffffffffffffffffffffffffffffffffffffffffffff00166001179055517f87dc5eecd6d6bdeae407c426da6bfba5b7190befc554ed5d4d62dd5cf939fbae9190a250565b604080518082019091525f80825260208201525f848152600c602052604090819020905161154f90859085906136f2565b908152604080519182900360200182208282019091528054829060ff16600281111561157d5761157d612f55565b600281111561158e5761158e612f55565b81529054610100900463ffffffff16602090910152949350505050565b6115b3611c7d565b60085474010000000000000000000000000000000000000000900460ff1615611608576040517f351f92c500000000000000000000000000000000000000000000000000000000815260040160405180910390fd5b6008546040805173ffffffffffffffffffffffffffffffffffffffff928316815291831660208301527f56785750704201befc0a27dae1e5d37835a8ad6e35affc87136ed24d1ac694ac910160405180910390a1600880547fffffffffffffffffffffffff00000000000000000000000000000000000000001673ffffffffffffffffffffffffffffffffffffffff92909216919091179055565b6116ab611c7d565b60095481116116e6576040517fc5ce0d9800000000000000000000000000000000000000000000000000000000815260040160405180910390fd5b60095460408051918252602082018390527f6c336d0e5e74bb26a5e2d4646801801837b0fdbaddd9131923fd42d740449731910160405180910390a1600955565b60605f5f6117358787611906565b90505f611740825490565b905080861061178057604080515f8082526020820190925290611773565b606081526020019060019003908161175e5790505b505f93509350505061184e565b5f61178b8783613701565b90505f86821061179b578661179d565b815b90508067ffffffffffffffff8111156117b8576117b8612e2e565b6040519080825280602002602001820160405280156117eb57816020015b60608152602001906001900390816117d65790505b5095505f5b818110156118315761180c611805828b613714565b8690611991565b87828151811061181e5761181e6135c4565b60209081029190910101526001016117f0565b5061183c8189613714565b9450828510611849575f94505b505050505b94509492505050565b61185f611c7d565b6001805473ffffffffffffffffffffffffffffffffffffffff83167fffffffffffffffffffffffff000000000000000000000000000000000000000090911681179091556118c15f5473ffffffffffffffffffffffffffffffffffffffff1690565b73ffffffffffffffffffffffffffffffffffffffff167f38d16b8cac22d99fc7c124b9cd0de2d3fa1faef420bfe791d8c362d765e2270060405160405180910390a350565b5f600182600281111561191b5761191b612f55565b0361193357505f828152600a60205260409020610862565b600282600281111561194757611947612f55565b0361195f57505f828152600b60205260409020610862565b6040517fbaf3f0f700000000000000000000000000000000000000000000000000000000815260040160405180910390fd5b6060825f0182815481106119a7576119a76135c4565b905f5260205f200180546119ba90613727565b80601f01602080910402602001604051908101604052809291908181526020018280546119e690613727565b8015611a315780601f10611a0857610100808354040283529160200191611a31565b820191905f5260205f20905b815481529060010190602001808311611a1457829003601f168201915b5050505050905092915050565b6060815f01805480602002602001604051908101604052809291908181526020015f905b82821015611b0a578382905f5260205f20018054611a7f90613727565b80601f0160208091040260200160405190810160405280929190818152602001828054611aab90613727565b8015611af65780601f10611acd57610100808354040283529160200191611af6565b820191905f5260205f20905b815481529060010190602001808311611ad957829003601f168201915b505050505081526020019060010190611a62565b505050509050919050565b60015474010000000000000000000000000000000000000000900460ff1615610b61576040517f08c379a000000000000000000000000000000000000000000000000000000000815260206004820152601060248201527f5061757361626c653a207061757365640000000000000000000000000000000060448201526064016111a0565b6007546040517fd94fe83200000000000000000000000000000000000000000000000000000000815273ffffffffffffffffffffffffffffffffffffffff83811660048301525f92169063d94fe83290602401602060405180830381865afa158015611c08573d5f5f3e3d5ffd5b505050506040513d601f19601f82011682018060405250810190611c2c9190613778565b9050805f03611c67576040517f82b4290000000000000000000000000000000000000000000000000000000000815260040160405180910390fd5b919050565b6108d8878787878787876001612046565b5f5473ffffffffffffffffffffffffffffffffffffffff163314610b61576040517f08c379a000000000000000000000000000000000000000000000000000000000815260206004820181905260248201527f4f776e61626c653a2063616c6c6572206973206e6f7420746865206f776e657260448201526064016111a0565b60015474010000000000000000000000000000000000000000900460ff16610b61576040517f08c379a000000000000000000000000000000000000000000000000000000000815260206004820152601460248201527f5061757361626c653a206e6f742070617573656400000000000000000000000060448201526064016111a0565b611d89611cfd565b600180547fffffffffffffffffffffff00ffffffffffffffffffffffffffffffffffffffff1690557f5db9ee0a495bf2e6ff9c91a7834c1ba4fdd244a5e8aa4e537bd38aeae4b073aa335b60405173ffffffffffffffffffffffffffffffffffffffff909116815260200160405180910390a1565b5f838152600c60205260408082209051611e1b90859085906136f2565b90815260405190819003602001902090506001815460ff166002811115611e4457611e44612f55565b14611e7b576040517fbaf3f0f700000000000000000000000000000000000000000000000000000000815260040160405180910390fd5b611e8684848461269b565b80547fffffffffffffffffffffffffffffffffffffffffffffffffffffff0000000000168155604051611ebc90849084906136f2565b6040518091039020847f1ecc1009ebad5d2fb61239462f4f9f6f152662defe1845fc87f07d96bd1c60b48585604051611ef69291906137d6565b60405180910390a350505050565b5f610862611f1061244d565b836040517f19010000000000000000000000000000000000000000000000000000000000008152600281019290925260228201526042902090565b5f838152600c60205260408082209051611f6890859085906136f2565b90815260405190819003602001902090506001815460ff166002811115611f9157611f91612f55565b14611fc8576040517fbaf3f0f700000000000000000000000000000000000000000000000000000000815260040160405180910390fd5b611fd38484846126b9565b80547fffffffffffffffffffffffffffffffffffffffffffffffffffffffffffffff0016600217815560405161200c90849084906136f2565b6040518091039020847f09e77066e0155f46785be12f6938a6b2e4be4381e59058129ce15f355cb969588585604051611ef69291906137d6565b5f888152600c6020526040808220905161206390899089906136f2565b90815260405190819003602001902090505f815460ff16600281111561208b5761208b612f55565b146120c2576040517fbaf3f0f700000000000000000000000000000000000000000000000000000000815260040160405180910390fd5b6009546120d08a6001610e27565b10612107576040517f2926404200000000000000000000000000000000000000000000000000000000815260040160405180910390fd5b63ffffffff88165f908152600d6020908152604080832060ff8916845290915290205473ffffffffffffffffffffffffffffffffffffffff1680612188576040517fb736f27f00000000000000000000000000000000000000000000000000000000815263ffffffff8a16600482015260ff871660248201526044016111a0565b6121938a89896126ea565b815463ffffffff8a16610100027fffffffffffffffffffffffffffffffffffffffffffffffffffffff00000000009091161760011782556040516121da90899089906136f2565b60405180910390208963ffffffff168b7f7d285df41058466977811345cd453c0c52e8d841ffaabc74fc050f277ad4de028b8b8b8b8b6040516122219594939291906137e9565b60405180910390a48215612306576040517faa4e0ce80000000000000000000000000000000000000000000000000000000081525f9073ffffffffffffffffffffffffffffffffffffffff83169063aa4e0ce89061228b908e908d908d908c908c90600401613824565b6020604051808303815f875af11580156122a7573d5f5f3e3d5ffd5b505050506040513d601f19601f820116820180604052508101906122cb9190613850565b905080612304576040517fbcecb64a00000000000000000000000000000000000000000000000000000000815260040160405180910390fd5b505b50505050505050505050565b600180547fffffffffffffffffffffffff00000000000000000000000000000000000000001690556111b281612702565b6110ea6124107f32e091a0c6fc95c826855f4e40ebda4957b528bd84c9062416ceb903082dabe488888860405161237b9291906136f2565b60405180910390206123b68b73ffffffffffffffffffffffffffffffffffffffff165f90815260066020526040902080546001810190915590565b60408051602081019590955273ffffffffffffffffffffffffffffffffffffffff909316928401929092526060830152608082015260a0810186905260c00160405160208183030381529060405280519060200120611f04565b878585858080601f0160208091040260200160405190810160405280939291908181526020018383808284375f9201919091525061277692505050565b5f3073ffffffffffffffffffffffffffffffffffffffff7f0000000000000000000000000000000000000000000000000000000000000000161480156124b257507f000000000000000000000000000000000000000000000000000000000000000046145b156124dc57507f000000000000000000000000000000000000000000000000000000000000000090565b610e39604080517f8b73c3c69bb8fe3d512ecc4cf759cc79239f7b179b0ffacaa9a75d522b39400f60208201527f0000000000000000000000000000000000000000000000000000000000000000918101919091527f000000000000000000000000000000000000000000000000000000000000000060608201524660808201523060a08201525f9060c00160405160208183030381529060405280519060200120905090565b61258b611b15565b600180547fffffffffffffffffffffff00ffffffffffffffffffffffffffffffffffffffff16740100000000000000000000000000000000000000001790557f62e78cea01bee320cd4e420270b5ea74000d11b0c9f74754ebdbfc544b05a258611dd43390565b606060ff831461260c57612605836127f1565b9050610862565b81805461261890613727565b80601f016020809104026020016040519081016040528092919081815260200182805461264490613727565b801561268f5780601f106126665761010080835404028352916020019161268f565b820191905f5260205f20905b81548152906001019060200180831161267257829003601f168201915b50505050509050610862565b5f838152600a602052604090206126b390838361282e565b50505050565b5f838152600a602052604090206126d190838361282e565b505f838152600b602052604090206126b39083836129df565b5f838152600a602052604090206126b39083836129df565b5f805473ffffffffffffffffffffffffffffffffffffffff8381167fffffffffffffffffffffffff0000000000000000000000000000000000000000831681178455604051919092169283917f8be0079c531659141344cd1fd0a4f28419497f9722a3daafe3b4186f6b6457e09190a35050565b814211156127b0576040517f0819bdcd00000000000000000000000000000000000000000000000000000000815260040160405180910390fd5b6127bb838583612a42565b6126b3576040517f8baa579f00000000000000000000000000000000000000000000000000000000815260040160405180910390fd5b60605f6127fd83612aba565b6040805160208082528183019092529192505f91906020820181803683375050509182525060208101929092525090565b5f5f8460010184846040516128449291906136f2565b9081526020016040518091039020549050805f146129d6575f612868600183613701565b86549091505f9061287b90600190613701565b9050818114612979575f875f018281548110612899576128996135c4565b905f5260205f200180546128ac90613727565b80601f01602080910402602001604051908101604052809291908181526020018280546128d890613727565b80156129235780601f106128fa57610100808354040283529160200191612923565b820191905f5260205f20905b81548152906001019060200180831161290657829003601f168201915b5050505050905080885f01848154811061293f5761293f6135c4565b905f5260205f2001908161295391906138ba565b5083886001018260405161296791906139d1565b90815260405190819003602001902055505b865487908061298a5761298a6139e7565b600190038181905f5260205f20015f6129a39190612da8565b90558660010186866040516129b99291906136f2565b90815260200160405180910390205f905560019350505050610844565b5f915050610844565b5f6129eb848484612afa565b612a3b5783546001810185555f8581526020902001612a0b838583613a14565b5083546040516001860190612a2390869086906136f2565b90815260405190819003602001902055506001610844565b505f610844565b5f5f5f612a4f8585612b29565b90925090505f816004811115612a6757612a67612f55565b148015612a9f57508573ffffffffffffffffffffffffffffffffffffffff168273ffffffffffffffffffffffffffffffffffffffff16145b80612ab05750612ab0868686612b6b565b9695505050505050565b5f60ff8216601f811115610862576040517fb3512b0c00000000000000000000000000000000000000000000000000000000815260040160405180910390fd5b5f836001018383604051612b0f9291906136f2565b908152604051908190036020019020541515949350505050565b5f5f8251604103612b5d576020830151604084015160608501515f1a612b5187828585612cc3565b94509450505050612b64565b505f905060025b9250929050565b5f5f5f8573ffffffffffffffffffffffffffffffffffffffff16631626ba7e60e01b8686604051602401612ba0929190613b2a565b604080517fffffffffffffffffffffffffffffffffffffffffffffffffffffffffffffffe08184030181529181526020820180517bffffffffffffffffffffffffffffffffffffffffffffffffffffffff167fffffffff00000000000000000000000000000000000000000000000000000000909416939093179092529051612c2991906139d1565b5f60405180830381855afa9150503d805f8114612c61576040519150601f19603f3d011682016040523d82523d5f602084013e612c66565b606091505b5091509150818015612c7a57506020815110155b8015612ab0575080517f1626ba7e0000000000000000000000000000000000000000000000000000000090612cb89083016020908101908401613778565b149695505050505050565b5f807f7fffffffffffffffffffffffffffffff5d576e7357a4501ddfe92f46681b20a0831115612cf857505f9050600361184e565b604080515f8082526020820180845289905260ff881692820192909252606081018690526080810185905260019060a0016020604051602081039080840390855afa158015612d49573d5f5f3e3d5ffd5b50506040517fffffffffffffffffffffffffffffffffffffffffffffffffffffffffffffffe0015191505073ffffffffffffffffffffffffffffffffffffffff8116612d9c575f6001925092505061184e565b965f9650945050505050565b508054612db490613727565b5f825580601f10612dc3575050565b601f0160209004905f5260205f20908101906111b291905b80821115612dee575f8155600101612ddb565b5090565b73ffffffffffffffffffffffffffffffffffffffff811681146111b2575f5ffd5b5f60208284031215612e23575f5ffd5b813561084481612df2565b7f4e487b71000000000000000000000000000000000000000000000000000000005f52604160045260245ffd5b5f5f60408385031215612e6c575f5ffd5b82359150602083013567ffffffffffffffff811115612e89575f5ffd5b8301601f81018513612e99575f5ffd5b803567ffffffffffffffff811115612eb357612eb3612e2e565b6040517fffffffffffffffffffffffffffffffffffffffffffffffffffffffffffffffe0603f7fffffffffffffffffffffffffffffffffffffffffffffffffffffffffffffffe0601f8501160116810181811067ffffffffffffffff82111715612f1f57612f1f612e2e565b604052818152828201602001871015612f36575f5ffd5b816020840160208301375f602083830101528093505050509250929050565b7f4e487b71000000000000000000000000000000000000000000000000000000005f52602160045260245ffd5b60038110612fb7577f4e487b71000000000000000000000000000000000000000000000000000000005f52602160045260245ffd5b9052565b60408101612fc98285612f82565b63ffffffff831660208301529392505050565b803560038110611c67575f5ffd5b5f5f5f60608486031215612ffc575f5ffd5b8335925061300c60208501612fdc565b929592945050506040919091013590565b5f81518084528060208401602086015e5f6020828601015260207fffffffffffffffffffffffffffffffffffffffffffffffffffffffffffffffe0601f83011685010191505092915050565b602081525f61085f602083018461301d565b5f5f6040838503121561308c575f5ffd5b8235915061309c60208401612fdc565b90509250929050565b5f82825180855260208501945060208160051b830101602085015f5b83811015613111577fffffffffffffffffffffffffffffffffffffffffffffffffffffffffffffffe08584030188526130fb83835161301d565b60209889019890935091909101906001016130c1565b50909695505050505050565b602081525f61085f60208301846130a5565b803563ffffffff81168114611c67575f5ffd5b5f5f83601f840112613152575f5ffd5b50813567ffffffffffffffff811115613169575f5ffd5b602083019150836020828501011115612b64575f5ffd5b803560ff81168114611c67575f5ffd5b5f5f5f5f5f5f5f60a0888a0312156131a6575f5ffd5b87356131b181612df2565b96506131bf6020890161312f565b9550604088013567ffffffffffffffff8111156131da575f5ffd5b6131e68a828b01613142565b90965094506131f9905060608901613180565b9250608088013567ffffffffffffffff811115613214575f5ffd5b6132208a828b01613142565b989b979a50959850939692959293505050565b5f5f5f60608486031215613245575f5ffd5b61324e8461312f565b925061325c60208501613180565b9150604084013561326c81612df2565b809150509250925092565b5f5f83601f840112613287575f5ffd5b50813567ffffffffffffffff81111561329e575f5ffd5b6020830191508360208260051b8501011115612b64575f5ffd5b5f5f602083850312156132c9575f5ffd5b823567ffffffffffffffff8111156132df575f5ffd5b6132eb85828601613277565b90969095509350505050565b5f60208284031215613307575f5ffd5b5035919050565b5f5f6020838503121561331f575f5ffd5b823567ffffffffffffffff811115613335575f5ffd5b6132eb85828601613142565b5f5f5f5f5f5f60808789031215613356575f5ffd5b863561336181612df2565b9550602087013567ffffffffffffffff81111561337c575f5ffd5b61338889828a01613142565b90965094505060408701359250606087013567ffffffffffffffff8111156133ae575f5ffd5b6133ba89828a01613142565b979a9699509497509295939492505050565b7fff000000000000000000000000000000000000000000000000000000000000008816815260e060208201525f61340660e083018961301d565b8281036040840152613418818961301d565b6060840188905273ffffffffffffffffffffffffffffffffffffffff8716608085015260a0840186905283810360c0850152845180825260208087019350909101905f5b8181101561347a57835183526020938401939092019160010161345c565b50909b9a5050505050505050505050565b5f5f5f6040848603121561349d575f5ffd5b83359250602084013567ffffffffffffffff8111156134ba575f5ffd5b6134c686828701613142565b9497909650939450505050565b5f6040820190506134e5828451612f82565b60209283015163ffffffff16919092015290565b5f5f6040838503121561350a575f5ffd5b6135138361312f565b915061309c60208401613180565b5f5f5f5f60808587031215613534575f5ffd5b8435935061354460208601612fdc565b93969395505050506040820135916060013590565b604081525f61356b60408301856130a5565b90508260208301529392505050565b7f4e487b71000000000000000000000000000000000000000000000000000000005f52601160045260245ffd5b64ffffffffff81811683821601908111156108625761086261357a565b7f4e487b71000000000000000000000000000000000000000000000000000000005f52603260045260245ffd5b5f82357fffffffffffffffffffffffffffffffffffffffffffffffffffffffffffffffc1833603018112613623575f5ffd5b9190910192915050565b5f5f83357fffffffffffffffffffffffffffffffffffffffffffffffffffffffffffffffe1843603018112613660575f5ffd5b83018035915067ffffffffffffffff82111561367a575f5ffd5b6020019150600581901b3603821315612b64575f5ffd5b5f5f83357fffffffffffffffffffffffffffffffffffffffffffffffffffffffffffffffe18436030181126136c4575f5ffd5b83018035915067ffffffffffffffff8211156136de575f5ffd5b602001915036819003821315612b64575f5ffd5b818382375f9101908152919050565b818103818111156108625761086261357a565b808201808211156108625761086261357a565b600181811c9082168061373b57607f821691505b602082108103613772577f4e487b71000000000000000000000000000000000000000000000000000000005f52602260045260245ffd5b50919050565b5f60208284031215613788575f5ffd5b5051919050565b81835281816020850137505f602082840101525f60207fffffffffffffffffffffffffffffffffffffffffffffffffffffffffffffffe0601f840116840101905092915050565b602081525f61084160208301848661378f565b606081525f6137fc60608301878961378f565b60ff86166020840152828103604084015261381881858761378f565b98975050505050505050565b858152606060208201525f61383d60608301868861378f565b828103604084015261381881858761378f565b5f60208284031215613860575f5ffd5b81518015158114610844575f5ffd5b601f821115610d0e57805f5260205f20601f840160051c810160208510156138945750805b601f840160051c820191505b818110156138b3575f81556001016138a0565b5050505050565b815167ffffffffffffffff8111156138d4576138d4612e2e565b6138e8816138e28454613727565b8461386f565b6020601f821160018114613939575f83156139035750848201515b7fffffffffffffffffffffffffffffffffffffffffffffffffffffffffffffffff600385901b1c1916600184901b1784556138b3565b5f848152602081207fffffffffffffffffffffffffffffffffffffffffffffffffffffffffffffffe08516915b828110156139865787850151825560209485019460019092019101613966565b50848210156139c257868401517fffffffffffffffffffffffffffffffffffffffffffffffffffffffffffffffff600387901b60f8161c191681555b50505050600190811b01905550565b5f82518060208501845e5f920191825250919050565b7f4e487b71000000000000000000000000000000000000000000000000000000005f52603160045260245ffd5b67ffffffffffffffff831115613a2c57613a2c612e2e565b613a4083613a3a8354613727565b8361386f565b5f601f841160018114613a90575f8515613a5a5750838201355b7fffffffffffffffffffffffffffffffffffffffffffffffffffffffffffffffff600387901b1c1916600186901b1783556138b3565b5f838152602081207fffffffffffffffffffffffffffffffffffffffffffffffffffffffffffffffe08716915b82811015613add5786850135825560209485019460019092019101613abd565b5086821015613b18577fffffffffffffffffffffffffffffffffffffffffffffffffffffffffffffffff60f88860031b161c19848701351681555b505060018560011b0183555050505050565b828152604060208201525f610841604083018461301d56fea164736f6c634300081d000a","linkReferences":{}},"methodIdentifiers":{"REMOVE_TYPEHASH()":"b5775561","VERSION()":"ffa1ad74","acceptOwnership()":"79ba5097","add(address,uint32,bytes,uint8,bytes)":"207e3d69","addGuardian(address)":"a526d83b","bulkAddKeysForMigration((uint256,(bytes,bytes)[])[])":"708e9c70","bulkResetKeysForMigration((uint256,bytes[])[])":"46b3f429","domainSeparatorV4()":"78e890ba","eip712Domain()":"84b0196e","freezeKeyGateway()":"47cf8d4d","gatewayFrozen()":"95e7549f","gracePeriod()":"a06db7dc","guardians(address)":"0633b14a","hashTypedDataV4(bytes32)":"4980f288","idRegistry()":"0aa13b8c","isMigrated()":"b06faf62","keyAt(uint256,uint8,uint256)":"0ea9442c","keyDataOf(uint256,bytes)":"ac34cc5a","keyGateway()":"80334737","keys(uint256,bytes)":"0e24e34c","keysOf(uint256,uint8)":"1f64222f","keysOf(uint256,uint8,uint256,uint256)":"f27995e3","maxKeysPerFid()":"e33acf38","migrate()":"8fd3ab80","migratedAt()":"8b21e484","migrator()":"7cd07e47","nonces(address)":"7ecebe00","owner()":"8da5cb5b","pause()":"8456cb59","paused()":"5c975abb","pendingOwner()":"e30c3978","remove(bytes)":"58edef4c","removeFor(address,bytes,uint256,bytes)":"787bd966","removeGuardian(address)":"71404156","renounceOwnership()":"715018a6","setIdRegistry(address)":"81749468","setKeyGateway(address)":"b221dac4","setMaxKeysPerFid(uint256)":"d4c04809","setMigrator(address)":"23cf3118","setValidator(uint32,uint8,address)":"368ab610","totalKeys(uint256,uint8)":"6840b75e","transferOwnership(address)":"f2fde38b","unpause()":"3f4ba83a","useNonce()":"69615a4c","validators(uint32,uint8)":"d8810395"},"id":69}