{"abi":[{"type":"constructor","inputs":[{"name":"_priceFeed","type":"address","internalType":"contract AggregatorV3Interface"},{"name":"_uptimeFeed","type":"address","internalType":"contract AggregatorV3Interface"},{"name":"_initialUsdUnitPrice","type":"uint256","internalType":"uint256"},{"name":"_initialMaxUnits","type":"uint256","internalType":"uint256"},{"name":"_initialVault","type":"address","internalType":"address"},{"name":"_initialRoleAdmin","type":"address","internalType":"address"},{"name":"_initialOwner","type":"address","internalType":"address"},{"name":"_initialOperator","type":"address","internalType":"address"},{"name":"_initialTreasurer","type":"address","internalType":"address"}],"stateMutability":"nonpayable"},{"type":"function","name":"DEFAULT_ADMIN_ROLE","inputs":[],"outputs":[{"name":"","type":"bytes32","internalType":"bytes32"}],"stateMutability":"view"},{"type":"function","name":"VERSION","inputs":[],"outputs":[{"name":"","type":"string","internalType":"string"}],"stateMutability":"view"},{"type":"function","name":"batchCredit","inputs":[{"name":"fids","type":"uint256[]","internalType":"uint256[]"},{"name":"units","type":"uint256","internalType":"uint256"}],"outputs":[],"stateMutability":"nonpayable"},{"type":"function","name":"batchRent","inputs":[{"name":"fids","type":"uint256[]","internalType":"uint256[]"},{"name":"units","type":"uint256[]","internalType":"uint256[]"}],"outputs":[],"stateMutability":"payable"},{"type":"function","name":"continuousCredit","inputs":[{"name":"start","type":"uint256","internalType":"uint256"},{"name":"end","type":"uint256","internalType":"uint256"},{"name":"units","type":"uint256","internalType":"uint256"}],"outputs":[],"stateMutability":"nonpayable"},{"type":"function","name":"credit","inputs":[{"name":"fid","type":"uint256","internalType":"uint256"},{"name":"units","type":"uint256","internalType":"uint256"}],"outputs":[],"stateMutability":"nonpayable"},{"type":"function","name":"deprecationTimestamp","inputs":[],"outputs":[{"name":"","type":"uint256","internalType":"uint256"}],"stateMutability":"view"},{"type":"function","name":"ethUsdPrice","inputs":[],"outputs":[{"name":"","type":"uint256","internalType":"uint256"}],"stateMutability":"view"},{"type":"function","name":"fixedEthUsdPrice","inputs":[],"outputs":[{"name":"","type":"uint256","internalType":"uint256"}],"stateMutability":"view"},{"type":"function","name":"getRoleAdmin","inputs":[{"name":"role","type":"bytes32","internalType":"bytes32"}],"outputs":[{"name":"","type":"bytes32","internalType":"bytes32"}],"stateMutability":"view"},{"type":"function","name":"getRoleMember","inputs":[{"name":"role","type":"bytes32","internalType":"bytes32"},{"name":"index","type":"uint256","internalType":"uint256"}],"outputs":[{"name":"","type":"address","internalType":"address"}],"stateMutability":"view"},{"type":"function","name":"getRoleMemberCount","inputs":[{"name":"role","type":"bytes32","internalType":"bytes32"}],"outputs":[{"name":"","type":"uint256","internalType":"uint256"}],"stateMutability":"view"},{"type":"function","name":"grantRole","inputs":[{"name":"role","type":"bytes32","internalType":"bytes32"},{"name":"account","type":"address","internalType":"address"}],"outputs":[],"stateMutability":"nonpayable"},{"type":"function","name":"hasRole","inputs":[{"name":"role","type":"bytes32","internalType":"bytes32"},{"name":"account","type":"address","internalType":"address"}],"outputs":[{"name":"","type":"bool","internalType":"bool"}],"stateMutability":"view"},{"type":"function","name":"lastPriceFeedUpdateBlock","inputs":[],"outputs":[{"name":"","type":"uint256","internalType":"uint256"}],"stateMutability":"view"},{"type":"function","name":"lastPriceFeedUpdateTime","inputs":[],"outputs":[{"name":"","type":"uint256","internalType":"uint256"}],"stateMutability":"view"},{"type":"function","name":"maxUnits","inputs":[],"outputs":[{"name":"","type":"uint256","internalType":"uint256"}],"stateMutability":"view"},{"type":"function","name":"pause","inputs":[],"outputs":[],"stateMutability":"nonpayable"},{"type":"function","name":"paused","inputs":[],"outputs":[{"name":"","type":"bool","internalType":"bool"}],"stateMutability":"view"},{"type":"function","name":"prevEthUsdPrice","inputs":[],"outputs":[{"name":"","type":"uint256","internalType":"uint256"}],"stateMutability":"view"},{"type":"function","name":"price","inputs":[{"name":"units","type":"uint256","internalType":"uint256"}],"outputs":[{"name":"","type":"uint256","internalType":"uint256"}],"stateMutability":"view"},{"type":"function","name":"priceFeed","inputs":[],"outputs":[{"name":"","type":"address","internalType":"contract AggregatorV3Interface"}],"stateMutability":"view"},{"type":"function","name":"priceFeedCacheDuration","inputs":[],"outputs":[{"name":"","type":"uint256","internalType":"uint256"}],"stateMutability":"view"},{"type":"function","name":"priceFeedMaxAge","inputs":[],"outputs":[{"name":"","type":"uint256","internalType":"uint256"}],"stateMutability":"view"},{"type":"function","name":"priceFeedMaxAnswer","inputs":[],"outputs":[{"name":"","type":"uint256","internalType":"uint256"}],"stateMutability":"view"},{"type":"function","name":"priceFeedMinAnswer","inputs":[],"outputs":[{"name":"","type":"uint256","internalType":"uint256"}],"stateMutability":"view"},{"type":"function","name":"refreshPrice","inputs":[],"outputs":[],"stateMutability":"nonpayable"},{"type":"function","name":"renounceRole","inputs":[{"name":"role","type":"bytes32","internalType":"bytes32"},{"name":"account","type":"address","internalType":"address"}],"outputs":[],"stateMutability":"nonpayable"},{"type":"function","name":"rent","inputs":[{"name":"fid","type":"uint256","internalType":"uint256"},{"name":"units","type":"uint256","internalType":"uint256"}],"outputs":[{"name":"overpayment","type":"uint256","internalType":"uint256"}],"stateMutability":"payable"},{"type":"function","name":"rentedUnits","inputs":[],"outputs":[{"name":"","type":"uint256","internalType":"uint256"}],"stateMutability":"view"},{"type":"function","name":"revokeRole","inputs":[{"name":"role","type":"bytes32","internalType":"bytes32"},{"name":"account","type":"address","internalType":"address"}],"outputs":[],"stateMutability":"nonpayable"},{"type":"function","name":"setCacheDuration","inputs":[{"name":"duration","type":"uint256","internalType":"uint256"}],"outputs":[],"stateMutability":"nonpayable"},{"type":"function","name":"setDeprecationTimestamp","inputs":[{"name":"timestamp","type":"uint256","internalType":"uint256"}],"outputs":[],"stateMutability":"nonpayable"},{"type":"function","name":"setFixedEthUsdPrice","inputs":[{"name":"fixedPrice","type":"uint256","internalType":"uint256"}],"outputs":[],"stateMutability":"nonpayable"},{"type":"function","name":"setGracePeriod","inputs":[{"name":"period","type":"uint256","internalType":"uint256"}],"outputs":[],"stateMutability":"nonpayable"},{"type":"function","name":"setMaxAge","inputs":[{"name":"age","type":"uint256","internalType":"uint256"}],"outputs":[],"stateMutability":"nonpayable"},{"type":"function","name":"setMaxAnswer","inputs":[{"name":"maxPrice","type":"uint256","internalType":"uint256"}],"outputs":[],"stateMutability":"nonpayable"},{"type":"function","name":"setMaxUnits","inputs":[{"name":"max","type":"uint256","internalType":"uint256"}],"outputs":[],"stateMutability":"nonpayable"},{"type":"function","name":"setMinAnswer","inputs":[{"name":"minPrice","type":"uint256","internalType":"uint256"}],"outputs":[],"stateMutability":"nonpayable"},{"type":"function","name":"setPrice","inputs":[{"name":"usdPrice","type":"uint256","internalType":"uint256"}],"outputs":[],"stateMutability":"nonpayable"},{"type":"function","name":"setPriceFeed","inputs":[{"name":"feed","type":"address","internalType":"contract AggregatorV3Interface"}],"outputs":[],"stateMutability":"nonpayable"},{"type":"function","name":"setUptimeFeed","inputs":[{"name":"feed","type":"address","internalType":"contract AggregatorV3Interface"}],"outputs":[],"stateMutability":"nonpayable"},{"type":"function","name":"setVault","inputs":[{"name":"vaultAddr","type":"address","internalType":"address"}],"outputs":[],"stateMutability":"nonpayable"},{"type":"function","name":"supportsInterface","inputs":[{"name":"interfaceId","type":"bytes4","internalType":"bytes4"}],"outputs":[{"name":"","type":"bool","internalType":"bool"}],"stateMutability":"view"},{"type":"function","name":"unitPrice","inputs":[],"outputs":[{"name":"","type":"uint256","internalType":"uint256"}],"stateMutability":"view"},{"type":"function","name":"unpause","inputs":[],"outputs":[],"stateMutability":"nonpayable"},{"type":"function","name":"uptimeFeed","inputs":[],"outputs":[{"name":"","type":"address","internalType":"contract AggregatorV3Interface"}],"stateMutability":"view"},{"type":"function","name":"uptimeFeedGracePeriod","inputs":[],"outputs":[{"name":"","type":"uint256","internalType":"uint256"}],"stateMutability":"view"},{"type":"function","name":"usdUnitPrice","inputs":[],"outputs":[{"name":"","type":"uint256","internalType":"uint256"}],"stateMutability":"view"},{"type":"function","name":"vault","inputs":[],"outputs":[{"name":"","type":"address","internalType":"address"}],"stateMutability":"view"},{"type":"function","name":"withdraw","inputs":[{"name":"amount","type":"uint256","internalType":"uint256"}],"outputs":[],"stateMutability":"nonpayable"},{"type":"event","name":"Paused","inputs":[{"name":"account","type":"address","indexed":false,"internalType":"address"}],"anonymous":false},{"type":"event","name":"Rent","inputs":[{"name":"payer","type":"address","indexed":true,"internalType":"address"},{"name":"fid","type":"uint256","indexed":true,"internalType":"uint256"},{"name":"units","type":"uint256","indexed":false,"internalType":"uint256"}],"anonymous":false},{"type":"event","name":"RoleAdminChanged","inputs":[{"name":"role","type":"bytes32","indexed":true,"internalType":"bytes32"},{"name":"previousAdminRole","type":"bytes32","indexed":true,"internalType":"bytes32"},{"name":"newAdminRole","type":"bytes32","indexed":true,"internalType":"bytes32"}],"anonymous":false},{"type":"event","name":"RoleGranted","inputs":[{"name":"role","type":"bytes32","indexed":true,"internalType":"bytes32"},{"name":"account","type":"address","indexed":true,"internalType":"address"},{"name":"sender","type":"address","indexed":true,"internalType":"address"}],"anonymous":false},{"type":"event","name":"RoleRevoked","inputs":[{"name":"role","type":"bytes32","indexed":true,"internalType":"bytes32"},{"name":"account","type":"address","indexed":true,"internalType":"address"},{"name":"sender","type":"address","indexed":true,"internalType":"address"}],"anonymous":false},{"type":"event","name":"SetCacheDuration","inputs":[{"name":"oldDuration","type":"uint256","indexed":false,"internalType":"uint256"},{"name":"newDuration","type":"uint256","indexed":false,"internalType":"uint256"}],"anonymous":false},{"type":"event","name":"SetDeprecationTimestamp","inputs":[{"name":"oldTimestamp","type":"uint256","indexed":false,"internalType":"uint256"},{"name":"newTimestamp","type":"uint256","indexed":false,"internalType":"uint256"}],"anonymous":false},{"type":"event","name":"SetFixedEthUsdPrice","inputs":[{"name":"oldPrice","type":"uint256","indexed":false,"internalType":"uint256"},{"name":"newPrice","type":"uint256","indexed":false,"internalType":"uint256"}],"anonymous":false},{"type":"event","name":"SetGracePeriod","inputs":[{"name":"oldPeriod","type":"uint256","indexed":false,"internalType":"uint256"},{"name":"newPeriod","type":"uint256","indexed":false,"internalType":"uint256"}],"anonymous":false},{"type":"event","name":"SetMaxAge","inputs":[{"name":"oldAge","type":"uint256","indexed":false,"internalType":"uint256"},{"name":"newAge","type":"uint256","indexed":false,"internalType":"uint256"}],"anonymous":false},{"type":"event","name":"SetMaxAnswer","inputs":[{"name":"oldPrice","type":"uint256","indexed":false,"internalType":"uint256"},{"name":"newPrice","type":"uint256","indexed":false,"internalType":"uint256"}],"anonymous":false},{"type":"event","name":"SetMaxUnits","inputs":[{"name":"oldMax","type":"uint256","indexed":false,"internalType":"uint256"},{"name":"newMax","type":"uint256","indexed":false,"internalType":"uint256"}],"anonymous":false},{"type":"event","name":"SetMinAnswer","inputs":[{"name":"oldPrice","type":"uint256","indexed":false,"internalType":"uint256"},{"name":"newPrice","type":"uint256","indexed":false,"internalType":"uint256"}],"anonymous":false},{"type":"event","name":"SetPrice","inputs":[{"name":"oldPrice","type":"uint256","indexed":false,"internalType":"uint256"},{"name":"newPrice","type":"uint256","indexed":false,"internalType":"uint256"}],"anonymous":false},{"type":"event","name":"SetPriceFeed","inputs":[{"name":"oldFeed","type":"address","indexed":false,"internalType":"address"},{"name":"newFeed","type":"address","indexed":false,"internalType":"address"}],"anonymous":false},{"type":"event","name":"SetUptimeFeed","inputs":[{"name":"oldFeed","type":"address","indexed":false,"internalType":"address"},{"name":"newFeed","type":"address","indexed":false,"internalType":"address"}],"anonymous":false},{"type":"event","name":"SetVault","inputs":[{"name":"oldVault","type":"address","indexed":false,"internalType":"address"},{"name":"newVault","type":"address","indexed":false,"internalType":"address"}],"anonymous":false},{"type":"event","name":"Unpaused","inputs":[{"name":"account","type":"address","indexed":false,"internalType":"address"}],"anonymous":false},{"type":"event","name":"Withdraw","inputs":[{"name":"to","type":"address","indexed":true,"internalType":"address"},{"name":"amount","type":"uint256","indexed":false,"internalType":"uint256"}],"anonymous":false},{"type":"error","name":"CallFailed","inputs":[]},{"type":"error","name":"ContractDeprecated","inputs":[]},{"type":"error","name":"ExceedsCapacity","inputs":[]},{"type":"error","name":"GracePeriodNotOver","inputs":[]},{"type":"error","name":"IncompleteRound","inputs":[]},{"type":"error","name":"InvalidAddress","inputs":[]},{"type":"error","name":"InvalidAmount","inputs":[]},{"type":"error","name":"InvalidBatchInput","inputs":[]},{"type":"error","name":"InvalidDeprecationTimestamp","inputs":[]},{"type":"error","name":"InvalidFixedPrice","inputs":[]},{"type":"error","name":"InvalidMaxAnswer","inputs":[]},{"type":"error","name":"InvalidMinAnswer","inputs":[]},{"type":"error","name":"InvalidPayment","inputs":[]},{"type":"error","name":"InvalidPrice","inputs":[]},{"type":"error","name":"InvalidRangeInput","inputs":[]},{"type":"error","name":"InvalidRoundTimestamp","inputs":[]},{"type":"error","name":"NotOperator","inputs":[]},{"type":"error","name":"NotOwner","inputs":[]},{"type":"error","name":"NotTreasurer","inputs":[]},{"type":"error","name":"PriceOutOfBounds","inputs":[]},{"type":"error","name":"SequencerDown","inputs":[]},{"type":"error","name":"StaleAnswer","inputs":[]},{"type":"error","name":"Unauthorized","inputs":[]}],"bytecode":{"object":"0x608060405234801561000f575f5ffd5b50604051613cf5380380613cf583398101604081905261002e91610817565b600280546001600160a81b0319166101006001600160a01b038c1690810291909117909155604080515f815260208101929092527fc02f01e22efc017c1c952d0eef1a8fc038571f14ea5a285d79d1d7ba87d8b001910160405180910390a1600380546001600160a01b0319166001600160a01b038a16908117909155604080515f815260208101929092527fffca0dcf4a77eaddf80becc294c7f9b5fe6afe652e75c888b8afc76c75d8e658910160405180910390a16100f3426301e133806108d6565b6004819055604080515f815260208101929092527f27e030644fe653b53e98fbd0ca5004392da63705b0806619a43324647715bc6b910160405180910390a16005879055604080515f8152602081018990527ff9317dc3bc6dda0e00e43855c2c30847aeafb8dcea9d2ce86e9ce7a83d549f01910160405180910390a16007869055604080515f8152602081018890527fa75b962aa425276de62bec76aeb43cacc12d2b132498ae1115500c23dc35fbe4910160405180910390a1620151806008819055604080515f815260208101929092527fba21d40bb8770d5fa02e1971806473e12480167182e829c0fc86addb21e2b77d910160405180910390a1611c206009819055604080515f815260208101929092527fdab04eb6792be47147c80ea1681f6b05c2961bed4ea123bcb7f8d4c10aa2df3e910160405180910390a1610e10600c819055604080515f815260208101929092527f31c130faaf861e1e61ca087cc48c410d9099885350e9beb4dad1175cb77a6545910160405180910390a16402540be400600a819055604080515f815260208101929092527f5ea311a1ef15e7fbfbbe5d4b8160fd93a072abf0c64d50591e17306e3b7aa628910160405180910390a164e8d4a51000600b819055604080515f815260208101929092527fea30ce82bdf6bad7bc587c9a5e15e0f655724d1e3a680df280898a2aab512d39910160405180910390a1600d80546001600160a01b0319166001600160a01b038716908117909155604080515f815260208101929092527f22a9f7c8a21e91a43518238948d4ed67511ad8492ca0e13fdbc93c134701a72a910160405180910390a16103615f856103f5565b61038b7fb19546dff01e856fb3f010c267a7b1c60363cf8a4664e21cc89c26224620214e846103f5565b6103b57f97667070c54ef182b0f5858b034beac1b6f3089aa2d3188bb1e8929f4fa9b929836103f5565b6103df7f3496e2e73c4d42b75d702e60d9e48102720b8691234415963a5a857b86425d07826103f5565b6103e761041b565b505050505050505050610965565b6103ff82826106fa565b5f8281526001602052604090206104169082610797565b505050565b5f5f5f5f60035f9054906101000a90046001600160a01b03166001600160a01b031663feaf968c6040518163ffffffff1660e01b815260040160a060405180830381865afa15801561046f573d5f5f3e3d5ffd5b505050506040513d601f19601f820116820180604052508101906104939190610904565b509350935093509350825f146104bb5760405162032b3d60e81b815260040160405180910390fd5b836001600160501b03165f036104e457604051638ad52bdd60e01b815260040160405180910390fd5b805f0361050457604051638ad52bdd60e01b815260040160405180910390fd5b42811115610525576040516374016e9d60e11b815260040160405180910390fd5b5f6105308342610952565b9050600c548110156105555760405163d15f73b560e01b815260040160405180910390fd5b5f5f5f600260019054906101000a90046001600160a01b03166001600160a01b031663feaf968c6040518163ffffffff1660e01b815260040160a060405180830381865afa1580156105a9573d5f5f3e3d5ffd5b505050506040513d601f19601f820116820180604052508101906105cd9190610904565b50935050925092505f82136105f45760405162bfc92160e01b815260040160405180910390fd5b826001600160501b03165f0361061d57604051638ad52bdd60e01b815260040160405180910390fd5b805f0361063d57604051638ad52bdd60e01b815260040160405180910390fd5b4281111561065e576040516374016e9d60e11b815260040160405180910390fd5b60095461066b8242610952565b111561068a57604051630e09c18960e31b815260040160405180910390fd5b600a5482108061069b5750600b5482115b156106b957604051636e4ba61d60e01b815260040160405180910390fd5b42601155436012556010541580156106d15750600f54155b156106e557600f82905560108290556106f0565b600f80546010558290555b5050505050505050565b5f828152602081815260408083206001600160a01b038516845290915290205460ff16610793575f828152602081815260408083206001600160a01b03851684529091529020805460ff191660011790556107523390565b6001600160a01b0316816001600160a01b0316837f2f8788117e7eff1d82e926ec794901d17c78024a50270940304540a733656f0d60405160405180910390a45b5050565b5f6107ab836001600160a01b0384166107b4565b90505b92915050565b5f8181526001830160205260408120546107f957508154600181810184555f8481526020808220909301849055845484825282860190935260409020919091556107ae565b505f6107ae565b6001600160a01b0381168114610814575f5ffd5b50565b5f5f5f5f5f5f5f5f5f6101208a8c031215610830575f5ffd5b895161083b81610800565b60208b015190995061084c81610800565b60408b015160608c015160808d0151929a50909850965061086c81610800565b60a08b015190955061087d81610800565b60c08b015190945061088e81610800565b60e08b015190935061089f81610800565b6101008b01519092506108b181610800565b809150509295985092959850929598565b634e487b7160e01b5f52601160045260245ffd5b808201808211156107ae576107ae6108c2565b80516001600160501b03811681146108ff575f5ffd5b919050565b5f5f5f5f5f60a08688031215610918575f5ffd5b610921866108e9565b60208701516040880151606089015192975090955093509150610946608087016108e9565b90509295509295909350565b818103818111156107ae576107ae6108c2565b613383806109725f395ff3fe608060405260043610610324575f3560e01c8063783a112b116101a7578063b0949137116100e7578063d547741f11610092578063e75b434b1161006d578063e75b434b1461089d578063f2f65960146108bc578063fbfa77cf146108db578063ffa1ad7414610907575f5ffd5b8063d547741f14610855578063e19a963f14610874578063e73faa2d14610889575f5ffd5b8063ca15c873116100c2578063ca15c87314610802578063cf980c0014610821578063d285e8fd14610836575f5ffd5b8063b0949137146107b9578063b3a90c67146107ce578063c2e46fe0146107ed575f5ffd5b80639010d07c116101525780639478ab8c1161012d5780639478ab8c1461075f578063a217fddf14610774578063a82c356e14610787578063ab7ccc1c1461079a575f5ffd5b80639010d07c146106d257806391b7f5ed146106f157806391d1485414610710575f5ffd5b80638456cb59116101825780638456cb59146106805780638611e6e7146106945780638d567f86146106b3575f5ffd5b8063783a112b1461064357806378888e41146106565780637c01fc4d1461066b575f5ffd5b80633c67a5b2116102725780635ae28fc91161021d5780636817031b116101f85780636817031b146105bf5780637078cc1c146105de578063724e78da146105f3578063741bef1a14610612575f5ffd5b80635ae28fc9146105745780635c975abb1461059357806364996ed8146105aa575f5ffd5b806341392be81161024d57806341392be8146105215780634375948c146105365780634fbd128214610555575f5ffd5b80633c67a5b2146104e45780633f4ba83a146104f857806340df0ba01461050c575f5ffd5b80632751c4fd116102d25780632f2ff15d116102ad5780632f2ff15d1461045557806336568abe146104745780633b56125c14610493575f5ffd5b80632751c4fd1461040c5780632c39d670146104215780632e1a7d4d14610436575f5ffd5b80631a9d70f6116103025780631a9d70f6146103a0578063248a9ca3146103bf57806326a49e37146103ed575f5ffd5b806301ffc9a71461032857806306517a291461035c578063194e99511461037f575b5f5ffd5b348015610333575f5ffd5b50610347610342366004612f0c565b61095c565b60405190151581526020015b60405180910390f35b348015610367575f5ffd5b5061037160075481565b604051908152602001610353565b34801561038a575f5ffd5b5061039e610399366004612f4b565b6109b7565b005b3480156103ab575f5ffd5b5061039e6103ba366004612f62565b610a5f565b3480156103ca575f5ffd5b506103716103d9366004612f4b565b5f9081526020819052604090206001015490565b3480156103f8575f5ffd5b50610371610407366004612f4b565b610c59565b348015610417575f5ffd5b50610371600e5481565b34801561042c575f5ffd5b5061037160045481565b348015610441575f5ffd5b5061039e610450366004612f4b565b610c98565b348015610460575f5ffd5b5061039e61046f366004612fac565b610d74565b34801561047f575f5ffd5b5061039e61048e366004612fac565b610d9d565b34801561049e575f5ffd5b506003546104bf9073ffffffffffffffffffffffffffffffffffffffff1681565b60405173ffffffffffffffffffffffffffffffffffffffff9091168152602001610353565b3480156104ef575f5ffd5b5061039e610e55565b348015610503575f5ffd5b5061039e610f02565b348015610517575f5ffd5b5061037160055481565b34801561052c575f5ffd5b5061037160095481565b348015610541575f5ffd5b5061039e610550366004612f4b565b610f71565b348015610560575f5ffd5b5061039e61056f366004612f4b565b611054565b34801561057f575f5ffd5b5061039e61058e366004612f4b565b611137565b34801561059e575f5ffd5b5060025460ff16610347565b3480156105b5575f5ffd5b5061037160125481565b3480156105ca575f5ffd5b5061039e6105d9366004612fda565b6111df565b3480156105e9575f5ffd5b50610371600c5481565b3480156105fe575f5ffd5b5061039e61060d366004612fda565b61132e565b34801561061d575f5ffd5b506002546104bf90610100900473ffffffffffffffffffffffffffffffffffffffff1681565b610371610651366004612ff5565b61143a565b348015610661575f5ffd5b5061037160105481565b348015610676575f5ffd5b50610371600a5481565b34801561068b575f5ffd5b5061039e6115b6565b34801561069f575f5ffd5b5061039e6106ae366004612f4b565b611625565b3480156106be575f5ffd5b5061039e6106cd366004612f4b565b61171b565b3480156106dd575f5ffd5b506104bf6106ec366004612ff5565b6117fd565b3480156106fc575f5ffd5b5061039e61070b366004612f4b565b611814565b34801561071b575f5ffd5b5061034761072a366004612fac565b5f9182526020828152604080842073ffffffffffffffffffffffffffffffffffffffff93909316845291905290205460ff1690565b34801561076a575f5ffd5b50610371600f5481565b34801561077f575f5ffd5b506103715f81565b61039e61079536600461305d565b6118bc565b3480156107a5575f5ffd5b5061039e6107b4366004612ff5565b611b09565b3480156107c4575f5ffd5b5061037160065481565b3480156107d9575f5ffd5b5061039e6107e83660046130c9565b611c86565b3480156107f8575f5ffd5b5061037160085481565b34801561080d575f5ffd5b5061037161081c366004612f4b565b611e58565b34801561082c575f5ffd5b5061037160115481565b348015610841575f5ffd5b5061039e610850366004612f4b565b611e6e565b348015610860575f5ffd5b5061039e61086f366004612fac565b611f16565b34801561087f575f5ffd5b50610371600b5481565b348015610894575f5ffd5b50610371611f3a565b3480156108a8575f5ffd5b5061039e6108b7366004612fda565b611f4a565b3480156108c7575f5ffd5b5061039e6108d6366004612f4b565b61204c565b3480156108e6575f5ffd5b50600d546104bf9073ffffffffffffffffffffffffffffffffffffffff1681565b348015610912575f5ffd5b5061094f6040518060400160405280600a81526020017f323032332e30382e32330000000000000000000000000000000000000000000081525081565b6040516103539190613111565b5f7fffffffff0000000000000000000000000000000000000000000000000000000082167f5a05180f0000000000000000000000000000000000000000000000000000000014806109b157506109b1826120f4565b92915050565b335f9081527fd329ff8a035c3ce5df2b0dae604d660c0d8783bf7e64be00c1d10db96c0b87b4602052604090205460ff16610a1e576040517f30cd747100000000000000000000000000000000000000000000000000000000815260040160405180910390fd5b60085460408051918252602082018390527fba21d40bb8770d5fa02e1971806473e12480167182e829c0fc86addb21e2b77d910160405180910390a1600855565b335f9081527fee57cd81e84075558e8fcc182a1f4393f91fc97f963a136e66b7f949a62f319f602052604090205460ff16610ac6576040517f7c214f0400000000000000000000000000000000000000000000000000000000815260040160405180910390fd5b6004544210610b01576040517fd17e0deb00000000000000000000000000000000000000000000000000000000815260040160405180910390fd5b610b0961218a565b805f03610b42576040517f2c5211c600000000000000000000000000000000000000000000000000000000815260040160405180910390fd5b818310610b7b576040517f59d0556c00000000000000000000000000000000000000000000000000000000815260040160405180910390fd5b5f610b868484613191565b610b919060016131a4565b90505f610b9e83836131b7565b905060075481600e54610bb191906131a4565b1115610be9576040517f2aa2ed7200000000000000000000000000000000000000000000000000000000815260040160405180910390fd5b80600e5f828254610bfa91906131a4565b909155505f90505b82811015610c5157610c1481876131a4565b60405185815233907faabd75b90fb7114eb9587a54f00ce5ebe8cb4a70627f3a6c26e506ffd771fe2f9060200160405180910390a3600101610c02565b505050505050565b5f5f6006545f14610c6d5750600654610c84565b4360125403610c7f5750601054610c84565b50600f545b610c9183600554836121f7565b9392505050565b335f9081527f991c3211066600fc98d95d017c66f2884b1fa3d4cabc2576d000f3cc80931bda602052604090205460ff16610cff576040517f5647892800000000000000000000000000000000000000000000000000000000815260040160405180910390fd5b600d5460405182815273ffffffffffffffffffffffffffffffffffffffff909116907f884edad9ce6fa2440d8a54cc123490eb96d2768479d49ff9c7366125a94243649060200160405180910390a2600d54610d719073ffffffffffffffffffffffffffffffffffffffff1682612214565b50565b5f82815260208190526040902060010154610d8e81612256565b610d988383612260565b505050565b73ffffffffffffffffffffffffffffffffffffffff81163314610e47576040517f08c379a000000000000000000000000000000000000000000000000000000000815260206004820152602f60248201527f416363657373436f6e74726f6c3a2063616e206f6e6c792072656e6f756e636560448201527f20726f6c657320666f722073656c66000000000000000000000000000000000060648201526084015b60405180910390fd5b610e518282612281565b5050565b335f9081527fd329ff8a035c3ce5df2b0dae604d660c0d8783bf7e64be00c1d10db96c0b87b4602052604090205460ff16158015610ec15750335f9081527f991c3211066600fc98d95d017c66f2884b1fa3d4cabc2576d000f3cc80931bda602052604090205460ff16155b15610ef8576040517f82b4290000000000000000000000000000000000000000000000000000000000815260040160405180910390fd5b610f006122a2565b565b335f9081527fd329ff8a035c3ce5df2b0dae604d660c0d8783bf7e64be00c1d10db96c0b87b4602052604090205460ff16610f69576040517f30cd747100000000000000000000000000000000000000000000000000000000815260040160405180910390fd5b610f006126cb565b335f9081527fd329ff8a035c3ce5df2b0dae604d660c0d8783bf7e64be00c1d10db96c0b87b4602052604090205460ff16610fd8576040517f30cd747100000000000000000000000000000000000000000000000000000000815260040160405180910390fd5b600b548110611013576040517f2098bf9500000000000000000000000000000000000000000000000000000000815260040160405180910390fd5b600a5460408051918252602082018390527f5ea311a1ef15e7fbfbbe5d4b8160fd93a072abf0c64d50591e17306e3b7aa628910160405180910390a1600a55565b335f9081527fd329ff8a035c3ce5df2b0dae604d660c0d8783bf7e64be00c1d10db96c0b87b4602052604090205460ff166110bb576040517f30cd747100000000000000000000000000000000000000000000000000000000815260040160405180910390fd5b600a5481116110f6576040517fa768df8200000000000000000000000000000000000000000000000000000000815260040160405180910390fd5b600b5460408051918252602082018390527fea30ce82bdf6bad7bc587c9a5e15e0f655724d1e3a680df280898a2aab512d39910160405180910390a1600b55565b335f9081527fd329ff8a035c3ce5df2b0dae604d660c0d8783bf7e64be00c1d10db96c0b87b4602052604090205460ff1661119e576040517f30cd747100000000000000000000000000000000000000000000000000000000815260040160405180910390fd5b60095460408051918252602082018390527fdab04eb6792be47147c80ea1681f6b05c2961bed4ea123bcb7f8d4c10aa2df3e910160405180910390a1600955565b335f9081527fd329ff8a035c3ce5df2b0dae604d660c0d8783bf7e64be00c1d10db96c0b87b4602052604090205460ff16611246576040517f30cd747100000000000000000000000000000000000000000000000000000000815260040160405180910390fd5b73ffffffffffffffffffffffffffffffffffffffff8116611293576040517fe6c4247b00000000000000000000000000000000000000000000000000000000815260040160405180910390fd5b600d546040805173ffffffffffffffffffffffffffffffffffffffff928316815291831660208301527f22a9f7c8a21e91a43518238948d4ed67511ad8492ca0e13fdbc93c134701a72a910160405180910390a1600d80547fffffffffffffffffffffffff00000000000000000000000000000000000000001673ffffffffffffffffffffffffffffffffffffffff92909216919091179055565b335f9081527fd329ff8a035c3ce5df2b0dae604d660c0d8783bf7e64be00c1d10db96c0b87b4602052604090205460ff16611395576040517f30cd747100000000000000000000000000000000000000000000000000000000815260040160405180910390fd5b6002546040805173ffffffffffffffffffffffffffffffffffffffff6101009093048316815291831660208301527fc02f01e22efc017c1c952d0eef1a8fc038571f14ea5a285d79d1d7ba87d8b001910160405180910390a16002805473ffffffffffffffffffffffffffffffffffffffff909216610100027fffffffffffffffffffffff0000000000000000000000000000000000000000ff909216919091179055565b5f6004544210611476576040517fd17e0deb00000000000000000000000000000000000000000000000000000000815260040160405180910390fd5b61147e61218a565b815f036114b7576040517f2c5211c600000000000000000000000000000000000000000000000000000000815260040160405180910390fd5b60075482600e546114c891906131a4565b1115611500576040517f2aa2ed7200000000000000000000000000000000000000000000000000000000815260040160405180910390fd5b5f61150a83612748565b905080341015611546576040517f3c6b4b2800000000000000000000000000000000000000000000000000000000815260040160405180910390fd5b82600e5f82825461155791906131a4565b9091555050604051838152849033907faabd75b90fb7114eb9587a54f00ce5ebe8cb4a70627f3a6c26e506ffd771fe2f9060200160405180910390a361159d8134613191565b915081156115af576115af3383612214565b5092915050565b335f9081527fd329ff8a035c3ce5df2b0dae604d660c0d8783bf7e64be00c1d10db96c0b87b4602052604090205460ff1661161d576040517f30cd747100000000000000000000000000000000000000000000000000000000815260040160405180910390fd5b610f0061275d565b335f9081527fd329ff8a035c3ce5df2b0dae604d660c0d8783bf7e64be00c1d10db96c0b87b4602052604090205460ff1661168c576040517f30cd747100000000000000000000000000000000000000000000000000000000815260040160405180910390fd5b80156116da57600a548110806116a35750600b5481115b156116da576040517f84477d0400000000000000000000000000000000000000000000000000000000815260040160405180910390fd5b60065460408051918252602082018390527f93aee10a56f247b278bffd77edfd1772670a0889d16a01f958afebcce8266432910160405180910390a1600655565b335f9081527fd329ff8a035c3ce5df2b0dae604d660c0d8783bf7e64be00c1d10db96c0b87b4602052604090205460ff16611782576040517f30cd747100000000000000000000000000000000000000000000000000000000815260040160405180910390fd5b428110156117bc576040517f4d9c314900000000000000000000000000000000000000000000000000000000815260040160405180910390fd5b60045460408051918252602082018390527f27e030644fe653b53e98fbd0ca5004392da63705b0806619a43324647715bc6b910160405180910390a1600455565b5f828152600160205260408120610c9190836127b8565b335f9081527fd329ff8a035c3ce5df2b0dae604d660c0d8783bf7e64be00c1d10db96c0b87b4602052604090205460ff1661187b576040517f30cd747100000000000000000000000000000000000000000000000000000000815260040160405180910390fd5b60055460408051918252602082018390527ff9317dc3bc6dda0e00e43855c2c30847aeafb8dcea9d2ce86e9ce7a83d549f01910160405180910390a1600555565b60045442106118f7576040517fd17e0deb00000000000000000000000000000000000000000000000000000000815260040160405180910390fd5b6118ff61218a565b82158061190a575080155b15611941576040517f0a514b9900000000000000000000000000000000000000000000000000000000815260040160405180910390fd5b82811461197a576040517f0a514b9900000000000000000000000000000000000000000000000000000000815260040160405180910390fd5b6005545f6119866127c3565b90505f5f5b86811015611a3b575f8686838181106119a6576119a66131ce565b905060200201359050805f036119bc5750611a33565b6119c681846131a4565b92508888838181106119da576119da6131ce565b905060200201353373ffffffffffffffffffffffffffffffffffffffff167faabd75b90fb7114eb9587a54f00ce5ebe8cb4a70627f3a6c26e506ffd771fe2f83604051611a2991815260200190565b60405180910390a3505b60010161198b565b505f611a488285856121f7565b905080341015611a84576040517f3c6b4b2800000000000000000000000000000000000000000000000000000000815260040160405180910390fd5b60075482600e54611a9591906131a4565b1115611acd576040517f2aa2ed7200000000000000000000000000000000000000000000000000000000815260040160405180910390fd5b81600e5f828254611ade91906131a4565b909155505034811015611aff57611aff611af88234613191565b3390612214565b5050505050505050565b335f9081527fee57cd81e84075558e8fcc182a1f4393f91fc97f963a136e66b7f949a62f319f602052604090205460ff16611b70576040517f7c214f0400000000000000000000000000000000000000000000000000000000815260040160405180910390fd5b6004544210611bab576040517fd17e0deb00000000000000000000000000000000000000000000000000000000815260040160405180910390fd5b611bb361218a565b805f03611bec576040517f2c5211c600000000000000000000000000000000000000000000000000000000815260040160405180910390fd5b60075481600e54611bfd91906131a4565b1115611c35576040517f2aa2ed7200000000000000000000000000000000000000000000000000000000815260040160405180910390fd5b80600e5f828254611c4691906131a4565b9091555050604051818152829033907faabd75b90fb7114eb9587a54f00ce5ebe8cb4a70627f3a6c26e506ffd771fe2f9060200160405180910390a35050565b335f9081527fee57cd81e84075558e8fcc182a1f4393f91fc97f963a136e66b7f949a62f319f602052604090205460ff16611ced576040517f7c214f0400000000000000000000000000000000000000000000000000000000815260040160405180910390fd5b6004544210611d28576040517fd17e0deb00000000000000000000000000000000000000000000000000000000815260040160405180910390fd5b611d3061218a565b805f03611d69576040517f2c5211c600000000000000000000000000000000000000000000000000000000815260040160405180910390fd5b5f611d7482846131b7565b905060075481600e54611d8791906131a4565b1115611dbf576040517f2aa2ed7200000000000000000000000000000000000000000000000000000000815260040160405180910390fd5b80600e5f828254611dd091906131a4565b909155505f90505b83811015611e5157848482818110611df257611df26131ce565b905060200201353373ffffffffffffffffffffffffffffffffffffffff167faabd75b90fb7114eb9587a54f00ce5ebe8cb4a70627f3a6c26e506ffd771fe2f85604051611e4191815260200190565b60405180910390a3600101611dd8565b5050505050565b5f8181526001602052604081206109b190612809565b335f9081527fd329ff8a035c3ce5df2b0dae604d660c0d8783bf7e64be00c1d10db96c0b87b4602052604090205460ff16611ed5576040517f30cd747100000000000000000000000000000000000000000000000000000000815260040160405180910390fd5b60075460408051918252602082018390527fa75b962aa425276de62bec76aeb43cacc12d2b132498ae1115500c23dc35fbe4910160405180910390a1600755565b5f82815260208190526040902060010154611f3081612256565b610d988383612281565b5f611f456001610c59565b905090565b335f9081527fd329ff8a035c3ce5df2b0dae604d660c0d8783bf7e64be00c1d10db96c0b87b4602052604090205460ff16611fb1576040517f30cd747100000000000000000000000000000000000000000000000000000000815260040160405180910390fd5b6003546040805173ffffffffffffffffffffffffffffffffffffffff928316815291831660208301527fffca0dcf4a77eaddf80becc294c7f9b5fe6afe652e75c888b8afc76c75d8e658910160405180910390a1600380547fffffffffffffffffffffffff00000000000000000000000000000000000000001673ffffffffffffffffffffffffffffffffffffffff92909216919091179055565b335f9081527fd329ff8a035c3ce5df2b0dae604d660c0d8783bf7e64be00c1d10db96c0b87b4602052604090205460ff166120b3576040517f30cd747100000000000000000000000000000000000000000000000000000000815260040160405180910390fd5b600c5460408051918252602082018390527f31c130faaf861e1e61ca087cc48c410d9099885350e9beb4dad1175cb77a6545910160405180910390a1600c55565b5f7fffffffff0000000000000000000000000000000000000000000000000000000082167f7965db0b0000000000000000000000000000000000000000000000000000000014806109b157507f01ffc9a7000000000000000000000000000000000000000000000000000000007fffffffff000000000000000000000000000000000000000000000000000000008316146109b1565b60025460ff1615610f00576040517f08c379a000000000000000000000000000000000000000000000000000000000815260206004820152601060248201527f5061757361626c653a20706175736564000000000000000000000000000000006044820152606401610e3e565b5f61220c8261220685876131b7565b90612812565b949350505050565b5f5f5f5f5f85875af1905080610d98576040517f3204506f00000000000000000000000000000000000000000000000000000000815260040160405180910390fd5b610d718133612826565b61226a82826128dd565b5f828152600160205260409020610d9890826129cb565b61228b82826129ec565b5f828152600160205260409020610d989082612aa1565b5f5f5f5f60035f9054906101000a900473ffffffffffffffffffffffffffffffffffffffff1673ffffffffffffffffffffffffffffffffffffffff1663feaf968c6040518163ffffffff1660e01b815260040160a060405180830381865afa158015612310573d5f5f3e3d5ffd5b505050506040513d601f19601f820116820180604052508101906123349190613219565b509350935093509350825f14612376576040517f032b3d0000000000000000000000000000000000000000000000000000000000815260040160405180910390fd5b8369ffffffffffffffffffff165f036123bb576040517f8ad52bdd00000000000000000000000000000000000000000000000000000000815260040160405180910390fd5b805f036123f4576040517f8ad52bdd00000000000000000000000000000000000000000000000000000000815260040160405180910390fd5b4281111561242e576040517fe802dd3a00000000000000000000000000000000000000000000000000000000815260040160405180910390fd5b5f6124398342613191565b9050600c54811015612477576040517fd15f73b500000000000000000000000000000000000000000000000000000000815260040160405180910390fd5b5f5f5f600260019054906101000a900473ffffffffffffffffffffffffffffffffffffffff1673ffffffffffffffffffffffffffffffffffffffff1663feaf968c6040518163ffffffff1660e01b815260040160a060405180830381865afa1580156124e5573d5f5f3e3d5ffd5b505050506040513d601f19601f820116820180604052508101906125099190613219565b50935050925092505f8213612549576040517ebfc92100000000000000000000000000000000000000000000000000000000815260040160405180910390fd5b8269ffffffffffffffffffff165f0361258e576040517f8ad52bdd00000000000000000000000000000000000000000000000000000000815260040160405180910390fd5b805f036125c7576040517f8ad52bdd00000000000000000000000000000000000000000000000000000000815260040160405180910390fd5b42811115612601576040517fe802dd3a00000000000000000000000000000000000000000000000000000000815260040160405180910390fd5b60095461260e8242613191565b1115612646576040517f704e0c4800000000000000000000000000000000000000000000000000000000815260040160405180910390fd5b600a548210806126575750600b5482115b1561268e576040517f6e4ba61d00000000000000000000000000000000000000000000000000000000815260040160405180910390fd5b42601155436012556010541580156126a65750600f54155b156126ba57600f8290556010829055611aff565b50600f805460105555505050505050565b6126d3612ac2565b600280547fffffffffffffffffffffffffffffffffffffffffffffffffffffffffffffff001690557f5db9ee0a495bf2e6ff9c91a7834c1ba4fdd244a5e8aa4e537bd38aeae4b073aa335b60405173ffffffffffffffffffffffffffffffffffffffff909116815260200160405180910390a1565b5f6109b1826005546127586127c3565b6121f7565b61276561218a565b600280547fffffffffffffffffffffffffffffffffffffffffffffffffffffffffffffff001660011790557f62e78cea01bee320cd4e420270b5ea74000d11b0c9f74754ebdbfc544b05a25861271e3390565b5f610c918383612b2e565b5f6006545f146127d4575060065490565b6008546011546127e49042613191565b11156127f2576127f26122a2565b43601254146128025750600f5490565b5060105490565b5f6109b1825490565b5f610c9183670de0b6b3a764000084612b54565b5f8281526020818152604080832073ffffffffffffffffffffffffffffffffffffffff8516845290915290205460ff16610e515761286381612b81565b61286e836020612ba0565b60405160200161287f92919061327e565b604080517fffffffffffffffffffffffffffffffffffffffffffffffffffffffffffffffe0818403018152908290527f08c379a0000000000000000000000000000000000000000000000000000000008252610e3e91600401613111565b5f8281526020818152604080832073ffffffffffffffffffffffffffffffffffffffff8516845290915290205460ff16610e51575f8281526020818152604080832073ffffffffffffffffffffffffffffffffffffffff85168452909152902080547fffffffffffffffffffffffffffffffffffffffffffffffffffffffffffffff0016600117905561296d3390565b73ffffffffffffffffffffffffffffffffffffffff168173ffffffffffffffffffffffffffffffffffffffff16837f2f8788117e7eff1d82e926ec794901d17c78024a50270940304540a733656f0d60405160405180910390a45050565b5f610c918373ffffffffffffffffffffffffffffffffffffffff8416612ddd565b5f8281526020818152604080832073ffffffffffffffffffffffffffffffffffffffff8516845290915290205460ff1615610e51575f8281526020818152604080832073ffffffffffffffffffffffffffffffffffffffff8516808552925280832080547fffffffffffffffffffffffffffffffffffffffffffffffffffffffffffffff0016905551339285917ff6391f5c32d9c69d2a47ea670b442974b53935d1edc7fd64eb21e047a839171b9190a45050565b5f610c918373ffffffffffffffffffffffffffffffffffffffff8416612e29565b60025460ff16610f00576040517f08c379a000000000000000000000000000000000000000000000000000000000815260206004820152601460248201527f5061757361626c653a206e6f74207061757365640000000000000000000000006044820152606401610e3e565b5f825f018281548110612b4357612b436131ce565b905f5260205f200154905092915050565b828202811515841585830485141716612b6b575f5ffd5b6001826001830304018115150290509392505050565b60606109b173ffffffffffffffffffffffffffffffffffffffff831660145b60605f612bae8360026131b7565b612bb99060026131a4565b67ffffffffffffffff811115612bd157612bd16132e8565b6040519080825280601f01601f191660200182016040528015612bfb576020820181803683370190505b5090507f3000000000000000000000000000000000000000000000000000000000000000815f81518110612c3157612c316131ce565b60200101907effffffffffffffffffffffffffffffffffffffffffffffffffffffffffffff191690815f1a9053507f780000000000000000000000000000000000000000000000000000000000000081600181518110612c9357612c936131ce565b60200101907effffffffffffffffffffffffffffffffffffffffffffffffffffffffffffff191690815f1a9053505f612ccd8460026131b7565b612cd89060016131a4565b90505b6001811115612d74577f303132333435363738396162636465660000000000000000000000000000000085600f1660108110612d1957612d196131ce565b1a60f81b828281518110612d2f57612d2f6131ce565b60200101907effffffffffffffffffffffffffffffffffffffffffffffffffffffffffffff191690815f1a90535060049490941c93612d6d81613315565b9050612cdb565b508315610c91576040517f08c379a000000000000000000000000000000000000000000000000000000000815260206004820181905260248201527f537472696e67733a20686578206c656e67746820696e73756666696369656e746044820152606401610e3e565b5f818152600183016020526040812054612e2257508154600181810184555f8481526020808220909301849055845484825282860190935260409020919091556109b1565b505f6109b1565b5f8181526001830160205260408120548015612f03575f612e4b600183613191565b85549091505f90612e5e90600190613191565b9050818114612ebd575f865f018281548110612e7c57612e7c6131ce565b905f5260205f200154905080875f018481548110612e9c57612e9c6131ce565b5f918252602080832090910192909255918252600188019052604090208390555b8554869080612ece57612ece613349565b600190038181905f5260205f20015f90559055856001015f8681526020019081526020015f205f9055600193505050506109b1565b5f9150506109b1565b5f60208284031215612f1c575f5ffd5b81357fffffffff0000000000000000000000000000000000000000000000000000000081168114610c91575f5ffd5b5f60208284031215612f5b575f5ffd5b5035919050565b5f5f5f60608486031215612f74575f5ffd5b505081359360208301359350604090920135919050565b73ffffffffffffffffffffffffffffffffffffffff81168114610d71575f5ffd5b5f5f60408385031215612fbd575f5ffd5b823591506020830135612fcf81612f8b565b809150509250929050565b5f60208284031215612fea575f5ffd5b8135610c9181612f8b565b5f5f60408385031215613006575f5ffd5b50508035926020909101359150565b5f5f83601f840112613025575f5ffd5b50813567ffffffffffffffff81111561303c575f5ffd5b6020830191508360208260051b8501011115613056575f5ffd5b9250929050565b5f5f5f5f60408587031215613070575f5ffd5b843567ffffffffffffffff811115613086575f5ffd5b61309287828801613015565b909550935050602085013567ffffffffffffffff8111156130b1575f5ffd5b6130bd87828801613015565b95989497509550505050565b5f5f5f604084860312156130db575f5ffd5b833567ffffffffffffffff8111156130f1575f5ffd5b6130fd86828701613015565b909790965060209590950135949350505050565b602081525f82518060208401528060208501604085015e5f6040828501015260407fffffffffffffffffffffffffffffffffffffffffffffffffffffffffffffffe0601f83011684010191505092915050565b7f4e487b71000000000000000000000000000000000000000000000000000000005f52601160045260245ffd5b818103818111156109b1576109b1613164565b808201808211156109b1576109b1613164565b80820281158282048414176109b1576109b1613164565b7f4e487b71000000000000000000000000000000000000000000000000000000005f52603260045260245ffd5b805169ffffffffffffffffffff81168114613214575f5ffd5b919050565b5f5f5f5f5f60a0868803121561322d575f5ffd5b613236866131fb565b6020870151604088015160608901519297509095509350915061325b608087016131fb565b90509295509295909350565b5f81518060208401855e5f93019283525090919050565b7f416363657373436f6e74726f6c3a206163636f756e742000000000000000000081525f6132af6017830185613267565b7f206973206d697373696e6720726f6c652000000000000000000000000000000081526132df6011820185613267565b95945050505050565b7f4e487b71000000000000000000000000000000000000000000000000000000005f52604160045260245ffd5b5f8161332357613323613164565b507fffffffffffffffffffffffffffffffffffffffffffffffffffffffffffffffff0190565b7f4e487b71000000000000000000000000000000000000000000000000000000005f52603160045260245ffdfea164736f6c634300081d000a","linkReferences":{}},"methodIdentifiers":{"DEFAULT_ADMIN_ROLE()":"a217fddf","VERSION()":"ffa1ad74","batchCredit(uint256[],uint256)":"b3a90c67","batchRent(uint256[],uint256[])":"a82c356e","continuousCredit(uint256,uint256,uint256)":"1a9d70f6","credit(uint256,uint256)":"ab7ccc1c","deprecationTimestamp()":"2c39d670","ethUsdPrice()":"9478ab8c","fixedEthUsdPrice()":"b0949137","getRoleAdmin(bytes32)":"248a9ca3","getRoleMember(bytes32,uint256)":"9010d07c","getRoleMemberCount(bytes32)":"ca15c873","grantRole(bytes32,address)":"2f2ff15d","hasRole(bytes32,address)":"91d14854","lastPriceFeedUpdateBlock()":"64996ed8","lastPriceFeedUpdateTime()":"cf980c00","maxUnits()":"06517a29","pause()":"8456cb59","paused()":"5c975abb","prevEthUsdPrice()":"78888e41","price(uint256)":"26a49e37","priceFeed()":"741bef1a","priceFeedCacheDuration()":"c2e46fe0","priceFeedMaxAge()":"41392be8","priceFeedMaxAnswer()":"e19a963f","priceFeedMinAnswer()":"7c01fc4d","refreshPrice()":"3c67a5b2","renounceRole(bytes32,address)":"36568abe","rent(uint256,uint256)":"783a112b","rentedUnits()":"2751c4fd","revokeRole(bytes32,address)":"d547741f","setCacheDuration(uint256)":"194e9951","setDeprecationTimestamp(uint256)":"8d567f86","setFixedEthUsdPrice(uint256)":"8611e6e7","setGracePeriod(uint256)":"f2f65960","setMaxAge(uint256)":"5ae28fc9","setMaxAnswer(uint256)":"4fbd1282","setMaxUnits(uint256)":"d285e8fd","setMinAnswer(uint256)":"4375948c","setPrice(uint256)":"91b7f5ed","setPriceFeed(address)":"724e78da","setUptimeFeed(address)":"e75b434b","setVault(address)":"6817031b","supportsInterface(bytes4)":"01ffc9a7","unitPrice()":"e73faa2d","unpause()":"3f4ba83a","uptimeFeed()":"3b56125c","uptimeFeedGracePeriod()":"7078cc1c","usdUnitPrice()":"40df0ba0","vault()":"fbfa77cf","withdraw(uint256)":"2e1a7d4d"},"id":71}