{"abi":[{"type":"constructor","inputs":[{"name":"_url","type":"string","internalType":"string"},{"name":"_signer","type":"address","internalType":"address"},{"name":"_initialOwner","type":"address","internalType":"address"}],"stateMutability":"nonpayable"},{"type":"function","name":"USERNAME_PROOF_TYPEHASH","inputs":[],"outputs":[{"name":"","type":"bytes32","internalType":"bytes32"}],"stateMutability":"view"},{"type":"function","name":"VERSION","inputs":[],"outputs":[{"name":"","type":"string","internalType":"string"}],"stateMutability":"view"},{"type":"function","name":"acceptOwnership","inputs":[],"outputs":[],"stateMutability":"nonpayable"},{"type":"function","name":"addSigner","inputs":[{"name":"signer","type":"address","internalType":"address"}],"outputs":[],"stateMutability":"nonpayable"},{"type":"function","name":"domainSeparatorV4","inputs":[],"outputs":[{"name":"","type":"bytes32","internalType":"bytes32"}],"stateMutability":"view"},{"type":"function","name":"eip712Domain","inputs":[],"outputs":[{"name":"fields","type":"bytes1","internalType":"bytes1"},{"name":"name","type":"string","internalType":"string"},{"name":"version","type":"string","internalType":"string"},{"name":"chainId","type":"uint256","internalType":"uint256"},{"name":"verifyingContract","type":"address","internalType":"address"},{"name":"salt","type":"bytes32","internalType":"bytes32"},{"name":"extensions","type":"uint256[]","internalType":"uint256[]"}],"stateMutability":"view"},{"type":"function","name":"hashTypedDataV4","inputs":[{"name":"structHash","type":"bytes32","internalType":"bytes32"}],"outputs":[{"name":"","type":"bytes32","internalType":"bytes32"}],"stateMutability":"view"},{"type":"function","name":"owner","inputs":[],"outputs":[{"name":"","type":"address","internalType":"address"}],"stateMutability":"view"},{"type":"function","name":"pendingOwner","inputs":[],"outputs":[{"name":"","type":"address","internalType":"address"}],"stateMutability":"view"},{"type":"function","name":"removeSigner","inputs":[{"name":"signer","type":"address","internalType":"address"}],"outputs":[],"stateMutability":"nonpayable"},{"type":"function","name":"renounceOwnership","inputs":[],"outputs":[],"stateMutability":"nonpayable"},{"type":"function","name":"resolve","inputs":[{"name":"name","type":"bytes","internalType":"bytes"},{"name":"data","type":"bytes","internalType":"bytes"}],"outputs":[{"name":"","type":"bytes","internalType":"bytes"}],"stateMutability":"view"},{"type":"function","name":"resolveWithProof","inputs":[{"name":"response","type":"bytes","internalType":"bytes"},{"name":"","type":"bytes","internalType":"bytes"}],"outputs":[{"name":"","type":"bytes","internalType":"bytes"}],"stateMutability":"view"},{"type":"function","name":"signers","inputs":[{"name":"signer","type":"address","internalType":"address"}],"outputs":[{"name":"isAuthorized","type":"bool","internalType":"bool"}],"stateMutability":"view"},{"type":"function","name":"supportsInterface","inputs":[{"name":"interfaceId","type":"bytes4","internalType":"bytes4"}],"outputs":[{"name":"","type":"bool","internalType":"bool"}],"stateMutability":"view"},{"type":"function","name":"transferOwnership","inputs":[{"name":"newOwner","type":"address","internalType":"address"}],"outputs":[],"stateMutability":"nonpayable"},{"type":"function","name":"url","inputs":[],"outputs":[{"name":"","type":"string","internalType":"string"}],"stateMutability":"view"},{"type":"event","name":"AddSigner","inputs":[{"name":"signer","type":"address","indexed":true,"internalType":"address"}],"anonymous":false},{"type":"event","name":"EIP712DomainChanged","inputs":[],"anonymous":false},{"type":"event","name":"OwnershipTransferStarted","inputs":[{"name":"previousOwner","type":"address","indexed":true,"internalType":"address"},{"name":"newOwner","type":"address","indexed":true,"internalType":"address"}],"anonymous":false},{"type":"event","name":"OwnershipTransferred","inputs":[{"name":"previousOwner","type":"address","indexed":true,"internalType":"address"},{"name":"newOwner","type":"address","indexed":true,"internalType":"address"}],"anonymous":false},{"type":"event","name":"RemoveSigner","inputs":[{"name":"signer","type":"address","indexed":true,"internalType":"address"}],"anonymous":false},{"type":"error","name":"InvalidShortString","inputs":[]},{"type":"error","name":"InvalidSigner","inputs":[]},{"type":"error","name":"OffchainLookup","inputs":[{"name":"sender","type":"address","internalType":"address"},{"name":"urls","type":"string[]","internalType":"string[]"},{"name":"callData","type":"bytes","internalType":"bytes"},{"name":"callbackFunction","type":"bytes4","internalType":"bytes4"},{"name":"extraData","type":"bytes","internalType":"bytes"}]},{"type":"error","name":"ResolverFunctionNotSupported","inputs":[]},{"type":"error","name":"StringTooLong","inputs":[{"name":"str","type":"string","internalType":"string"}]}],"bytecode":{"object":"0x610160604052348015610010575f5ffd5b50604051611d91380380611d9183398101604081905261002f916102b2565b604080518082018252601b81527f466172636173746572206e616d6520766572696669636174696f6e0000000000602080830191909152825180840190935260018352603160f81b90830152908181610088825f61019e565b6101205261009781600161019e565b61014052815160208084019190912060e052815190820120610100524660a05261012360e05161010051604080517f8b73c3c69bb8fe3d512ecc4cf759cc79239f7b179b0ffacaa9a75d522b39400f60208201529081019290925260608201524660808201523060a08201525f9060c00160405160208183030381529060405280519060200120905090565b60805250503060c052506101389050336101d0565b610141816101d0565b600461014d8482610406565b506001600160a01b0382165f81815260056020526040808220805460ff19166001179055517f637c77a2d598a51d085d4a2413332c45a235a25ee855bf3dfcdc2c8fcf02860f9190a2505050610518565b5f6020835110156101b9576101b2836101ec565b90506101ca565b816101c48482610406565b5060ff90505b92915050565b600380546001600160a01b03191690556101e981610232565b50565b5f5f829050601f8151111561021f578260405163305a27a960e01b815260040161021691906104c0565b60405180910390fd5b805161022a826104f5565b179392505050565b600280546001600160a01b038381166001600160a01b0319831681179093556040519116919082907f8be0079c531659141344cd1fd0a4f28419497f9722a3daafe3b4186f6b6457e0905f90a35050565b634e487b7160e01b5f52604160045260245ffd5b80516001600160a01b03811681146102ad575f5ffd5b919050565b5f5f5f606084860312156102c4575f5ffd5b83516001600160401b038111156102d9575f5ffd5b8401601f810186136102e9575f5ffd5b80516001600160401b0381111561030257610302610283565b604051601f8201601f19908116603f011681016001600160401b038111828210171561033057610330610283565b604052818152828201602001881015610347575f5ffd5b8160208401602083015e5f6020838301015280955050505061036b60208501610297565b915061037960408501610297565b90509250925092565b600181811c9082168061039657607f821691505b6020821081036103b457634e487b7160e01b5f52602260045260245ffd5b50919050565b601f82111561040157805f5260205f20601f840160051c810160208510156103df5750805b601f840160051c820191505b818110156103fe575f81556001016103eb565b50505b505050565b81516001600160401b0381111561041f5761041f610283565b6104338161042d8454610382565b846103ba565b6020601f821160018114610465575f831561044e5750848201515b5f19600385901b1c1916600184901b1784556103fe565b5f84815260208120601f198516915b828110156104945787850151825560209485019460019092019101610474565b50848210156104b157868401515f19600387901b60f8161c191681555b50505050600190811b01905550565b602081525f82518060208401528060208501604085015e5f604082850101526040601f19601f83011684010191505092915050565b805160208083015191908110156103b4575f1960209190910360031b1b16919050565b60805160a05160c05160e0516101005161012051610140516118286105695f395f6105a801525f61057e01525f610cc701525f610c9f01525f610bfa01525f610c2401525f610c4e01526118285ff3fe608060405234801561000f575f5ffd5b5060043610610115575f3560e01c806384b0196e116100ad578063e30c39781161007d578063f2fde38b11610063578063f2fde38b1461028b578063f4d4d2f81461029e578063ffa1ad74146102b1575f5ffd5b8063e30c39781461025a578063eb12d61e14610278575f5ffd5b806384b0196e146101c65780638da5cb5b146101e15780639061b92314610220578063ccecbc8014610233575f5ffd5b8063715018a6116100e8578063715018a61461018c578063736c0d5b1461019457806378e890ba146101b657806379ba5097146101be575f5ffd5b806301ffc9a7146101195780630e316ab7146101415780634980f288146101565780635600f04f14610177575b5f5ffd5b61012c6101273660046111b2565b6102ed565b60405190151581526020015b60405180910390f35b61015461014f366004611219565b610385565b005b610169610164366004611234565b610400565b604051908152602001610138565b61017f61040a565b6040516101389190611297565b610154610496565b61012c6101a2366004611219565b60056020525f908152604090205460ff1681565b6101696104a9565b6101546104b7565b6101ce610571565b60405161013897969594939291906112a9565b60025473ffffffffffffffffffffffffffffffffffffffff165b60405173ffffffffffffffffffffffffffffffffffffffff9091168152602001610138565b61017f61022e3660046113a6565b610613565b6101697ff4ee36a16c98e12a56b8ff57705cc73c0d6b2a380e9a10727e33386d3e3029b081565b60035473ffffffffffffffffffffffffffffffffffffffff166101fb565b610154610286366004611219565b610864565b610154610299366004611219565b6108e2565b61017f6102ac3660046113a6565b610992565b61017f6040518060400160405280600a81526020017f323032332e30382e32330000000000000000000000000000000000000000000081525081565b5f7fffffffff0000000000000000000000000000000000000000000000000000000082167f9061b92300000000000000000000000000000000000000000000000000000000148061037f57507f01ffc9a7000000000000000000000000000000000000000000000000000000007fffffffff000000000000000000000000000000000000000000000000000000008316145b92915050565b61038d610ae8565b73ffffffffffffffffffffffffffffffffffffffff81165f8181526005602052604080822080547fffffffffffffffffffffffffffffffffffffffffffffffffffffffffffffff00169055517f1803740ef72fc16e647c10fe2d31cf61a1578081960c2e3fb7f5aa957e82f5509190a250565b5f61037f82610b69565b6004805461041790611412565b80601f016020809104026020016040519081016040528092919081815260200182805461044390611412565b801561048e5780601f106104655761010080835404028352916020019161048e565b820191905f5260205f20905b81548152906001019060200180831161047157829003601f168201915b505050505081565b61049e610ae8565b6104a75f610bb0565b565b5f6104b2610be1565b905090565b600354339073ffffffffffffffffffffffffffffffffffffffff168114610565576040517f08c379a000000000000000000000000000000000000000000000000000000000815260206004820152602960248201527f4f776e61626c6532537465703a2063616c6c6572206973206e6f74207468652060448201527f6e6577206f776e6572000000000000000000000000000000000000000000000060648201526084015b60405180910390fd5b61056e81610bb0565b50565b5f606080828080836105a37f000000000000000000000000000000000000000000000000000000000000000083610d17565b6105ce7f00000000000000000000000000000000000000000000000000000000000000006001610d17565b604080515f808252602082019092527f0f000000000000000000000000000000000000000000000000000000000000009b939a50919850469750309650945092509050565b60607f3b3b57de0000000000000000000000000000000000000000000000000000000061064360045f8587611490565b61064c916114b7565b7fffffffff0000000000000000000000000000000000000000000000000000000016146106a5576040517f7fa63fed00000000000000000000000000000000000000000000000000000000815260040160405180910390fd5b5f858585856040516024016106bd9493929190611564565b604080517fffffffffffffffffffffffffffffffffffffffffffffffffffffffffffffffe0818403018152918152602080830180517bffffffffffffffffffffffffffffffffffffffffffffffffffffffff167f9061b92300000000000000000000000000000000000000000000000000000000179052815160018082528184019093529293505f92919082015b606081526020019060019003908161074b5790505090506004805461076f90611412565b80601f016020809104026020016040519081016040528092919081815260200182805461079b90611412565b80156107e65780601f106107bd576101008083540402835291602001916107e6565b820191905f5260205f20905b8154815290600101906020018083116107c957829003601f168201915b5050505050815f815181106107fd576107fd611595565b60209081029190910101526040517f556f183000000000000000000000000000000000000000000000000000000000815261055c903090839085907ff4d4d2f8000000000000000000000000000000000000000000000000000000009082906004016115c2565b61086c610ae8565b73ffffffffffffffffffffffffffffffffffffffff81165f8181526005602052604080822080547fffffffffffffffffffffffffffffffffffffffffffffffffffffffffffffff00166001179055517f637c77a2d598a51d085d4a2413332c45a235a25ee855bf3dfcdc2c8fcf02860f9190a250565b6108ea610ae8565b6003805473ffffffffffffffffffffffffffffffffffffffff83167fffffffffffffffffffffffff0000000000000000000000000000000000000000909116811790915561094d60025473ffffffffffffffffffffffffffffffffffffffff1690565b73ffffffffffffffffffffffffffffffffffffffff167f38d16b8cac22d99fc7c124b9cd0de2d3fa1faef420bfe791d8c362d765e2270060405160405180910390a350565b60605f8080806109a4888a018a611746565b93509350935093505f7ff4ee36a16c98e12a56b8ff57705cc73c0d6b2a380e9a10727e33386d3e3029b085805190602001208585604051602001610a1794939291909384526020840192909252604083015273ffffffffffffffffffffffffffffffffffffffff16606082015260800190565b6040516020818303038152906040528051906020012090505f610a3982610b69565b90505f610a468285610dc1565b73ffffffffffffffffffffffffffffffffffffffff81165f9081526005602052604090205490915060ff16610aa7576040517f815e1d6400000000000000000000000000000000000000000000000000000000815260040160405180910390fd5b6040805173ffffffffffffffffffffffffffffffffffffffff8716602082015201604051602081830303815290604052975050505050505050949350505050565b60025473ffffffffffffffffffffffffffffffffffffffff1633146104a7576040517f08c379a000000000000000000000000000000000000000000000000000000000815260206004820181905260248201527f4f776e61626c653a2063616c6c6572206973206e6f7420746865206f776e6572604482015260640161055c565b5f61037f610b75610be1565b836040517f19010000000000000000000000000000000000000000000000000000000000008152600281019290925260228201526042902090565b600380547fffffffffffffffffffffffff000000000000000000000000000000000000000016905561056e81610de3565b5f3073ffffffffffffffffffffffffffffffffffffffff7f000000000000000000000000000000000000000000000000000000000000000016148015610c4657507f000000000000000000000000000000000000000000000000000000000000000046145b15610c7057507f000000000000000000000000000000000000000000000000000000000000000090565b6104b2604080517f8b73c3c69bb8fe3d512ecc4cf759cc79239f7b179b0ffacaa9a75d522b39400f60208201527f0000000000000000000000000000000000000000000000000000000000000000918101919091527f000000000000000000000000000000000000000000000000000000000000000060608201524660808201523060a08201525f9060c00160405160208183030381529060405280519060200120905090565b606060ff8314610d3157610d2a83610e59565b905061037f565b818054610d3d90611412565b80601f0160208091040260200160405190810160405280929190818152602001828054610d6990611412565b8015610db45780601f10610d8b57610100808354040283529160200191610db4565b820191905f5260205f20905b815481529060010190602001808311610d9757829003601f168201915b5050505050905092915050565b5f5f5f610dce8585610e96565b91509150610ddb81610ed8565b509392505050565b6002805473ffffffffffffffffffffffffffffffffffffffff8381167fffffffffffffffffffffffff0000000000000000000000000000000000000000831681179093556040519116919082907f8be0079c531659141344cd1fd0a4f28419497f9722a3daafe3b4186f6b6457e0905f90a35050565b60605f610e658361108a565b6040805160208082528183019092529192505f91906020820181803683375050509182525060208101929092525090565b5f5f8251604103610eca576020830151604084015160608501515f1a610ebe878285856110ca565b94509450505050610ed1565b505f905060025b9250929050565b5f816004811115610eeb57610eeb6117ee565b03610ef35750565b6001816004811115610f0757610f076117ee565b03610f6e576040517f08c379a000000000000000000000000000000000000000000000000000000000815260206004820152601860248201527f45434453413a20696e76616c6964207369676e61747572650000000000000000604482015260640161055c565b6002816004811115610f8257610f826117ee565b03610fe9576040517f08c379a000000000000000000000000000000000000000000000000000000000815260206004820152601f60248201527f45434453413a20696e76616c6964207369676e6174757265206c656e67746800604482015260640161055c565b6003816004811115610ffd57610ffd6117ee565b0361056e576040517f08c379a000000000000000000000000000000000000000000000000000000000815260206004820152602260248201527f45434453413a20696e76616c6964207369676e6174757265202773272076616c60448201527f7565000000000000000000000000000000000000000000000000000000000000606482015260840161055c565b5f60ff8216601f81111561037f576040517fb3512b0c00000000000000000000000000000000000000000000000000000000815260040160405180910390fd5b5f807f7fffffffffffffffffffffffffffffff5d576e7357a4501ddfe92f46681b20a08311156110ff57505f905060036111a9565b604080515f8082526020820180845289905260ff881692820192909252606081018690526080810185905260019060a0016020604051602081039080840390855afa158015611150573d5f5f3e3d5ffd5b50506040517fffffffffffffffffffffffffffffffffffffffffffffffffffffffffffffffe0015191505073ffffffffffffffffffffffffffffffffffffffff81166111a3575f600192509250506111a9565b91505f90505b94509492505050565b5f602082840312156111c2575f5ffd5b81357fffffffff00000000000000000000000000000000000000000000000000000000811681146111f1575f5ffd5b9392505050565b73ffffffffffffffffffffffffffffffffffffffff8116811461056e575f5ffd5b5f60208284031215611229575f5ffd5b81356111f1816111f8565b5f60208284031215611244575f5ffd5b5035919050565b5f81518084528060208401602086015e5f6020828601015260207fffffffffffffffffffffffffffffffffffffffffffffffffffffffffffffffe0601f83011685010191505092915050565b602081525f6111f1602083018461124b565b7fff000000000000000000000000000000000000000000000000000000000000008816815260e060208201525f6112e360e083018961124b565b82810360408401526112f5818961124b565b6060840188905273ffffffffffffffffffffffffffffffffffffffff8716608085015260a0840186905283810360c0850152845180825260208087019350909101905f5b81811015611357578351835260209384019390920191600101611339565b50909b9a5050505050505050505050565b5f5f83601f840112611378575f5ffd5b50813567ffffffffffffffff81111561138f575f5ffd5b602083019150836020828501011115610ed1575f5ffd5b5f5f5f5f604085870312156113b9575f5ffd5b843567ffffffffffffffff8111156113cf575f5ffd5b6113db87828801611368565b909550935050602085013567ffffffffffffffff8111156113fa575f5ffd5b61140687828801611368565b95989497509550505050565b600181811c9082168061142657607f821691505b60208210810361145d577f4e487b71000000000000000000000000000000000000000000000000000000005f52602260045260245ffd5b50919050565b7f4e487b71000000000000000000000000000000000000000000000000000000005f52604160045260245ffd5b5f5f8585111561149e575f5ffd5b838611156114aa575f5ffd5b5050820193919092039150565b80357fffffffff000000000000000000000000000000000000000000000000000000008116906004841015611516577fffffffff00000000000000000000000000000000000000000000000000000000808560040360031b1b82161691505b5092915050565b81835281816020850137505f602082840101525f60207fffffffffffffffffffffffffffffffffffffffffffffffffffffffffffffffe0601f840116840101905092915050565b604081525f61157760408301868861151d565b828103602084015261158a81858761151d565b979650505050505050565b7f4e487b71000000000000000000000000000000000000000000000000000000005f52603260045260245ffd5b5f60a0820173ffffffffffffffffffffffffffffffffffffffff8816835260a0602084015280875180835260c08501915060c08160051b8601019250602089015f5b82811015611653577fffffffffffffffffffffffffffffffffffffffffffffffffffffffffffffff4087860301845261163e85835161124b565b94506020938401939190910190600101611604565b505050508281036040840152611669818761124b565b7fffffffff0000000000000000000000000000000000000000000000000000000086166060850152905082810360808401526116a5818561124b565b98975050505050505050565b5f5f67ffffffffffffffff8411156116cb576116cb611463565b506040517fffffffffffffffffffffffffffffffffffffffffffffffffffffffffffffffe0601f85018116603f0116810181811067ffffffffffffffff8211171561171857611718611463565b60405283815290508082840185101561172f575f5ffd5b838360208301375f60208583010152509392505050565b5f5f5f5f60808587031215611759575f5ffd5b843567ffffffffffffffff81111561176f575f5ffd5b8501601f8101871361177f575f5ffd5b61178e878235602084016116b1565b9450506020850135925060408501356117a6816111f8565b9150606085013567ffffffffffffffff8111156117c1575f5ffd5b85015f601f820188136117d2575f5ffd5b6117e1888335602085016116b1565b9598949750929550505050565b7f4e487b71000000000000000000000000000000000000000000000000000000005f52602160045260245ffdfea164736f6c634300081d000a","linkReferences":{}},"methodIdentifiers":{"USERNAME_PROOF_TYPEHASH()":"ccecbc80","VERSION()":"ffa1ad74","acceptOwnership()":"79ba5097","addSigner(address)":"eb12d61e","domainSeparatorV4()":"78e890ba","eip712Domain()":"84b0196e","hashTypedDataV4(bytes32)":"4980f288","owner()":"8da5cb5b","pendingOwner()":"e30c3978","removeSigner(address)":"0e316ab7","renounceOwnership()":"715018a6","resolve(bytes,bytes)":"9061b923","resolveWithProof(bytes,bytes)":"f4d4d2f8","signers(address)":"736c0d5b","supportsInterface(bytes4)":"01ffc9a7","transferOwnership(address)":"f2fde38b","url()":"5600f04f"},"id":65}