{"abi":[{"type":"constructor","inputs":[{"name":"_idGateway","type":"address","internalType":"address"},{"name":"_keyGateway","type":"address","internalType":"address"}],"stateMutability":"nonpayable"},{"type":"receive","stateMutability":"payable"},{"type":"function","name":"VERSION","inputs":[],"outputs":[{"name":"","type":"string","internalType":"string"}],"stateMutability":"view"},{"type":"function","name":"addKeys","inputs":[{"name":"fidOwner","type":"address","internalType":"address"},{"name":"signerParams","type":"tuple[]","internalType":"struct IBundler.SignerParams[]","components":[{"name":"keyType","type":"uint32","internalType":"uint32"},{"name":"key","type":"bytes","internalType":"bytes"},{"name":"metadataType","type":"uint8","internalType":"uint8"},{"name":"metadata","type":"bytes","internalType":"bytes"},{"name":"deadline","type":"uint256","internalType":"uint256"},{"name":"sig","type":"bytes","internalType":"bytes"}]}],"outputs":[],"stateMutability":"nonpayable"},{"type":"function","name":"idGateway","inputs":[],"outputs":[{"name":"","type":"address","internalType":"contract IIdGateway"}],"stateMutability":"view"},{"type":"function","name":"keyGateway","inputs":[],"outputs":[{"name":"","type":"address","internalType":"contract IKeyGateway"}],"stateMutability":"view"},{"type":"function","name":"price","inputs":[{"name":"extraStorage","type":"uint256","internalType":"uint256"}],"outputs":[{"name":"","type":"uint256","internalType":"uint256"}],"stateMutability":"view"},{"type":"function","name":"register","inputs":[{"name":"registerParams","type":"tuple","internalType":"struct IBundler.RegistrationParams","components":[{"name":"to","type":"address","internalType":"address"},{"name":"recovery","type":"address","internalType":"address"},{"name":"deadline","type":"uint256","internalType":"uint256"},{"name":"sig","type":"bytes","internalType":"bytes"}]},{"name":"signerParams","type":"tuple[]","internalType":"struct IBundler.SignerParams[]","components":[{"name":"keyType","type":"uint32","internalType":"uint32"},{"name":"key","type":"bytes","internalType":"bytes"},{"name":"metadataType","type":"uint8","internalType":"uint8"},{"name":"metadata","type":"bytes","internalType":"bytes"},{"name":"deadline","type":"uint256","internalType":"uint256"},{"name":"sig","type":"bytes","internalType":"bytes"}]},{"name":"extraStorage","type":"uint256","internalType":"uint256"}],"outputs":[{"name":"","type":"uint256","internalType":"uint256"}],"stateMutability":"payable"},{"type":"error","name":"CallFailed","inputs":[]},{"type":"error","name":"Unauthorized","inputs":[]}],"bytecode":{"object":"0x60c060405234801561000f575f5ffd5b50604051610a5a380380610a5a83398101604081905261002e91610060565b6001600160a01b039182166080521660a052610091565b80516001600160a01b038116811461005b575f5ffd5b919050565b5f5f60408385031215610071575f5ffd5b61007a83610045565b915061008860208401610045565b90509250929050565b60805160a05161098d6100cd5f395f818161019a015261043901525f8181608301528181610142015281816102550152610303015261098d5ff3fe608060405260043610610066575f3560e01c806380334737116100415780638033473714610189578063a44c9ce7146101bc578063ffa1ad74146101cf575f5ffd5b806326a49e37146100e0578063455d0131146101125780634b57a60014610131575f5ffd5b366100dc573373ffffffffffffffffffffffffffffffffffffffff7f000000000000000000000000000000000000000000000000000000000000000016146100da576040517f82b4290000000000000000000000000000000000000000000000000000000000815260040160405180910390fd5b005b5f5ffd5b3480156100eb575f5ffd5b506100ff6100fa36600461054f565b610224565b6040519081526020015b60405180910390f35b34801561011d575f5ffd5b506100da61012c3660046105d6565b6102d9565b34801561013c575f5ffd5b506101647f000000000000000000000000000000000000000000000000000000000000000081565b60405173ffffffffffffffffffffffffffffffffffffffff9091168152602001610109565b348015610194575f5ffd5b506101647f000000000000000000000000000000000000000000000000000000000000000081565b6100ff6101ca366004610625565b6102e9565b3480156101da575f5ffd5b506102176040518060400160405280600a81526020017f323032352e30362e31360000000000000000000000000000000000000000000081525081565b6040516101099190610699565b6040517f26a49e37000000000000000000000000000000000000000000000000000000008152600481018290525f907f000000000000000000000000000000000000000000000000000000000000000073ffffffffffffffffffffffffffffffffffffffff16906326a49e3790602401602060405180830381865afa1580156102af573d5f5f3e3d5ffd5b505050506040513d601f19601f820116820180604052508101906102d391906106ec565b92915050565b6102e48383836103f0565b505050565b5f808073ffffffffffffffffffffffffffffffffffffffff7f00000000000000000000000000000000000000000000000000000000000000001663a0c7529c3461033660208b018b610703565b61034660408c0160208d01610703565b60408c013561035860608e018e610723565b8b6040518863ffffffff1660e01b815260040161037a969594939291906107cb565b604080518083038185885af1158015610395573d5f5f3e3d5ffd5b50505050506040513d601f19601f820116820180604052508101906103ba919061082f565b90925090506103d66103cf6020890189610703565b87876103f0565b80156103e6576103e6338261050d565b5095945050505050565b805f5b81811015610506573684848381811061040e5761040e610851565b9050602002810190610420919061087e565b905073ffffffffffffffffffffffffffffffffffffffff7f00000000000000000000000000000000000000000000000000000000000000001663a005d3d28761046c60208501856108ba565b6104796020860186610723565b61048960608801604089016108dd565b6104966060890189610723565b60808a01356104a860a08c018c610723565b6040518b63ffffffff1660e01b81526004016104cd9a999897969594939291906108fd565b5f604051808303815f87803b1580156104e4575f5ffd5b505af11580156104f6573d5f5f3e3d5ffd5b50505050508060010190506103f3565b5050505050565b5f5f5f5f5f85875af19050806102e4576040517f3204506f00000000000000000000000000000000000000000000000000000000815260040160405180910390fd5b5f6020828403121561055f575f5ffd5b5035919050565b803573ffffffffffffffffffffffffffffffffffffffff81168114610589575f5ffd5b919050565b5f5f83601f84011261059e575f5ffd5b50813567ffffffffffffffff8111156105b5575f5ffd5b6020830191508360208260051b85010111156105cf575f5ffd5b9250929050565b5f5f5f604084860312156105e8575f5ffd5b6105f184610566565b9250602084013567ffffffffffffffff81111561060c575f5ffd5b6106188682870161058e565b9497909650939450505050565b5f5f5f5f60608587031215610638575f5ffd5b843567ffffffffffffffff81111561064e575f5ffd5b85016080818803121561065f575f5ffd5b9350602085013567ffffffffffffffff81111561067a575f5ffd5b6106868782880161058e565b9598909750949560400135949350505050565b602081525f82518060208401528060208501604085015e5f6040828501015260407fffffffffffffffffffffffffffffffffffffffffffffffffffffffffffffffe0601f83011684010191505092915050565b5f602082840312156106fc575f5ffd5b5051919050565b5f60208284031215610713575f5ffd5b61071c82610566565b9392505050565b5f5f83357fffffffffffffffffffffffffffffffffffffffffffffffffffffffffffffffe1843603018112610756575f5ffd5b83018035915067ffffffffffffffff821115610770575f5ffd5b6020019150368190038213156105cf575f5ffd5b81835281816020850137505f602082840101525f60207fffffffffffffffffffffffffffffffffffffffffffffffffffffffffffffffe0601f840116840101905092915050565b73ffffffffffffffffffffffffffffffffffffffff8716815273ffffffffffffffffffffffffffffffffffffffff8616602082015284604082015260a060608201525f61081c60a083018587610784565b9050826080830152979650505050505050565b5f5f60408385031215610840575f5ffd5b505080516020909101519092909150565b7f4e487b71000000000000000000000000000000000000000000000000000000005f52603260045260245ffd5b5f82357fffffffffffffffffffffffffffffffffffffffffffffffffffffffffffffff418336030181126108b0575f5ffd5b9190910192915050565b5f602082840312156108ca575f5ffd5b813563ffffffff8116811461071c575f5ffd5b5f602082840312156108ed575f5ffd5b813560ff8116811461071c575f5ffd5b73ffffffffffffffffffffffffffffffffffffffff8b16815263ffffffff8a16602082015260e060408201525f61093860e083018a8c610784565b60ff89166060840152828103608084015261095481888a610784565b90508560a084015282810360c084015261096f818587610784565b9d9c5050505050505050505050505056fea164736f6c634300081d000a","linkReferences":{}},"methodIdentifiers":{"VERSION()":"ffa1ad74","addKeys(address,(uint32,bytes,uint8,bytes,uint256,bytes)[])":"455d0131","idGateway()":"4b57a600","keyGateway()":"80334737","price(uint256)":"26a49e37","register((address,address,uint256,bytes),(uint32,bytes,uint8,bytes,uint256,bytes)[],uint256)":"a44c9ce7"},"id":63}