{"abi":[{"type":"constructor","inputs":[{"name":"_idGateway","type":"address","internalType":"address"},{"name":"_keyGateway","type":"address","internalType":"address"}],"stateMutability":"nonpayable"},{"type":"receive","stateMutability":"payable"},{"type":"function","name":"VERSION","inputs":[],"outputs":[{"name":"","type":"string","internalType":"string"}],"stateMutability":"view"},{"type":"function","name":"idGateway","inputs":[],"outputs":[{"name":"","type":"address","internalType":"contract IIdGateway"}],"stateMutability":"view"},{"type":"function","name":"keyGateway","inputs":[],"outputs":[{"name":"","type":"address","internalType":"contract IKeyGateway"}],"stateMutability":"view"},{"type":"function","name":"price","inputs":[{"name":"extraStorage","type":"uint256","internalType":"uint256"}],"outputs":[{"name":"","type":"uint256","internalType":"uint256"}],"stateMutability":"view"},{"type":"function","name":"register","inputs":[{"name":"registerParams","type":"tuple","internalType":"struct IBundlerV1.RegistrationParams","components":[{"name":"to","type":"address","internalType":"address"},{"name":"recovery","type":"address","internalType":"address"},{"name":"deadline","type":"uint256","internalType":"uint256"},{"name":"sig","type":"bytes","internalType":"bytes"}]},{"name":"signerParams","type":"tuple[]","internalType":"struct IBundlerV1.SignerParams[]","components":[{"name":"keyType","type":"uint32","internalType":"uint32"},{"name":"key","type":"bytes","internalType":"bytes"},{"name":"metadataType","type":"uint8","internalType":"uint8"},{"name":"metadata","type":"bytes","internalType":"bytes"},{"name":"deadline","type":"uint256","internalType":"uint256"},{"name":"sig","type":"bytes","internalType":"bytes"}]},{"name":"extraStorage","type":"uint256","internalType":"uint256"}],"outputs":[{"name":"","type":"uint256","internalType":"uint256"}],"stateMutability":"payable"},{"type":"error","name":"CallFailed","inputs":[]},{"type":"error","name":"Unauthorized","inputs":[]}],"bytecode":{"object":"0x60c060405234801561000f575f5ffd5b506040516109aa3803806109aa83398101604081905261002e91610060565b6001600160a01b039182166080521660a052610091565b80516001600160a01b038116811461005b575f5ffd5b919050565b5f5f60408385031215610071575f5ffd5b61007a83610045565b915061008860208401610045565b90509250929050565b60805160a0516108dd6100cd5f395f818161017001526103ce01525f81816078015281816101180152818161022b01526102c901526108dd5ff3fe60806040526004361061005b575f3560e01c80638033473711610041578063803347371461015f578063a44c9ce714610192578063ffa1ad74146101a5575f5ffd5b806326a49e37146100d55780634b57a60014610107575f5ffd5b366100d1573373ffffffffffffffffffffffffffffffffffffffff7f000000000000000000000000000000000000000000000000000000000000000016146100cf576040517f82b4290000000000000000000000000000000000000000000000000000000000815260040160405180910390fd5b005b5f5ffd5b3480156100e0575f5ffd5b506100f46100ef36600461050b565b6101fa565b6040519081526020015b60405180910390f35b348015610112575f5ffd5b5061013a7f000000000000000000000000000000000000000000000000000000000000000081565b60405173ffffffffffffffffffffffffffffffffffffffff90911681526020016100fe565b34801561016a575f5ffd5b5061013a7f000000000000000000000000000000000000000000000000000000000000000081565b6100f46101a0366004610522565b6102af565b3480156101b0575f5ffd5b506101ed6040518060400160405280600a81526020017f323032332e31312e31350000000000000000000000000000000000000000000081525081565b6040516100fe91906105c8565b6040517f26a49e37000000000000000000000000000000000000000000000000000000008152600481018290525f907f000000000000000000000000000000000000000000000000000000000000000073ffffffffffffffffffffffffffffffffffffffff16906326a49e3790602401602060405180830381865afa158015610285573d5f5f3e3d5ffd5b505050506040513d601f19601f820116820180604052508101906102a9919061061b565b92915050565b5f808073ffffffffffffffffffffffffffffffffffffffff7f00000000000000000000000000000000000000000000000000000000000000001663a0c7529c346102fc60208b018b610632565b61030c60408c0160208d01610632565b60408c013561031e60608e018e61066c565b8b6040518863ffffffff1660e01b81526004016103409695949392919061071b565b604080518083038185885af115801561035b573d5f5f3e3d5ffd5b50505050506040513d601f19601f82011682018060405250810190610380919061077f565b9092509050845f5b818110156104a757368888838181106103a3576103a36107a1565b90506020028101906103b591906107ce565b905073ffffffffffffffffffffffffffffffffffffffff7f00000000000000000000000000000000000000000000000000000000000000001663a005d3d261040060208d018d610632565b61040d602085018561080a565b61041a602086018661066c565b61042a606088016040890161082d565b610437606089018961066c565b60808a013561044960a08c018c61066c565b6040518b63ffffffff1660e01b815260040161046e9a9998979695949392919061084d565b5f604051808303815f87803b158015610485575f5ffd5b505af1158015610497573d5f5f3e3d5ffd5b5050505081600101915050610388565b5081156104b8576104b833836104c4565b50909695505050505050565b5f5f5f5f5f85875af1905080610506576040517f3204506f00000000000000000000000000000000000000000000000000000000815260040160405180910390fd5b505050565b5f6020828403121561051b575f5ffd5b5035919050565b5f5f5f5f60608587031215610535575f5ffd5b843567ffffffffffffffff81111561054b575f5ffd5b85016080818803121561055c575f5ffd5b9350602085013567ffffffffffffffff811115610577575f5ffd5b8501601f81018713610587575f5ffd5b803567ffffffffffffffff81111561059d575f5ffd5b8760208260051b84010111156105b1575f5ffd5b949760209190910196509394604001359392505050565b602081525f82518060208401528060208501604085015e5f6040828501015260407fffffffffffffffffffffffffffffffffffffffffffffffffffffffffffffffe0601f83011684010191505092915050565b5f6020828403121561062b575f5ffd5b5051919050565b5f60208284031215610642575f5ffd5b813573ffffffffffffffffffffffffffffffffffffffff81168114610665575f5ffd5b9392505050565b5f5f83357fffffffffffffffffffffffffffffffffffffffffffffffffffffffffffffffe184360301811261069f575f5ffd5b83018035915067ffffffffffffffff8211156106b9575f5ffd5b6020019150368190038213156106cd575f5ffd5b9250929050565b81835281816020850137505f602082840101525f60207fffffffffffffffffffffffffffffffffffffffffffffffffffffffffffffffe0601f840116840101905092915050565b73ffffffffffffffffffffffffffffffffffffffff8716815273ffffffffffffffffffffffffffffffffffffffff8616602082015284604082015260a060608201525f61076c60a0830185876106d4565b9050826080830152979650505050505050565b5f5f60408385031215610790575f5ffd5b505080516020909101519092909150565b7f4e487b71000000000000000000000000000000000000000000000000000000005f52603260045260245ffd5b5f82357fffffffffffffffffffffffffffffffffffffffffffffffffffffffffffffff41833603018112610800575f5ffd5b9190910192915050565b5f6020828403121561081a575f5ffd5b813563ffffffff81168114610665575f5ffd5b5f6020828403121561083d575f5ffd5b813560ff81168114610665575f5ffd5b73ffffffffffffffffffffffffffffffffffffffff8b16815263ffffffff8a16602082015260e060408201525f61088860e083018a8c6106d4565b60ff8916606084015282810360808401526108a481888a6106d4565b90508560a084015282810360c08401526108bf8185876106d4565b9d9c5050505050505050505050505056fea164736f6c634300081d000a","linkReferences":{}},"methodIdentifiers":{"VERSION()":"ffa1ad74","idGateway()":"4b57a600","keyGateway()":"80334737","price(uint256)":"26a49e37","register((address,address,uint256,bytes),(uint32,bytes,uint8,bytes,uint256,bytes)[],uint256)":"a44c9ce7"},"id":64}