{"abi":[{"type":"constructor","inputs":[{"name":"_migrator","type":"address","internalType":"address"},{"name":"_initialOwner","type":"address","internalType":"address"}],"stateMutability":"nonpayable"},{"type":"function","name":"VERSION","inputs":[],"outputs":[{"name":"","type":"string","internalType":"string"}],"stateMutability":"view"},{"type":"function","name":"acceptOwnership","inputs":[],"outputs":[],"stateMutability":"nonpayable"},{"type":"function","name":"addGuardian","inputs":[{"name":"guardian","type":"address","internalType":"address"}],"outputs":[],"stateMutability":"nonpayable"},{"type":"function","name":"batchCreditTier","inputs":[{"name":"tier","type":"uint256","internalType":"uint256"},{"name":"fids","type":"uint256[]","internalType":"uint256[]"},{"name":"forDays","type":"uint256","internalType":"uint256"}],"outputs":[],"stateMutability":"nonpayable"},{"type":"function","name":"batchPurchaseTier","inputs":[{"name":"tier","type":"uint256","internalType":"uint256"},{"name":"fids","type":"uint256[]","internalType":"uint256[]"},{"name":"forDays","type":"uint256[]","internalType":"uint256[]"}],"outputs":[],"stateMutability":"nonpayable"},{"type":"function","name":"deactivateTier","inputs":[{"name":"tier","type":"uint256","internalType":"uint256"}],"outputs":[],"stateMutability":"nonpayable"},{"type":"function","name":"gracePeriod","inputs":[],"outputs":[{"name":"","type":"uint24","internalType":"uint24"}],"stateMutability":"view"},{"type":"function","name":"guardians","inputs":[{"name":"guardian","type":"address","internalType":"address"}],"outputs":[{"name":"isGuardian","type":"bool","internalType":"bool"}],"stateMutability":"view"},{"type":"function","name":"isMigrated","inputs":[],"outputs":[{"name":"","type":"bool","internalType":"bool"}],"stateMutability":"view"},{"type":"function","name":"migrate","inputs":[],"outputs":[],"stateMutability":"nonpayable"},{"type":"function","name":"migratedAt","inputs":[],"outputs":[{"name":"","type":"uint40","internalType":"uint40"}],"stateMutability":"view"},{"type":"function","name":"migrator","inputs":[],"outputs":[{"name":"","type":"address","internalType":"address"}],"stateMutability":"view"},{"type":"function","name":"nextTierId","inputs":[],"outputs":[{"name":"","type":"uint256","internalType":"uint256"}],"stateMutability":"view"},{"type":"function","name":"owner","inputs":[],"outputs":[{"name":"","type":"address","internalType":"address"}],"stateMutability":"view"},{"type":"function","name":"pause","inputs":[],"outputs":[],"stateMutability":"nonpayable"},{"type":"function","name":"paused","inputs":[],"outputs":[{"name":"","type":"bool","internalType":"bool"}],"stateMutability":"view"},{"type":"function","name":"pendingOwner","inputs":[],"outputs":[{"name":"","type":"address","internalType":"address"}],"stateMutability":"view"},{"type":"function","name":"price","inputs":[{"name":"tier","type":"uint256","internalType":"uint256"},{"name":"forDays","type":"uint256","internalType":"uint256"}],"outputs":[{"name":"","type":"uint256","internalType":"uint256"}],"stateMutability":"view"},{"type":"function","name":"purchaseTier","inputs":[{"name":"fid","type":"uint256","internalType":"uint256"},{"name":"tier","type":"uint256","internalType":"uint256"},{"name":"forDays","type":"uint256","internalType":"uint256"}],"outputs":[],"stateMutability":"nonpayable"},{"type":"function","name":"removeGuardian","inputs":[{"name":"guardian","type":"address","internalType":"address"}],"outputs":[],"stateMutability":"nonpayable"},{"type":"function","name":"renounceOwnership","inputs":[],"outputs":[],"stateMutability":"nonpayable"},{"type":"function","name":"setMigrator","inputs":[{"name":"_migrator","type":"address","internalType":"address"}],"outputs":[],"stateMutability":"nonpayable"},{"type":"function","name":"setTier","inputs":[{"name":"tier","type":"uint256","internalType":"uint256"},{"name":"paymentToken","type":"address","internalType":"address"},{"name":"minDays","type":"uint256","internalType":"uint256"},{"name":"maxDays","type":"uint256","internalType":"uint256"},{"name":"tokenPricePerDay","type":"uint256","internalType":"uint256"},{"name":"vault","type":"address","internalType":"address"}],"outputs":[],"stateMutability":"nonpayable"},{"type":"function","name":"sweepToken","inputs":[{"name":"token","type":"address","internalType":"address"},{"name":"to","type":"address","internalType":"address"}],"outputs":[],"stateMutability":"nonpayable"},{"type":"function","name":"tierInfo","inputs":[{"name":"tier","type":"uint256","internalType":"uint256"}],"outputs":[{"name":"","type":"tuple","internalType":"struct ITierRegistry.TierInfo","components":[{"name":"minDays","type":"uint256","internalType":"uint256"},{"name":"maxDays","type":"uint256","internalType":"uint256"},{"name":"vault","type":"address","internalType":"address"},{"name":"paymentToken","type":"address","internalType":"contract IERC20"},{"name":"tokenPricePerDay","type":"uint256","internalType":"uint256"},{"name":"isActive","type":"bool","internalType":"bool"}]}],"stateMutability":"view"},{"type":"function","name":"transferOwnership","inputs":[{"name":"newOwner","type":"address","internalType":"address"}],"outputs":[],"stateMutability":"nonpayable"},{"type":"function","name":"unpause","inputs":[],"outputs":[],"stateMutability":"nonpayable"},{"type":"event","name":"Add","inputs":[{"name":"guardian","type":"address","indexed":true,"internalType":"address"}],"anonymous":false},{"type":"event","name":"DeactivateTier","inputs":[{"name":"tier","type":"uint256","indexed":true,"internalType":"uint256"}],"anonymous":false},{"type":"event","name":"Migrated","inputs":[{"name":"migratedAt","type":"uint256","indexed":true,"internalType":"uint256"}],"anonymous":false},{"type":"event","name":"OwnershipTransferStarted","inputs":[{"name":"previousOwner","type":"address","indexed":true,"internalType":"address"},{"name":"newOwner","type":"address","indexed":true,"internalType":"address"}],"anonymous":false},{"type":"event","name":"OwnershipTransferred","inputs":[{"name":"previousOwner","type":"address","indexed":true,"internalType":"address"},{"name":"newOwner","type":"address","indexed":true,"internalType":"address"}],"anonymous":false},{"type":"event","name":"Paused","inputs":[{"name":"account","type":"address","indexed":false,"internalType":"address"}],"anonymous":false},{"type":"event","name":"PurchasedTier","inputs":[{"name":"fid","type":"uint256","indexed":true,"internalType":"uint256"},{"name":"tier","type":"uint256","indexed":true,"internalType":"uint256"},{"name":"forDays","type":"uint256","indexed":false,"internalType":"uint256"},{"name":"payer","type":"address","indexed":true,"internalType":"address"}],"anonymous":false},{"type":"event","name":"Remove","inputs":[{"name":"guardian","type":"address","indexed":true,"internalType":"address"}],"anonymous":false},{"type":"event","name":"SetMigrator","inputs":[{"name":"oldMigrator","type":"address","indexed":false,"internalType":"address"},{"name":"newMigrator","type":"address","indexed":false,"internalType":"address"}],"anonymous":false},{"type":"event","name":"SetTier","inputs":[{"name":"tier","type":"uint256","indexed":true,"internalType":"uint256"},{"name":"minDays","type":"uint256","indexed":false,"internalType":"uint256"},{"name":"maxDays","type":"uint256","indexed":false,"internalType":"uint256"},{"name":"vault","type":"address","indexed":false,"internalType":"address"},{"name":"paymentToken","type":"address","indexed":false,"internalType":"address"},{"name":"tokenPricePerDay","type":"uint256","indexed":false,"internalType":"uint256"}],"anonymous":false},{"type":"event","name":"SweepToken","inputs":[{"name":"token","type":"address","indexed":true,"internalType":"address"},{"name":"to","type":"address","indexed":false,"internalType":"address"},{"name":"balance","type":"uint256","indexed":false,"internalType":"uint256"}],"anonymous":false},{"type":"event","name":"Unpaused","inputs":[{"name":"account","type":"address","indexed":false,"internalType":"address"}],"anonymous":false},{"type":"error","name":"AlreadyMigrated","inputs":[]},{"type":"error","name":"InvalidBatchInput","inputs":[]},{"type":"error","name":"InvalidDuration","inputs":[]},{"type":"error","name":"InvalidPrice","inputs":[]},{"type":"error","name":"InvalidTier","inputs":[]},{"type":"error","name":"InvalidTokenAddress","inputs":[]},{"type":"error","name":"InvalidVaultAddress","inputs":[]},{"type":"error","name":"OnlyGuardian","inputs":[]},{"type":"error","name":"OnlyMigrator","inputs":[]},{"type":"error","name":"PermissionRevoked","inputs":[]}],"bytecode":{"object":"0x60a06040526001600555348015610014575f5ffd5b506040516126703803806126708339810160408190526100339161020c565b62015180828280610043336100cd565b6001805460ff60a01b19169055610059816100cd565b5062ffffff8316608052600380546001600160a01b0319166001600160a01b038416908117909155604080515f815260208101929092527fd8ad954fe808212ab9ed7139873e40807dff7995fe36e3d6cdeb8fa00fcebf10910160405180910390a16100c36100e9565b505050505061023d565b600180546001600160a01b03191690556100e681610149565b50565b6100f1610198565b6001805460ff60a01b1916600160a01b1790557f62e78cea01bee320cd4e420270b5ea74000d11b0c9f74754ebdbfc544b05a25861012c3390565b6040516001600160a01b03909116815260200160405180910390a1565b5f80546001600160a01b038381166001600160a01b0319831681178455604051919092169283917f8be0079c531659141344cd1fd0a4f28419497f9722a3daafe3b4186f6b6457e09190a35050565b6101ab600154600160a01b900460ff1690565b156101ef5760405162461bcd60e51b815260206004820152601060248201526f14185d5cd8589b194e881c185d5cd95960821b604482015260640160405180910390fd5b565b80516001600160a01b0381168114610207575f5ffd5b919050565b5f5f6040838503121561021d575f5ffd5b610226836101f1565b9150610234602084016101f1565b90509250929050565b60805161241461025c5f395f818161037a01526113db01526124145ff3fe608060405234801561000f575f5ffd5b50600436106101b0575f3560e01c80638456cb59116100f3578063a526d83b11610093578063e30c39781161006e578063e30c39781461052e578063f2fde38b1461054c578063ffa1ad741461055f578063ffbe86c8146105a8575f5ffd5b8063a526d83b146104df578063b06faf62146104f2578063c34d45c21461051b575f5ffd5b80638da5cb5b116100ce5780638da5cb5b146103505780638fd3ab801461036d578063a06db7dc14610375578063a267c2c4146103b0575f5ffd5b80638456cb59146102f65780638b21e484146102fe5780638bd684ee1461033d575f5ffd5b80633f4ba83a1161015e5780637140415611610139578063714041561461028e578063715018a6146102a157806379ba5097146102a95780637cd07e47146102b1575f5ffd5b80633f4ba83a14610250578063487a2395146102585780635c975abb1461026b575f5ffd5b8063258836fe1161018e578063258836fe146102175780632a9d0dcb1461022a57806332fc154c1461023d575f5ffd5b80630594fd04146101b45780630633b14a146101d057806323cf311814610202575b5f5ffd5b6101bd60055481565b6040519081526020015b60405180910390f35b6101f26101de3660046120b2565b60026020525f908152604090205460ff1681565b60405190151581526020016101c7565b6102156102103660046120b2565b6105bb565b005b6102156102253660046120d2565b6106bf565b610215610238366004612103565b6107d2565b61021561024b36600461219f565b610b94565b610215610e63565b6101bd610266366004612218565b610e75565b60015474010000000000000000000000000000000000000000900460ff166101f2565b61021561029c3660046120b2565b610f39565b610215610fb4565b610215610fc5565b6003546102d19073ffffffffffffffffffffffffffffffffffffffff1681565b60405173ffffffffffffffffffffffffffffffffffffffff90911681526020016101c7565b61021561107f565b6003546103279074010000000000000000000000000000000000000000900464ffffffffff1681565b60405164ffffffffff90911681526020016101c7565b61021561034b366004612238565b6110f4565b5f5473ffffffffffffffffffffffffffffffffffffffff166102d1565b6102156111a8565b61039c7f000000000000000000000000000000000000000000000000000000000000000081565b60405162ffffff90911681526020016101c7565b6104666103be366004612238565b6040805160c0810182525f80825260208201819052918101829052606081018290526080810182905260a0810191909152505f90815260046020818152604092839020835160c08101855281548152600182015492810192909252600281015473ffffffffffffffffffffffffffffffffffffffff908116948301949094526003810154909316606082015290820154608082015260059091015460ff16151560a082015290565b6040516101c791905f60c082019050825182526020830151602083015273ffffffffffffffffffffffffffffffffffffffff604084015116604083015273ffffffffffffffffffffffffffffffffffffffff60608401511660608301526080830151608083015260a0830151151560a083015292915050565b6102156104ed3660046120b2565b6112d8565b60035474010000000000000000000000000000000000000000900464ffffffffff1615156101f2565b61021561052936600461224f565b611356565b60015473ffffffffffffffffffffffffffffffffffffffff166102d1565b61021561055a3660046120b2565b61166a565b61059b6040518060400160405280600a81526020017f323032352e30362e31360000000000000000000000000000000000000000000081525081565b6040516101c7919061229e565b6102156105b63660046122f1565b611719565b6105c3611922565b60035474010000000000000000000000000000000000000000900464ffffffffff161561061c576040517fca1c3cbc00000000000000000000000000000000000000000000000000000000815260040160405180910390fd5b6106246119a2565b6003546040805173ffffffffffffffffffffffffffffffffffffffff928316815291831660208301527fd8ad954fe808212ab9ed7139873e40807dff7995fe36e3d6cdeb8fa00fcebf10910160405180910390a1600380547fffffffffffffffffffffffff00000000000000000000000000000000000000001673ffffffffffffffffffffffffffffffffffffffff92909216919091179055565b6106c7611922565b6040517f70a082310000000000000000000000000000000000000000000000000000000081523060048201525f9073ffffffffffffffffffffffffffffffffffffffff8416906370a0823190602401602060405180830381865afa158015610731573d5f5f3e3d5ffd5b505050506040513d601f19601f82011682018060405250810190610755919061231a565b6040805173ffffffffffffffffffffffffffffffffffffffff858116825260208201849052929350918516917f6d25be279134f4ecaa4770aff0c3d916d9e7c5ef37b65ed95dbdba411f5d54d5910160405180910390a26107cd73ffffffffffffffffffffffffffffffffffffffff84168383611a26565b505050565b6107da611922565b73ffffffffffffffffffffffffffffffffffffffff8516610827576040517f1eb00b0600000000000000000000000000000000000000000000000000000000815260040160405180910390fd5b835f03610860576040517f7616640100000000000000000000000000000000000000000000000000000000815260040160405180910390fd5b825f03610899576040517f7616640100000000000000000000000000000000000000000000000000000000815260040160405180910390fd5b828411156108d3576040517f7616640100000000000000000000000000000000000000000000000000000000815260040160405180910390fd5b815f0361090b576040517ebfc92100000000000000000000000000000000000000000000000000000000815260040160405180910390fd5b73ffffffffffffffffffffffffffffffffffffffff8116610958576040517f0306120100000000000000000000000000000000000000000000000000000000815260040160405180910390fd5b855f03610991576040517fe142361700000000000000000000000000000000000000000000000000000000815260040160405180910390fd5b6005548611156109cd576040517fe142361700000000000000000000000000000000000000000000000000000000815260040160405180910390fd5b604080518581526020810185905273ffffffffffffffffffffffffffffffffffffffff838116828401528716606082015260808101849052905187917f2691848b64bba8bf04a8af7fab363360ce5308065a728bc705732ade88091bf5919081900360a00190a26040518060c001604052808581526020018481526020018273ffffffffffffffffffffffffffffffffffffffff1681526020018673ffffffffffffffffffffffffffffffffffffffff1681526020018381526020016001151581525060045f8881526020019081526020015f205f820151815f0155602082015181600101556040820151816002015f6101000a81548173ffffffffffffffffffffffffffffffffffffffff021916908373ffffffffffffffffffffffffffffffffffffffff1602179055506060820151816003015f6101000a81548173ffffffffffffffffffffffffffffffffffffffff021916908373ffffffffffffffffffffffffffffffffffffffff1602179055506080820151816004015560a0820151816005015f6101000a81548160ff0219169083151502179055509050506005548603610b8c57600160055f828254610b86919061235e565b90915550505b505050505050565b610b9c611afa565b5f839003610bd6576040517f0a514b9900000000000000000000000000000000000000000000000000000000815260040160405180910390fd5b828114610c0f576040517f0a514b9900000000000000000000000000000000000000000000000000000000815260040160405180910390fd5b5f85815260046020818152604092839020835160c08101855281548152600182015492810192909252600281015473ffffffffffffffffffffffffffffffffffffffff908116948301949094526003810154909316606082015290820154608082015260059091015460ff16151560a08201819052610cba576040517fe142361700000000000000000000000000000000000000000000000000000000815260040160405180910390fd5b5f5f5b85811015610e24575f858583818110610cd857610cd8612371565b905060200201359050805f03610d1a576040517f7616640100000000000000000000000000000000000000000000000000000000815260040160405180910390fd5b8351811015610d55576040517f7616640100000000000000000000000000000000000000000000000000000000815260040160405180910390fd5b8360200151811115610d93576040517f7616640100000000000000000000000000000000000000000000000000000000815260040160405180910390fd5b808460800151610da3919061239e565b610dad908461235e565b92503389898985818110610dc357610dc3612371565b905060200201357f793544f1eebcd80eaa24d7c6e32b707488daf4303d0ec3349b34ea9d05323285898987818110610dfd57610dfd612371565b90506020020135604051610e1391815260200190565b60405180910390a450600101610cbd565b50610e5a33836040015183856060015173ffffffffffffffffffffffffffffffffffffffff16611b7f909392919063ffffffff16565b50505050505050565b610e6b611922565b610e73611be3565b565b5f828152600460208181526040808420815160c08101835281548152600182015493810193909352600281015473ffffffffffffffffffffffffffffffffffffffff908116928401929092526003810154909116606083015291820154608082015260059091015460ff16151560a08201819052610f1f576040517fe142361700000000000000000000000000000000000000000000000000000000815260040160405180910390fd5b828160800151610f2f919061239e565b9150505b92915050565b610f41611922565b73ffffffffffffffffffffffffffffffffffffffff81165f8181526002602052604080822080547fffffffffffffffffffffffffffffffffffffffffffffffffffffffffffffff00169055517fbe7c7ac3248df4581c206a84aab3cb4e7d521b5398b42b681757f78a5a7d411e9190a250565b610fbc611922565b610e735f611c60565b600154339073ffffffffffffffffffffffffffffffffffffffff168114611073576040517f08c379a000000000000000000000000000000000000000000000000000000000815260206004820152602960248201527f4f776e61626c6532537465703a2063616c6c6572206973206e6f74207468652060448201527f6e6577206f776e6572000000000000000000000000000000000000000000000060648201526084015b60405180910390fd5b61107c81611c60565b50565b5f5473ffffffffffffffffffffffffffffffffffffffff1633148015906110b55750335f9081526002602052604090205460ff16155b156110ec576040517fcae1d95600000000000000000000000000000000000000000000000000000000815260040160405180910390fd5b610e73611c91565b6110fc611922565b5f8181526004602052604090206005015460ff16611146576040517fe142361700000000000000000000000000000000000000000000000000000000815260040160405180910390fd5b60405181907f74dd6d328fdb20dc529bd8a577f9f6d42ee019e7b06355afd03d61c400fed287905f90a25f90815260046020526040902060050180547fffffffffffffffffffffffffffffffffffffffffffffffffffffffffffffff00169055565b60035473ffffffffffffffffffffffffffffffffffffffff1633146111f9576040517f8020644900000000000000000000000000000000000000000000000000000000815260040160405180910390fd5b60035474010000000000000000000000000000000000000000900464ffffffffff1615611252576040517fca1c3cbc00000000000000000000000000000000000000000000000000000000815260040160405180910390fd5b61125a6119a2565b600380547fffffffffffffff0000000000ffffffffffffffffffffffffffffffffffffffff16740100000000000000000000000000000000000000004264ffffffffff90811682029290921792839055604051920416907fe4a25c0c2cbe89d6ad8b64c61a7dbdd20d1f781f6023f1ab94ebb7fe0aef6ab8905f90a2565b6112e0611922565b73ffffffffffffffffffffffffffffffffffffffff81165f8181526002602052604080822080547fffffffffffffffffffffffffffffffffffffffffffffffffffffffffffffff00166001179055517f87dc5eecd6d6bdeae407c426da6bfba5b7190befc554ed5d4d62dd5cf939fbae9190a250565b60035473ffffffffffffffffffffffffffffffffffffffff1633146113a7576040517f8020644900000000000000000000000000000000000000000000000000000000815260040160405180910390fd5b60035474010000000000000000000000000000000000000000900464ffffffffff161515801561142e5750600354611424907f000000000000000000000000000000000000000000000000000000000000000062ffffff169074010000000000000000000000000000000000000000900464ffffffffff166123b5565b64ffffffffff1642115b15611465576040517fca0dc97b00000000000000000000000000000000000000000000000000000000815260040160405180910390fd5b61146d6119a2565b5f8290036114a7576040517f0a514b9900000000000000000000000000000000000000000000000000000000815260040160405180910390fd5b5f84815260046020818152604092839020835160c08101855281548152600182015492810192909252600281015473ffffffffffffffffffffffffffffffffffffffff908116948301949094526003810154909316606082015290820154608082015260059091015460ff16151560a08201819052611552576040517fe142361700000000000000000000000000000000000000000000000000000000815260040160405180910390fd5b5f5b83811015610b8c57825f03611595576040517f7616640100000000000000000000000000000000000000000000000000000000815260040160405180910390fd5b81518310156115d0576040517f7616640100000000000000000000000000000000000000000000000000000000815260040160405180910390fd5b816020015183111561160e576040517f7616640100000000000000000000000000000000000000000000000000000000815260040160405180910390fd5b338686868481811061162257611622612371565b905060200201357f793544f1eebcd80eaa24d7c6e32b707488daf4303d0ec3349b34ea9d053232858660405161165a91815260200190565b60405180910390a4600101611554565b611672611922565b6001805473ffffffffffffffffffffffffffffffffffffffff83167fffffffffffffffffffffffff000000000000000000000000000000000000000090911681179091556116d45f5473ffffffffffffffffffffffffffffffffffffffff1690565b73ffffffffffffffffffffffffffffffffffffffff167f38d16b8cac22d99fc7c124b9cd0de2d3fa1faef420bfe791d8c362d765e2270060405160405180910390a350565b611721611afa565b5f828152600460208181526040808420815160c08101835281548152600182015493810193909352600281015473ffffffffffffffffffffffffffffffffffffffff908116928401929092526003810154909116606083015291820154608082015260059091015460ff16151560a0820152908290036117cd576040517f7616640100000000000000000000000000000000000000000000000000000000815260040160405180910390fd5b8060a00151611808576040517fe142361700000000000000000000000000000000000000000000000000000000815260040160405180910390fd5b8051821015611843576040517f7616640100000000000000000000000000000000000000000000000000000000815260040160405180910390fd5b8060200151821115611881576040517f7616640100000000000000000000000000000000000000000000000000000000815260040160405180910390fd5b5f828260800151611892919061239e565b90503373ffffffffffffffffffffffffffffffffffffffff1684867f793544f1eebcd80eaa24d7c6e32b707488daf4303d0ec3349b34ea9d05323285866040516118de91815260200190565b60405180910390a461191b33836040015183856060015173ffffffffffffffffffffffffffffffffffffffff16611b7f909392919063ffffffff16565b5050505050565b5f5473ffffffffffffffffffffffffffffffffffffffff163314610e73576040517f08c379a000000000000000000000000000000000000000000000000000000000815260206004820181905260248201527f4f776e61626c653a2063616c6c6572206973206e6f7420746865206f776e6572604482015260640161106a565b60015474010000000000000000000000000000000000000000900460ff16610e73576040517f08c379a000000000000000000000000000000000000000000000000000000000815260206004820152601460248201527f5061757361626c653a206e6f7420706175736564000000000000000000000000604482015260640161106a565b60405173ffffffffffffffffffffffffffffffffffffffff83166024820152604481018290526107cd9084907fa9059cbb00000000000000000000000000000000000000000000000000000000906064015b604080517fffffffffffffffffffffffffffffffffffffffffffffffffffffffffffffffe08184030181529190526020810180517bffffffffffffffffffffffffffffffffffffffffffffffffffffffff167fffffffff0000000000000000000000000000000000000000000000000000000090931692909217909152611d00565b60015474010000000000000000000000000000000000000000900460ff1615610e73576040517f08c379a000000000000000000000000000000000000000000000000000000000815260206004820152601060248201527f5061757361626c653a2070617573656400000000000000000000000000000000604482015260640161106a565b60405173ffffffffffffffffffffffffffffffffffffffff80851660248301528316604482015260648101829052611bdd9085907f23b872dd0000000000000000000000000000000000000000000000000000000090608401611a78565b50505050565b611beb6119a2565b600180547fffffffffffffffffffffff00ffffffffffffffffffffffffffffffffffffffff1690557f5db9ee0a495bf2e6ff9c91a7834c1ba4fdd244a5e8aa4e537bd38aeae4b073aa335b60405173ffffffffffffffffffffffffffffffffffffffff909116815260200160405180910390a1565b600180547fffffffffffffffffffffffff000000000000000000000000000000000000000016905561107c81611e0d565b611c99611afa565b600180547fffffffffffffffffffffff00ffffffffffffffffffffffffffffffffffffffff16740100000000000000000000000000000000000000001790557f62e78cea01bee320cd4e420270b5ea74000d11b0c9f74754ebdbfc544b05a258611c363390565b5f611d61826040518060400160405280602081526020017f5361666545524332303a206c6f772d6c6576656c2063616c6c206661696c65648152508573ffffffffffffffffffffffffffffffffffffffff16611e819092919063ffffffff16565b905080515f1480611d81575080806020019051810190611d8191906123d2565b6107cd576040517f08c379a000000000000000000000000000000000000000000000000000000000815260206004820152602a60248201527f5361666545524332303a204552433230206f7065726174696f6e20646964206e60448201527f6f74207375636365656400000000000000000000000000000000000000000000606482015260840161106a565b5f805473ffffffffffffffffffffffffffffffffffffffff8381167fffffffffffffffffffffffff0000000000000000000000000000000000000000831681178455604051919092169283917f8be0079c531659141344cd1fd0a4f28419497f9722a3daafe3b4186f6b6457e09190a35050565b6060611e8f84845f85611e97565b949350505050565b606082471015611f29576040517f08c379a000000000000000000000000000000000000000000000000000000000815260206004820152602660248201527f416464726573733a20696e73756666696369656e742062616c616e636520666f60448201527f722063616c6c0000000000000000000000000000000000000000000000000000606482015260840161106a565b5f5f8673ffffffffffffffffffffffffffffffffffffffff168587604051611f5191906123f1565b5f6040518083038185875af1925050503d805f8114611f8b576040519150601f19603f3d011682016040523d82523d5f602084013e611f90565b606091505b5091509150611fa187838387611fac565b979650505050505050565b606083156120415782515f0361203a5773ffffffffffffffffffffffffffffffffffffffff85163b61203a576040517f08c379a000000000000000000000000000000000000000000000000000000000815260206004820152601d60248201527f416464726573733a2063616c6c20746f206e6f6e2d636f6e7472616374000000604482015260640161106a565b5081611e8f565b611e8f83838151156120565781518083602001fd5b806040517f08c379a000000000000000000000000000000000000000000000000000000000815260040161106a919061229e565b803573ffffffffffffffffffffffffffffffffffffffff811681146120ad575f5ffd5b919050565b5f602082840312156120c2575f5ffd5b6120cb8261208a565b9392505050565b5f5f604083850312156120e3575f5ffd5b6120ec8361208a565b91506120fa6020840161208a565b90509250929050565b5f5f5f5f5f5f60c08789031215612118575f5ffd5b863595506121286020880161208a565b945060408701359350606087013592506080870135915061214b60a0880161208a565b90509295509295509295565b5f5f83601f840112612167575f5ffd5b50813567ffffffffffffffff81111561217e575f5ffd5b6020830191508360208260051b8501011115612198575f5ffd5b9250929050565b5f5f5f5f5f606086880312156121b3575f5ffd5b85359450602086013567ffffffffffffffff8111156121d0575f5ffd5b6121dc88828901612157565b909550935050604086013567ffffffffffffffff8111156121fb575f5ffd5b61220788828901612157565b969995985093965092949392505050565b5f5f60408385031215612229575f5ffd5b50508035926020909101359150565b5f60208284031215612248575f5ffd5b5035919050565b5f5f5f5f60608587031215612262575f5ffd5b84359350602085013567ffffffffffffffff81111561227f575f5ffd5b61228b87828801612157565b9598909750949560400135949350505050565b602081525f82518060208401528060208501604085015e5f6040828501015260407fffffffffffffffffffffffffffffffffffffffffffffffffffffffffffffffe0601f83011684010191505092915050565b5f5f5f60608486031215612303575f5ffd5b505081359360208301359350604090920135919050565b5f6020828403121561232a575f5ffd5b5051919050565b7f4e487b71000000000000000000000000000000000000000000000000000000005f52601160045260245ffd5b80820180821115610f3357610f33612331565b7f4e487b71000000000000000000000000000000000000000000000000000000005f52603260045260245ffd5b8082028115828204841417610f3357610f33612331565b64ffffffffff8181168382160190811115610f3357610f33612331565b5f602082840312156123e2575f5ffd5b815180151581146120cb575f5ffd5b5f82518060208501845e5f92019182525091905056fea164736f6c634300081d000a","linkReferences":{}},"methodIdentifiers":{"VERSION()":"ffa1ad74","acceptOwnership()":"79ba5097","addGuardian(address)":"a526d83b","batchCreditTier(uint256,uint256[],uint256)":"c34d45c2","batchPurchaseTier(uint256,uint256[],uint256[])":"32fc154c","deactivateTier(uint256)":"8bd684ee","gracePeriod()":"a06db7dc","guardians(address)":"0633b14a","isMigrated()":"b06faf62","migrate()":"8fd3ab80","migratedAt()":"8b21e484","migrator()":"7cd07e47","nextTierId()":"0594fd04","owner()":"8da5cb5b","pause()":"8456cb59","paused()":"5c975abb","pendingOwner()":"e30c3978","price(uint256,uint256)":"487a2395","purchaseTier(uint256,uint256,uint256)":"ffbe86c8","removeGuardian(address)":"71404156","renounceOwnership()":"715018a6","setMigrator(address)":"23cf3118","setTier(uint256,address,uint256,uint256,uint256,address)":"2a9d0dcb","sweepToken(address,address)":"258836fe","tierInfo(uint256)":"a267c2c4","transferOwnership(address)":"f2fde38b","unpause()":"3f4ba83a"},"id":72}