{"abi":[{"type":"constructor","inputs":[{"name":"_idRegistry","type":"address","internalType":"address"},{"name":"_storageRegistry","type":"address","internalType":"address"},{"name":"_initialOwner","type":"address","internalType":"address"}],"stateMutability":"nonpayable"},{"type":"receive","stateMutability":"payable"},{"type":"function","name":"REGISTER_TYPEHASH","inputs":[],"outputs":[{"name":"","type":"bytes32","internalType":"bytes32"}],"stateMutability":"view"},{"type":"function","name":"VERSION","inputs":[],"outputs":[{"name":"","type":"string","internalType":"string"}],"stateMutability":"view"},{"type":"function","name":"acceptOwnership","inputs":[],"outputs":[],"stateMutability":"nonpayable"},{"type":"function","name":"addGuardian","inputs":[{"name":"guardian","type":"address","internalType":"address"}],"outputs":[],"stateMutability":"nonpayable"},{"type":"function","name":"domainSeparatorV4","inputs":[],"outputs":[{"name":"","type":"bytes32","internalType":"bytes32"}],"stateMutability":"view"},{"type":"function","name":"eip712Domain","inputs":[],"outputs":[{"name":"fields","type":"bytes1","internalType":"bytes1"},{"name":"name","type":"string","internalType":"string"},{"name":"version","type":"string","internalType":"string"},{"name":"chainId","type":"uint256","internalType":"uint256"},{"name":"verifyingContract","type":"address","internalType":"address"},{"name":"salt","type":"bytes32","internalType":"bytes32"},{"name":"extensions","type":"uint256[]","internalType":"uint256[]"}],"stateMutability":"view"},{"type":"function","name":"guardians","inputs":[{"name":"guardian","type":"address","internalType":"address"}],"outputs":[{"name":"isGuardian","type":"bool","internalType":"bool"}],"stateMutability":"view"},{"type":"function","name":"hashTypedDataV4","inputs":[{"name":"structHash","type":"bytes32","internalType":"bytes32"}],"outputs":[{"name":"","type":"bytes32","internalType":"bytes32"}],"stateMutability":"view"},{"type":"function","name":"idRegistry","inputs":[],"outputs":[{"name":"","type":"address","internalType":"contract IIdRegistry"}],"stateMutability":"view"},{"type":"function","name":"nonces","inputs":[{"name":"owner","type":"address","internalType":"address"}],"outputs":[{"name":"","type":"uint256","internalType":"uint256"}],"stateMutability":"view"},{"type":"function","name":"owner","inputs":[],"outputs":[{"name":"","type":"address","internalType":"address"}],"stateMutability":"view"},{"type":"function","name":"pause","inputs":[],"outputs":[],"stateMutability":"nonpayable"},{"type":"function","name":"paused","inputs":[],"outputs":[{"name":"","type":"bool","internalType":"bool"}],"stateMutability":"view"},{"type":"function","name":"pendingOwner","inputs":[],"outputs":[{"name":"","type":"address","internalType":"address"}],"stateMutability":"view"},{"type":"function","name":"price","inputs":[{"name":"extraStorage","type":"uint256","internalType":"uint256"}],"outputs":[{"name":"","type":"uint256","internalType":"uint256"}],"stateMutability":"view"},{"type":"function","name":"price","inputs":[],"outputs":[{"name":"","type":"uint256","internalType":"uint256"}],"stateMutability":"view"},{"type":"function","name":"register","inputs":[{"name":"recovery","type":"address","internalType":"address"}],"outputs":[{"name":"","type":"uint256","internalType":"uint256"},{"name":"","type":"uint256","internalType":"uint256"}],"stateMutability":"payable"},{"type":"function","name":"register","inputs":[{"name":"recovery","type":"address","internalType":"address"},{"name":"extraStorage","type":"uint256","internalType":"uint256"}],"outputs":[{"name":"fid","type":"uint256","internalType":"uint256"},{"name":"overpayment","type":"uint256","internalType":"uint256"}],"stateMutability":"payable"},{"type":"function","name":"registerFor","inputs":[{"name":"to","type":"address","internalType":"address"},{"name":"recovery","type":"address","internalType":"address"},{"name":"deadline","type":"uint256","internalType":"uint256"},{"name":"sig","type":"bytes","internalType":"bytes"}],"outputs":[{"name":"","type":"uint256","internalType":"uint256"},{"name":"","type":"uint256","internalType":"uint256"}],"stateMutability":"payable"},{"type":"function","name":"registerFor","inputs":[{"name":"to","type":"address","internalType":"address"},{"name":"recovery","type":"address","internalType":"address"},{"name":"deadline","type":"uint256","internalType":"uint256"},{"name":"sig","type":"bytes","internalType":"bytes"},{"name":"extraStorage","type":"uint256","internalType":"uint256"}],"outputs":[{"name":"fid","type":"uint256","internalType":"uint256"},{"name":"overpayment","type":"uint256","internalType":"uint256"}],"stateMutability":"payable"},{"type":"function","name":"removeGuardian","inputs":[{"name":"guardian","type":"address","internalType":"address"}],"outputs":[],"stateMutability":"nonpayable"},{"type":"function","name":"renounceOwnership","inputs":[],"outputs":[],"stateMutability":"nonpayable"},{"type":"function","name":"setStorageRegistry","inputs":[{"name":"_storageRegistry","type":"address","internalType":"address"}],"outputs":[],"stateMutability":"nonpayable"},{"type":"function","name":"storageRegistry","inputs":[],"outputs":[{"name":"","type":"address","internalType":"contract IStorageRegistry"}],"stateMutability":"view"},{"type":"function","name":"transferOwnership","inputs":[{"name":"newOwner","type":"address","internalType":"address"}],"outputs":[],"stateMutability":"nonpayable"},{"type":"function","name":"unpause","inputs":[],"outputs":[],"stateMutability":"nonpayable"},{"type":"function","name":"useNonce","inputs":[],"outputs":[{"name":"","type":"uint256","internalType":"uint256"}],"stateMutability":"nonpayable"},{"type":"event","name":"Add","inputs":[{"name":"guardian","type":"address","indexed":true,"internalType":"address"}],"anonymous":false},{"type":"event","name":"EIP712DomainChanged","inputs":[],"anonymous":false},{"type":"event","name":"OwnershipTransferStarted","inputs":[{"name":"previousOwner","type":"address","indexed":true,"internalType":"address"},{"name":"newOwner","type":"address","indexed":true,"internalType":"address"}],"anonymous":false},{"type":"event","name":"OwnershipTransferred","inputs":[{"name":"previousOwner","type":"address","indexed":true,"internalType":"address"},{"name":"newOwner","type":"address","indexed":true,"internalType":"address"}],"anonymous":false},{"type":"event","name":"Paused","inputs":[{"name":"account","type":"address","indexed":false,"internalType":"address"}],"anonymous":false},{"type":"event","name":"Remove","inputs":[{"name":"guardian","type":"address","indexed":true,"internalType":"address"}],"anonymous":false},{"type":"event","name":"SetStorageRegistry","inputs":[{"name":"oldStorageRegistry","type":"address","indexed":false,"internalType":"address"},{"name":"newStorageRegistry","type":"address","indexed":false,"internalType":"address"}],"anonymous":false},{"type":"event","name":"Unpaused","inputs":[{"name":"account","type":"address","indexed":false,"internalType":"address"}],"anonymous":false},{"type":"error","name":"CallFailed","inputs":[]},{"type":"error","name":"InvalidAccountNonce","inputs":[{"name":"account","type":"address","internalType":"address"},{"name":"currentNonce","type":"uint256","internalType":"uint256"}]},{"type":"error","name":"InvalidShortString","inputs":[]},{"type":"error","name":"InvalidSignature","inputs":[]},{"type":"error","name":"OnlyGuardian","inputs":[]},{"type":"error","name":"SignatureExpired","inputs":[]},{"type":"error","name":"StringTooLong","inputs":[{"name":"str","type":"string","internalType":"string"}]},{"type":"error","name":"Unauthorized","inputs":[]}],"bytecode":{"object":"0x610180604052348015610010575f5ffd5b5060405161219b38038061219b83398101604081905261002f916102c9565b6040518060400160405280601381526020017f4661726361737465722049644761746577617900000000000000000000000000815250604051806040016040528060018152602001603160f81b8152508181846100986100936101c760201b60201c565b6101cb565b6001805460ff60a01b191690556100ae816101cb565b506100ba8260036101e7565b610120526100c98160046101e7565b61014052815160208084019190912060e052815190820120610100524660a05261015560e05161010051604080517f8b73c3c69bb8fe3d512ecc4cf759cc79239f7b179b0ffacaa9a75d522b39400f60208201529081019290925260608201524660808201523060a08201525f9060c00160405160208183030381529060405280519060200120905090565b60805250503060c05250506001600160a01b0383811661016052600680546001600160a01b0319169184169182179055604080515f815260208101929092527f02fe9e072322317117700d5b8e41348ab279dac34a90a8302038a8e1ce324628910160405180910390a15050506104b3565b3390565b600180546001600160a01b03191690556101e481610219565b50565b5f602083511015610202576101fb83610268565b9050610213565b8161020d84826103a1565b5060ff90505b92915050565b5f80546001600160a01b038381166001600160a01b0319831681178455604051919092169283917f8be0079c531659141344cd1fd0a4f28419497f9722a3daafe3b4186f6b6457e09190a35050565b5f5f829050601f8151111561029b578260405163305a27a960e01b8152600401610292919061045b565b60405180910390fd5b80516102a682610490565b179392505050565b80516001600160a01b03811681146102c4575f5ffd5b919050565b5f5f5f606084860312156102db575f5ffd5b6102e4846102ae565b92506102f2602085016102ae565b9150610300604085016102ae565b90509250925092565b634e487b7160e01b5f52604160045260245ffd5b600181811c9082168061033157607f821691505b60208210810361034f57634e487b7160e01b5f52602260045260245ffd5b50919050565b601f82111561039c57805f5260205f20601f840160051c8101602085101561037a5750805b601f840160051c820191505b81811015610399575f8155600101610386565b50505b505050565b81516001600160401b038111156103ba576103ba610309565b6103ce816103c8845461031d565b84610355565b6020601f821160018114610400575f83156103e95750848201515b5f19600385901b1c1916600184901b178455610399565b5f84815260208120601f198516915b8281101561042f578785015182556020948501946001909201910161040f565b508482101561044c57868401515f19600387901b60f8161c191681555b50505050600190811b01905550565b602081525f82518060208401528060208501604085015e5f604082850101526040601f19601f83011684010191505092915050565b8051602080830151919081101561034f575f1960209190910360031b1b16919050565b60805160a05160c05160e05161010051610120516101405161016051611c7f61051c5f395f81816102570152818161073c0152610b4d01525f6109b901525f61098e01525f61115c01525f61113401525f61108f01525f6110b901525f6110e30152611c7f5ff3fe6080604052600436106101a7575f3560e01c8063715018a6116100e7578063a035b1fe11610087578063e30c397811610062578063e30c397814610548578063f2fde38b14610572578063fa0b7dc814610591578063ffa1ad74146105b0575f5ffd5b8063a035b1fe14610502578063a0c7529c14610516578063a526d83b14610529575f5ffd5b80637ecebe00116100c25780637ecebe001461045d5780638456cb591461049e57806384b0196e146104b25780638da5cb5b146104d9575f5ffd5b8063715018a61461042157806378e890ba1461043557806379ba509714610449575f5ffd5b80634980f2881161015257806369615a4c1161012d57806369615a4c146103945780636a5306a3146103bc5780636d705ebb146103ef5780637140415614610402575f5ffd5b80634980f2881461031a5780634ec77b45146103395780635c975abb14610365575f5ffd5b80633efa0b02116101825780633efa0b02146102cb5780633f4ba83a146102f35780634420e48614610307575f5ffd5b80630633b14a146102035780630aa13b8c1461024657806326a49e371461029e575f5ffd5b366101ff5760065473ffffffffffffffffffffffffffffffffffffffff1633146101fd576040517f82b4290000000000000000000000000000000000000000000000000000000000815260040160405180910390fd5b005b5f5ffd5b34801561020e575f5ffd5b5061023161021d3660046118e1565b60026020525f908152604090205460ff1681565b60405190151581526020015b60405180910390f35b348015610251575f5ffd5b506102797f000000000000000000000000000000000000000000000000000000000000000081565b60405173ffffffffffffffffffffffffffffffffffffffff909116815260200161023d565b3480156102a9575f5ffd5b506102bd6102b8366004611901565b610605565b60405190815260200161023d565b6102de6102d9366004611956565b610693565b6040805192835260208301919091520161023d565b3480156102fe575f5ffd5b506101fd6106b1565b6102de6103153660046118e1565b6106c3565b348015610325575f5ffd5b506102bd610334366004611901565b6106d8565b348015610344575f5ffd5b506006546102799073ffffffffffffffffffffffffffffffffffffffff1681565b348015610370575f5ffd5b5060015474010000000000000000000000000000000000000000900460ff16610231565b34801561039f575f5ffd5b50335f9081526005602052604090208054600181019091556102bd565b3480156103c7575f5ffd5b506102bd7fda015cfdaa9f5cc1c418ff1c04a4cbd09fcecc68838ea2e0ec2bb42ce17da78181565b6102de6103fd3660046119c0565b6106e7565b34801561040d575f5ffd5b506101fd61041c3660046118e1565b6107bd565b34801561042c575f5ffd5b506101fd610838565b348015610440575f5ffd5b506102bd610849565b348015610454575f5ffd5b506101fd610852565b348015610468575f5ffd5b506102bd6104773660046118e1565b73ffffffffffffffffffffffffffffffffffffffff165f9081526005602052604090205490565b3480156104a9575f5ffd5b506101fd61090c565b3480156104bd575f5ffd5b506104c6610981565b60405161023d9796959493929190611a34565b3480156104e4575f5ffd5b505f5473ffffffffffffffffffffffffffffffffffffffff16610279565b34801561050d575f5ffd5b506102bd610a24565b6102de610524366004611af3565b610ab5565b348015610534575f5ffd5b506101fd6105433660046118e1565b610bd2565b348015610553575f5ffd5b5060015473ffffffffffffffffffffffffffffffffffffffff16610279565b34801561057d575f5ffd5b506101fd61058c3660046118e1565b610c50565b34801561059c575f5ffd5b506101fd6105ab3660046118e1565b610cff565b3480156105bb575f5ffd5b506105f86040518060400160405280600a81526020017f323032332e31312e31350000000000000000000000000000000000000000000081525081565b60405161023d9190611b65565b6006545f9073ffffffffffffffffffffffffffffffffffffffff166326a49e37610630846001611b77565b6040518263ffffffff1660e01b815260040161064e91815260200190565b602060405180830381865afa158015610669573d5f5f3e3d5ffd5b505050506040513d601f19601f8201168201806040525081019061068d9190611baf565b92915050565b5f5f6106a387878787875f610ab5565b915091509550959350505050565b6106b9610da2565b6106c1610e22565b565b5f5f6106cf835f6106e7565b91509150915091565b5f61068d82610e9f565b905090565b5f5f6106f1610ee6565b6040517faa67735400000000000000000000000000000000000000000000000000000000815233600482015273ffffffffffffffffffffffffffffffffffffffff85811660248301527f0000000000000000000000000000000000000000000000000000000000000000169063aa677354906044016020604051808303815f875af1158015610782573d5f5f3e3d5ffd5b505050506040513d601f19601f820116820180604052508101906107a69190611baf565b91506107b482843433610f6b565b90509250929050565b6107c5610da2565b73ffffffffffffffffffffffffffffffffffffffff81165f8181526002602052604080822080547fffffffffffffffffffffffffffffffffffffffffffffffffffffffffffffff00169055517fbe7c7ac3248df4581c206a84aab3cb4e7d521b5398b42b681757f78a5a7d411e9190a250565b610840610da2565b6106c15f611045565b5f6106e2611076565b600154339073ffffffffffffffffffffffffffffffffffffffff168114610900576040517f08c379a000000000000000000000000000000000000000000000000000000000815260206004820152602960248201527f4f776e61626c6532537465703a2063616c6c6572206973206e6f74207468652060448201527f6e6577206f776e6572000000000000000000000000000000000000000000000060648201526084015b60405180910390fd5b61090981611045565b50565b5f5473ffffffffffffffffffffffffffffffffffffffff1633148015906109425750335f9081526002602052604090205460ff16155b15610979576040517fcae1d95600000000000000000000000000000000000000000000000000000000815260040160405180910390fd5b6106c16111ac565b5f606080828080836109b47f0000000000000000000000000000000000000000000000000000000000000000600361121b565b6109df7f0000000000000000000000000000000000000000000000000000000000000000600461121b565b604080515f808252602082019092527f0f000000000000000000000000000000000000000000000000000000000000009b939a50919850469750309650945092509050565b600654604080517fe73faa2d00000000000000000000000000000000000000000000000000000000815290515f9273ffffffffffffffffffffffffffffffffffffffff169163e73faa2d9160048083019260209291908290030181865afa158015610a91573d5f5f3e3d5ffd5b505050506040513d601f19601f820116820180604052508101906106e29190611baf565b5f5f610abf610ee6565b610b0088888888888080601f0160208091040260200160405190810160405280939291908181526020018383808284375f920191909152506112c592505050565b6040517faa67735400000000000000000000000000000000000000000000000000000000815273ffffffffffffffffffffffffffffffffffffffff898116600483015288811660248301527f0000000000000000000000000000000000000000000000000000000000000000169063aa677354906044016020604051808303815f875af1158015610b93573d5f5f3e3d5ffd5b505050506040513d601f19601f82011682018060405250810190610bb79190611baf565b9150610bc582843433610f6b565b9050965096945050505050565b610bda610da2565b73ffffffffffffffffffffffffffffffffffffffff81165f8181526002602052604080822080547fffffffffffffffffffffffffffffffffffffffffffffffffffffffffffffff00166001179055517f87dc5eecd6d6bdeae407c426da6bfba5b7190befc554ed5d4d62dd5cf939fbae9190a250565b610c58610da2565b6001805473ffffffffffffffffffffffffffffffffffffffff83167fffffffffffffffffffffffff00000000000000000000000000000000000000009091168117909155610cba5f5473ffffffffffffffffffffffffffffffffffffffff1690565b73ffffffffffffffffffffffffffffffffffffffff167f38d16b8cac22d99fc7c124b9cd0de2d3fa1faef420bfe791d8c362d765e2270060405160405180910390a350565b610d07610da2565b6006546040805173ffffffffffffffffffffffffffffffffffffffff928316815291831660208301527f02fe9e072322317117700d5b8e41348ab279dac34a90a8302038a8e1ce324628910160405180910390a1600680547fffffffffffffffffffffffff00000000000000000000000000000000000000001673ffffffffffffffffffffffffffffffffffffffff92909216919091179055565b5f5473ffffffffffffffffffffffffffffffffffffffff1633146106c1576040517f08c379a000000000000000000000000000000000000000000000000000000000815260206004820181905260248201527f4f776e61626c653a2063616c6c6572206973206e6f7420746865206f776e657260448201526064016108f7565b610e2a611388565b600180547fffffffffffffffffffffff00ffffffffffffffffffffffffffffffffffffffff1690557f5db9ee0a495bf2e6ff9c91a7834c1ba4fdd244a5e8aa4e537bd38aeae4b073aa335b60405173ffffffffffffffffffffffffffffffffffffffff909116815260200160405180910390a1565b5f61068d610eab611076565b836040517f19010000000000000000000000000000000000000000000000000000000000008152600281019290925260228201526042902090565b60015474010000000000000000000000000000000000000000900460ff16156106c1576040517f08c379a000000000000000000000000000000000000000000000000000000000815260206004820152601060248201527f5061757361626c653a207061757365640000000000000000000000000000000060448201526064016108f7565b6006545f9073ffffffffffffffffffffffffffffffffffffffff1663783a112b8487610f98886001611b77565b6040517fffffffff0000000000000000000000000000000000000000000000000000000060e086901b1681526004810192909252602482015260440160206040518083038185885af1158015610ff0573d5f5f3e3d5ffd5b50505050506040513d601f19601f820116820180604052508101906110159190611baf565b9050801561103d5761103d73ffffffffffffffffffffffffffffffffffffffff83168261140c565b949350505050565b600180547fffffffffffffffffffffffff000000000000000000000000000000000000000016905561090981611453565b5f3073ffffffffffffffffffffffffffffffffffffffff7f0000000000000000000000000000000000000000000000000000000000000000161480156110db57507f000000000000000000000000000000000000000000000000000000000000000046145b1561110557507f000000000000000000000000000000000000000000000000000000000000000090565b6106e2604080517f8b73c3c69bb8fe3d512ecc4cf759cc79239f7b179b0ffacaa9a75d522b39400f60208201527f0000000000000000000000000000000000000000000000000000000000000000918101919091527f000000000000000000000000000000000000000000000000000000000000000060608201524660808201523060a08201525f9060c00160405160208183030381529060405280519060200120905090565b6111b4610ee6565b600180547fffffffffffffffffffffff00ffffffffffffffffffffffffffffffffffffffff16740100000000000000000000000000000000000000001790557f62e78cea01bee320cd4e420270b5ea74000d11b0c9f74754ebdbfc544b05a258610e753390565b606060ff83146112355761122e836114c7565b905061068d565b81805461124190611bc6565b80601f016020809104026020016040519081016040528092919081815260200182805461126d90611bc6565b80156112b85780601f1061128f576101008083540402835291602001916112b8565b820191905f5260205f20905b81548152906001019060200180831161129b57829003601f168201915b5050505050905092915050565b61138261137a7fda015cfdaa9f5cc1c418ff1c04a4cbd09fcecc68838ea2e0ec2bb42ce17da78186866113218973ffffffffffffffffffffffffffffffffffffffff165f90815260056020526040902080546001810190915590565b60408051602081019590955273ffffffffffffffffffffffffffffffffffffffff9384169085015291166060830152608082015260a0810185905260c00160405160208183030381529060405280519060200120610e9f565b858484611504565b50505050565b60015474010000000000000000000000000000000000000000900460ff166106c1576040517f08c379a000000000000000000000000000000000000000000000000000000000815260206004820152601460248201527f5061757361626c653a206e6f742070617573656400000000000000000000000060448201526064016108f7565b5f5f5f5f5f85875af190508061144e576040517f3204506f00000000000000000000000000000000000000000000000000000000815260040160405180910390fd5b505050565b5f805473ffffffffffffffffffffffffffffffffffffffff8381167fffffffffffffffffffffffff0000000000000000000000000000000000000000831681178455604051919092169283917f8be0079c531659141344cd1fd0a4f28419497f9722a3daafe3b4186f6b6457e09190a35050565b60605f6114d38361157f565b6040805160208082528183019092529192505f91906020820181803683375050509182525060208101929092525090565b8142111561153e576040517f0819bdcd00000000000000000000000000000000000000000000000000000000815260040160405180910390fd5b6115498385836115bf565b611382576040517f8baa579f00000000000000000000000000000000000000000000000000000000815260040160405180910390fd5b5f60ff8216601f81111561068d576040517fb3512b0c00000000000000000000000000000000000000000000000000000000815260040160405180910390fd5b5f5f5f6115cc8585611637565b90925090505f8160048111156115e4576115e4611c17565b14801561161c57508573ffffffffffffffffffffffffffffffffffffffff168273ffffffffffffffffffffffffffffffffffffffff16145b8061162d575061162d868686611679565b9695505050505050565b5f5f825160410361166b576020830151604084015160608501515f1a61165f878285856117d1565b94509450505050611672565b505f905060025b9250929050565b5f5f5f8573ffffffffffffffffffffffffffffffffffffffff16631626ba7e60e01b86866040516024016116ae929190611c44565b604080517fffffffffffffffffffffffffffffffffffffffffffffffffffffffffffffffe08184030181529181526020820180517bffffffffffffffffffffffffffffffffffffffffffffffffffffffff167fffffffff000000000000000000000000000000000000000000000000000000009094169390931790925290516117379190611c5c565b5f60405180830381855afa9150503d805f811461176f576040519150601f19603f3d011682016040523d82523d5f602084013e611774565b606091505b509150915081801561178857506020815110155b801561162d575080517f1626ba7e00000000000000000000000000000000000000000000000000000000906117c69083016020908101908401611baf565b149695505050505050565b5f807f7fffffffffffffffffffffffffffffff5d576e7357a4501ddfe92f46681b20a083111561180657505f905060036118b0565b604080515f8082526020820180845289905260ff881692820192909252606081018690526080810185905260019060a0016020604051602081039080840390855afa158015611857573d5f5f3e3d5ffd5b50506040517fffffffffffffffffffffffffffffffffffffffffffffffffffffffffffffffe0015191505073ffffffffffffffffffffffffffffffffffffffff81166118aa575f600192509250506118b0565b91505f90505b94509492505050565b803573ffffffffffffffffffffffffffffffffffffffff811681146118dc575f5ffd5b919050565b5f602082840312156118f1575f5ffd5b6118fa826118b9565b9392505050565b5f60208284031215611911575f5ffd5b5035919050565b5f5f83601f840112611928575f5ffd5b50813567ffffffffffffffff81111561193f575f5ffd5b602083019150836020828501011115611672575f5ffd5b5f5f5f5f5f6080868803121561196a575f5ffd5b611973866118b9565b9450611981602087016118b9565b935060408601359250606086013567ffffffffffffffff8111156119a3575f5ffd5b6119af88828901611918565b969995985093965092949392505050565b5f5f604083850312156119d1575f5ffd5b6119da836118b9565b946020939093013593505050565b5f81518084528060208401602086015e5f6020828601015260207fffffffffffffffffffffffffffffffffffffffffffffffffffffffffffffffe0601f83011685010191505092915050565b7fff000000000000000000000000000000000000000000000000000000000000008816815260e060208201525f611a6e60e08301896119e8565b8281036040840152611a8081896119e8565b6060840188905273ffffffffffffffffffffffffffffffffffffffff8716608085015260a0840186905283810360c0850152845180825260208087019350909101905f5b81811015611ae2578351835260209384019390920191600101611ac4565b50909b9a5050505050505050505050565b5f5f5f5f5f5f60a08789031215611b08575f5ffd5b611b11876118b9565b9550611b1f602088016118b9565b945060408701359350606087013567ffffffffffffffff811115611b41575f5ffd5b611b4d89828a01611918565b979a9699509497949695608090950135949350505050565b602081525f6118fa60208301846119e8565b8082018082111561068d577f4e487b71000000000000000000000000000000000000000000000000000000005f52601160045260245ffd5b5f60208284031215611bbf575f5ffd5b5051919050565b600181811c90821680611bda57607f821691505b602082108103611c11577f4e487b71000000000000000000000000000000000000000000000000000000005f52602260045260245ffd5b50919050565b7f4e487b71000000000000000000000000000000000000000000000000000000005f52602160045260245ffd5b828152604060208201525f61103d60408301846119e8565b5f82518060208501845e5f92019182525091905056fea164736f6c634300081d000a","linkReferences":{}},"methodIdentifiers":{"REGISTER_TYPEHASH()":"6a5306a3","VERSION()":"ffa1ad74","acceptOwnership()":"79ba5097","addGuardian(address)":"a526d83b","domainSeparatorV4()":"78e890ba","eip712Domain()":"84b0196e","guardians(address)":"0633b14a","hashTypedDataV4(bytes32)":"4980f288","idRegistry()":"0aa13b8c","nonces(address)":"7ecebe00","owner()":"8da5cb5b","pause()":"8456cb59","paused()":"5c975abb","pendingOwner()":"e30c3978","price()":"a035b1fe","price(uint256)":"26a49e37","register(address)":"4420e486","register(address,uint256)":"6d705ebb","registerFor(address,address,uint256,bytes)":"3efa0b02","registerFor(address,address,uint256,bytes,uint256)":"a0c7529c","removeGuardian(address)":"71404156","renounceOwnership()":"715018a6","setStorageRegistry(address)":"fa0b7dc8","storageRegistry()":"4ec77b45","transferOwnership(address)":"f2fde38b","unpause()":"3f4ba83a","useNonce()":"69615a4c"},"id":66}